:100000000C9472000C9494000C9494000C94940042
:100010000C9494000C9494000C9494000C94940010
:100020000C9494000C9494000C9494000C94940000
:100030000C9494000C9494000C9494000C949400F0
:100040000C9494000C9494000C9494000C949400E0
:100050000C9494000C9494000C9494000C949400D0
:100060000C9494000C940A010C9494000C94DB0002
:100070000C9494000C9494000C9494000C949400B0
:100080000C9494000C9494000C9494000C949400A0
:100090000C9494000C9494000C9494000C94940090
:1000A0000C9494000C9494000C9494000C94940080
:1000B0000C9494000C9494000C9494000C94940070
:1000C0000C9494000C9494000C9494000C94940060
:1000D0000C9494000C9494000C9494000C94940050
:1000E0000C94940011241FBECFEFD1E2DEBFCDBF30
:1000F00000E00CBF12E0A0E0B2E0E6E1FCE000E0CE
:100100000BBF02C007900D92A436B107D9F71BBEF2
:1001100012E0A4E6B2E001C01D92A43FB107E1F7EE
:100120000E945B020C9409060C940000CF93C82F28
:100130008A3019F48DE00E949600F894809165024F
:10014000882361F4C093C60081E0809365020BC0F0
:10015000789481E28A95F1F70000F8948C2F0E9440
:1001600084010097A9F3789481E090E0CF910895FD
:1001700080E392E09093F1028093F0021092650286
:100180000E9434011092C50087E08093C400E0EC27
:10019000F0E0808182608083E1ECF0E08081886023
:1001A000808380818064808380818061808380817E
:1001B0008068808308951F920F920FB60F920BB63E
:1001C0000F9211242F933F934F935F936F937F93DD
:1001D0008F939F93AF93BF93EF93FF930E94A601DA
:1001E000882319F41092650202C08093C600FF9123
:1001F000EF91BF91AF919F918F917F916F915F919F
:100200004F913F912F910F900BBE0F900FBE0F900B
:100210001F9018951F920F920FB60F920BB60F9268
:1002200011242F933F934F935F936F937F938F93FB
:100230009F93AF93BF93EF93FF938091C6000E946B
:100240004501FF91EF91BF91AF919F918F917F9168
:100250006F915F914F913F912F910F900BBE0F9037
:100260000FBE0F901F9018951092AB021092AA0229
:100270001092A9021092A8021092AD021092AC0244
:1002800010926702109266020895482F2091AC02E6
:100290003091AD022F5F3F4FC90160E470E00E94D2
:1002A000F2029C018091660290916702281739073B
:1002B00059F03093AD022093AC0222553D4FF90125
:1002C000408381E090E0089580E090E0089580917F
:1002D0006602909167022091AC023091AD0228171E
:1002E000390779F0019660E470E00E94F202909381
:1002F00067028093660282559D4FFC01808190E0E9
:10030000089580E090E00895482F2091AA0230914E
:10031000AB022F5F3F4FC90160E470E00E94F20220
:100320009C018091A8029091A9022817390759F0E1
:100330003093AB022093AA0228593D4FF901408324
:1003400081E090E0089580E090E008958091A80217
:100350009091A9022091AA023091AB022817390787
:1003600079F0019660E470E00E94F2029093A90295
:100370008093A80288599D4FFC01808190E00895E8
:1003800080E090E00895CF93DF93FC0162E070E09D
:100390000E94F202EB0122E030E008C0CF01B90177
:1003A0000E94F202009741F02F5F3F4FC217D30720
:1003B000ACF781E090E002C080E090E0DF91CF9167
:1003C0000895CF92DF92EF92FF920F931F93CF93F6
:1003D000DF937C0100E010E0C2E0D0E02EE3C22E0B
:1003E00022E0D22E16C0CE010E94C301009781F0F8
:1003F0000F5F1F4F00D00F92EDB7FEB7D282C182C0
:10040000D483C3830E9422030F900F900F900F900C
:100410002196EC16FD063CF700D00F9288E592E09D
:10042000EDB7FEB792838183148303830E94220376
:100430000F900F900F900F90DF91CF911F910F9120
:10044000FF90EF90DF90CF9008958FEF80930B0196
:1004500080930A01089510920B011092640208958E
:100460008FEF80930B0180936402089521E030E0C8
:1004700002C0220F331F8A95E2F720958091640213
:1004800028232093640220930B01089521E030E09B
:1004900002C0220F331F8A95E2F780916402822BFB
:1004A0008093640280930B01089580958093640289
:1004B00080930B010895CF93DF93CDB7DEB7C0587B
:1004C000D0400FB6F894DEBF0FBECDBF0E94B8007B
:1004D0000E9425020E94300278940F920F9280E0D1
:1004E000E82E82E0F82EADB7BEB71296FC92EE92DF
:1004F00011970E9422030F900F9000E010E0DE2C75
:10050000EF2CF8940E94670178948823D1F38D3002
:10051000C1F3E1E0F0E0EC0FFD1FE00FF11F8A30C6
:1005200009F05CC01082CE01019663E072E00E9487
:100530001903009729F480ED97E00E94E1013EC085
:10054000CE01019667E072E00E941903009719F44A
:100550008BE092E031C0CE01019669E172E00E9429
:100560001903009739F500E010E00730110569F430
:1005700087E00E9436028FE59AEEA0E0815090401D
:10058000A040E1F700C000000FC0802F0E9436029B
:100590008FE59AEEA0E081509040A040E1F700C0C6
:1005A0000000802F0E9446020F5F1F4F0830110588
:1005B000E1F604C08DE192E00E9434030F920F92A5
:1005C000ADB7BEB71196DC9211971296EC920E94CD
:1005D00022030F900F9000E010E093CF80830F5F15
:1005E0001F4F8FCF97FB092E07260AD077FD04D027
:1005F0000CD006D000201AF4709561957F4F0895B5
:10060000F6F7909581959F4F0895AA1BBB1B51E16A
:1006100007C0AA1FBB1FA617B70710F0A61BB70B72
:10062000881F991F5A95A9F780959095BC01CD0117
:100630000895FB01DC018D91019080190110D9F31F
:10064000990B0895CF93DF93CDB7DEB7FE013696B1
:10065000619171918091F0029091F102AF010E943D
:100660006203DF91CF9108950F931F93CF93DF9390
:100670008C01E091F002F091F102838181FF1AC0B8
:10068000C0E0D0E005C01995009711F0CFEFDFEF83
:10069000F80181918F016091F0027091F102DB010C
:1006A0001896ED91FC911997882369F78AE01995BE
:1006B000009711F0CFEFDFEFCE01DF91CF911F91C7
:1006C0000F9108952F923F924F925F926F927F9277
:1006D0008F929F92AF92BF92CF92DF92EF92FF9252
:1006E0000F931F93CF93DF93CDB7DEB72D970FB640
:1006F000F894DEBF0FBECDBF3C017D876C875A01E9
:10070000FC0117821682838181FFC8C12E010894E3
:10071000411C511CF3019381EC85FD8593FD85916E
:1007200093FF8191FD87EC87882309F4B3C185325B
:1007300041F493FD859193FF8191FD87EC8785328C
:1007400029F490E0B3010E947F05E4CFFF24EE245A
:1007500010E01032B0F48B3269F08C3228F4803221
:1007600051F0833271F40BC08D3239F0803349F48B
:1007700011602CC01260146029C0186027C010617D
:1007800025C017FD2EC0282F20532A3098F416FFBD
:1007900008C08F2D880FF82EFF0CFF0CF80EF20EFC
:1007A00015C08E2D880FE82EEE0CEE0CE80EE20E32
:1007B00010620CC08E3221F416FD6CC1106406C0AC
:1007C0008C3611F4106802C0883659F4EC85FD852A
:1007D00093FD859193FF8191FD87EC87882309F034
:1007E000B8CF982F9554933018F09052933038F436
:1007F00024E030E0A20EB31E3FE339830FC08336FE
:1008000031F0833781F0833509F05AC022C0F501F9
:100810008081898322E030E0A20EB31E21E0C22E47
:10082000D12C420114C092E0292E312C2A0C3B1C01
:10083000F5018080918016FF03C06F2D70E002C02B
:100840006FEF7FEFC4010E9474056C0151011F77A7
:1008500015C082E0282E312C2A0C3B1CF50180802B
:10086000918016FF03C06F2D70E002C06FEF7FEF25
:10087000C4010E9469056C011068510113FD1CC080
:1008800006C080E290E0B3010E947F05EA948E2DBD
:1008900090E0C816D906A8F30FC0F40117FD8591A2
:1008A00017FF81914F0190E0B3010E947F05E11095
:1008B000EA940894C108D108C114D10471F7E7C0C3
:1008C000843611F0893651F5F50117FF07C0808194
:1008D0009181A281B38124E030E008C080819181C0
:1008E000AA2797FDA095BA2F22E030E0A20EB31EF2
:1008F000012F0F76B7FF08C0B095A0959095819510
:100900009F4FAF4FBF4F0068BC01CD01A2012AE04D
:1009100030E00E94AB05D82ED4183FC0853721F4B3
:100920001F7E2AE030E020C0197F8F36A9F0803783
:1009300020F4883509F0AEC00BC0803721F088372D
:1009400009F0A8C001C0106114FF09C0146007C0FD
:1009500014FF08C0166006C028E030E005C020E1A2
:1009600030E002C020E132E0F50117FF07C06081EE
:1009700071818281938144E050E006C06081718181
:1009800080E090E042E050E0A40EB51EA2010E947B
:10099000AB05D82ED418012F0F7706FF09C00E7FA4
:1009A000DF1430F404FF06C002FD04C00F7E02C055
:1009B0001D2D01C01F2D802F90E004FF0CC0FE01F3
:1009C000ED0DF11D2081203311F4097E09C002FFD5
:1009D00006C01E5F05C086789070009709F01F5F03
:1009E000802E992403FD12C000FF0DC0FD2C1E15A2
:1009F00050F4FE0CF11A1E2D06C080E290E0B30107
:100A00000E947F051F5F1E15C0F304C01E1510F461
:100A1000E11A01C0EE2484FE0FC080E390E0B30130
:100A20000E947F0582FE1FC081FE03C088E590E022
:100A300010C088E790E00DC0C401867890700097E0
:100A400091F081FC02C080E201C08BE207FD8DE2E3
:100A500090E0B3010E947F0506C080E390E0B301FF
:100A60000E947F05FA94DF14C0F3DA94F201ED0DD1
:100A7000F11D808190E0B3010E947F05DD20A9F780
:100A800006C080E290E0B3010E947F05EA94EE2068
:100A9000C1F740CEF3018681978102C08FEF9FEFAF
:100AA0002D960FB6F894DEBF0FBECDBFDF91CF916C
:100AB0001F910F91FF90EF90DF90CF90BF90AF907C
:100AC0009F908F907F906F905F904F903F902F906E
:100AD0000895FC010590615070400110D8F7809591
:100AE00090958E0F9F1F0895FC01615070400190FA
:100AF0000110D8F7809590958E0F9F1F08950F9342
:100B00001F93CF93DF938C01EB018B8181FF1BC07F
:100B100082FF0DC02E813F818C819D81281739076E
:100B200064F4E881F9810193F983E88306C0E885DC
:100B3000F985802F1995009731F48E819F81019658
:100B40009F838E8302C00FEF1FEFC801DF91CF910B
:100B50001F910F910895FA01AA27283051F12031F1
:100B600081F1E8946F936E7F6E5F7F4F8F4F9F4F41
:100B7000AF4FB1E03ED0B4E03CD0670F781F891F83
:100B80009A1FA11D680F791F8A1F911DA11D6A0F51
:100B9000711D811D911DA11D20D009F468943F9104
:100BA0002AE0269F11243019305D3193DEF6CF0103
:100BB0000895462F4770405D4193B3E00FD0C9F7C9
:100BC000F6CF462F4F70405D4A3318F0495D31FD36
:100BD0004052419302D0A9F7EACFB4E0A695979589
:100BE000879577956795BA95C9F70097610571055F
:100BF00008959B01AC010A2E0694579547953795A9
:100C00002795BA95C9F7620F731F841F951FA01D02
:060C10000895F894FFCFE7
:100C16002420006170700077686F004920616D20A4
:100C26004A484B494D2E2E2E006C656400556E6B5E
:100C36006E6F776E20636F6D6D616E642E2E2E0063
:100C4600000000020000000096000000000025647D
:100C56002069732061207072696D65206E756D6202
:100C66006572202121210A00636F756E74203D2074
:040C760025640A00E7
:00000001FF
