:100000000C9472000C9494000C9494000C94940042
:100010000C9494000C9494000C9494000C94940010
:100020000C9494000C9494000C9494000C94940000
:100030000C9494000C9494000C9494000C949400F0
:100040000C9494000C9494000C9494000C949400E0
:100050000C9494000C9494000C9494000C949400D0
:100060000C9494000C9494000C9494000C949400C0
:100070000C9494000C9494000C9494000C949400B0
:100080000C9494000C9494000C9494000C949400A0
:100090000C9494000C9494000C9494000C94940090
:1000A0000C9494000C9494000C9494000C94940080
:1000B0000C9494000C9494000C9494000C94940070
:1000C0000C9494000C9494000C9494000C94940060
:1000D0000C9494000C9494000C9494000C94940050
:1000E0000C94940011241FBECFEFD1E2DEBFCDBF30
:1000F00000E00CBF12E0A0E0B2E0E6E3FAE000E0CE
:100100000BBF02C007900D92AA3DB107D9F71BBEE5
:1001100012E0AAEDB2E001C01D92A13FB107E1F7E4
:100120000E9428020C9419050C940000519A599AC7
:10013000509A589A08955898599A00000000589A71
:1001400000000000599882E08A95F1F700C00895F8
:100150005898599800000000589A00000000599AD9
:1001600082E08A95F1F700C00895519A28E030E0C6
:1001700090E8589800000000492F482311F0599A40
:1001800001C0599842E04A95F1F700C0589A42E000
:100190004A95F1F700C096952150304051F751989B
:1001A000589882E08A95F1F700C0589A42E04A9543
:1001B000F1F700C089B182700895282F519898E016
:1001C00080E0589832E03A95F1F700C0589A32E052
:1001D0003A95F1F700C0880F49998160915089F7ED
:1001E000519A589800000000222311F0599A01C03A
:1001F000599892E09A95F1F700C0589A32E03A95F2
:10020000F1F700C008951F93CF93DF930F92CDB7FE
:10021000DEB70E949B0080E90E94B500882329F088
:100220000E94A80080E092E015C080E00E94B50026
:10023000882329F00E94A80086E292E00BC00E9469
:100240009B0081E90E94B500882339F00E94A80034
:100250008EE492E00E9444022FC080E00E94DD0004
:10026000182F81E00E94DD0089830E94A800898107
:100270004DB75EB7485050400FB6F8945EBF0FBE02
:100280004DBFEDB7FEB731964EE652E0ADB7BEB703
:1002900012965C934E931197128313828483158276
:1002A000168317820E943202EDB7FEB738960FB65A
:1002B000F894FEBF0FBEEDBF0F90DF91CF911F915D
:1002C00008950E949600C0E0D0E000EB12E0219675
:1002D00000D00F92ADB7BEB712961C930E93119734
:1002E0001496DC93CE9313970E9432020F900F90D6
:1002F0000F900F908FE00E94C7018AED92E00E945C
:1003000003018FEF9FE7A6E181509040A040E1F705
:1003100000C0000080EF0E94C7018FEF9FE7A6E1B9
:1003200081509040A040E1F700C00000D0CF8FEF97
:1003300080930B0180930A01089510920B01109293
:10034000EA0208958FEF80930B018093EA020895EB
:1003500021E030E002C0220F331F8A95E2F720959A
:100360008091EA0228232093EA0220930B0108954A
:1003700021E030E002C0220F331F8A95E2F780911E
:10038000EA02822B8093EA0280930B010895809504
:100390008093EA0280930B010895C0E08C2F0E94A5
:1003A000C7018FEF9FE7A6E181509040A040E1F7A1
:1003B00000C00000CF5FF2CFCF93C82F8091C00064
:1003C00085FFFCCFCA3039F46091ED027091EE02E6
:1003D0008DE00E94DC01C093C60081E090E0CF91E7
:1003E0000895C0E0D0E00DEB12E000D00F92ADB761
:1003F000BEB712961C930E9311971496DC93CE936E
:1004000013970E9432028FEF9FE7A6E18150904040
:10041000A040E1F700C0000021960F900F900F90D0
:100420000F90E3CF1092C50087E08093C400E0EC0A
:10043000F0E0808182608083E1ECF0E08081886080
:1004400080838CEC92E09093EE028093ED0208950D
:100450000E9497010E94120278940E94610180E03C
:1004600090E00895CF93DF93CDB7DEB7FE013696C7
:10047000619171918091ED029091EE02AF010E9425
:100480007202DF91CF9108950F931F93CF93DF9363
:100490008C01E091ED02F091EE02838181FF1AC0A0
:1004A000C0E0D0E005C01995009711F0CFEFDFEF65
:1004B000F80181918F016091ED027091EE02DB01F4
:1004C0001896ED91FC911997882369F78AE01995A0
:1004D000009711F0CFEFDFEFCE01DF91CF911F91A9
:1004E0000F9108952F923F924F925F926F927F9259
:1004F0008F929F92AF92BF92CF92DF92EF92FF9234
:100500000F931F93CF93DF93CDB7DEB72D970FB621
:10051000F894DEBF0FBECDBF3C017D876C875A01CA
:10052000FC0117821682838181FFC8C12E010894C5
:10053000411C511CF3019381EC85FD8593FD859150
:1005400093FF8191FD87EC87882309F4B3C185323D
:1005500041F493FD859193FF8191FD87EC8785326E
:1005600029F490E0B3010E948F04E4CFFF24EE242D
:1005700010E01032B0F48B3269F08C3228F4803203
:1005800051F0833271F40BC08D3239F0803349F46D
:1005900011602CC01260146029C0186027C010615F
:1005A00025C017FD2EC0282F20532A3098F416FF9F
:1005B00008C08F2D880FF82EFF0CFF0CF80EF20EDE
:1005C00015C08E2D880FE82EEE0CEE0CE80EE20E14
:1005D00010620CC08E3221F416FD6CC1106406C08E
:1005E0008C3611F4106802C0883659F4EC85FD850C
:1005F00093FD859193FF8191FD87EC87882309F016
:10060000B8CF982F9554933018F09052933038F417
:1006100024E030E0A20EB31E3FE339830FC08336DF
:1006200031F0833781F0833509F05AC022C0F501DB
:100630008081898322E030E0A20EB31E21E0C22E29
:10064000D12C420114C092E0292E312C2A0C3B1CE3
:10065000F5018080918016FF03C06F2D70E002C00D
:100660006FEF7FEFC4010E9484046C0151011F777A
:1006700015C082E0282E312C2A0C3B1CF50180800D
:10068000918016FF03C06F2D70E002C06FEF7FEF07
:10069000C4010E9479046C011068510113FD1CC053
:1006A00006C080E290E0B3010E948F04EA948E2D90
:1006B00090E0C816D906A8F30FC0F40117FD859184
:1006C00017FF81914F0190E0B3010E948F04E11068
:1006D000EA940894C108D108C114D10471F7E7C0A5
:1006E000843611F0893651F5F50117FF07C0808176
:1006F0009181A281B38124E030E008C080819181A2
:10070000AA2797FDA095BA2F22E030E0A20EB31ED3
:10071000012F0F76B7FF08C0B095A09590958195F1
:100720009F4FAF4FBF4F0068BC01CD01A2012AE02F
:1007300030E00E94BB04D82ED4183FC0853721F486
:100740001F7E2AE030E020C0197F8F36A9F0803765
:1007500020F4883509F0AEC00BC0803721F088370F
:1007600009F0A8C001C0106114FF09C0146007C0DF
:1007700014FF08C0166006C028E030E005C020E184
:1007800030E002C020E132E0F50117FF07C06081D0
:1007900071818281938144E050E006C06081718163
:1007A00080E090E042E050E0A40EB51EA2010E945D
:1007B000BB04D82ED418012F0F7706FF09C00E7F77
:1007C000DF1430F404FF06C002FD04C00F7E02C037
:1007D0001D2D01C01F2D802F90E004FF0CC0FE01D5
:1007E000ED0DF11D2081203311F4097E09C002FFB7
:1007F00006C01E5F05C086789070009709F01F5FE5
:10080000802E992403FD12C000FF0DC0FD2C1E1583
:1008100050F4FE0CF11A1E2D06C080E290E0B301E8
:100820000E948F041F5F1E15C0F304C01E1510F434
:10083000E11A01C0EE2484FE0FC080E390E0B30112
:100840000E948F0482FE1FC081FE03C088E590E0F5
:1008500010C088E790E00DC0C401867890700097C2
:1008600091F081FC02C080E201C08BE207FD8DE2C5
:1008700090E0B3010E948F0406C080E390E0B301D2
:100880000E948F04FA94DF14C0F3DA94F201ED0DA4
:10089000F11D808190E0B3010E948F04DD20A9F753
:1008A00006C080E290E0B3010E948F04EA94EE203B
:1008B000C1F740CEF3018681978102C08FEF9FEF91
:1008C0002D960FB6F894DEBF0FBECDBFDF91CF914E
:1008D0001F910F91FF90EF90DF90CF90BF90AF905E
:1008E0009F908F907F906F905F904F903F902F9050
:1008F0000895FC010590615070400110D8F7809573
:1009000090958E0F9F1F0895FC01615070400190DB
:100910000110D8F7809590958E0F9F1F08950F9323
:100920001F93CF93DF938C01EB018B8181FF1BC061
:1009300082FF0DC02E813F818C819D812817390750
:1009400064F4E881F9810193F983E88306C0E885BE
:10095000F985802F1995009731F48E819F8101963A
:100960009F838E8302C00FEF1FEFC801DF91CF91ED
:100970001F910F910895FA01AA27283051F12031D3
:1009800081F1E8946F936E7F6E5F7F4F8F4F9F4F23
:10099000AF4FB1E03ED0B4E03CD0670F781F891F65
:1009A0009A1FA11D680F791F8A1F911DA11D6A0F33
:1009B000711D811D911DA11D20D009F468943F91E6
:1009C0002AE0269F11243019305D3193DEF6CF01E5
:1009D0000895462F4770405D4193B3E00FD0C9F7AB
:1009E000F6CF462F4F70405D4A3318F0495D31FD18
:1009F0004052419302D0A9F7EACFB4E0A69597956B
:100A0000879577956795BA95C9F700976105710540
:100A100008959B01AC010A2E06945795479537958A
:100A20002795BA95C9F7620F731F841F951FA01DE4
:060A30000895F894FFCFC9
:100A36007461736B5F74636E37355F69326328293F
:100A4600203A20534C412B572077726974652066F3
:100A560061696CA1A6007461736B5F74636E373550
:100A66005F6932632829203A20706F696E74657257
:100A7600207772697465206661696CA1A60074614D
:100A8600736B5F74636E37355F6932632829203A6A
:100A960020534C412B52206661696CA1A6007461FB
:100AA600736B5F74636E37355F6932632829203A4A
:100AB600205B252E32782C20252E32785D2063751A
:100AC6007272656E745F74656D706572617475724D
:100AD60065203F202564206465677265652E0A00DF
:100AE600446F696E672E2E25642E2E0A0025356406
:100AF6002C2048656C6C6F2E2E2E0A00000000021A
:0A0B060000000000DC010000000008
:00000001FF
