:100000000C9472000C9494000C9494000C94940042
:100010000C9494000C9494000C9494000C94940010
:100020000C9494000C9494000C9494000C94940000
:100030000C9494000C9494000C9494000C94A003E1
:100040000C9494000C9494000C9494000C949400E0
:100050000C9494000C9494000C9494000C949400D0
:100060000C9496000C9464030C9494000C94170365
:100070000C9494000C9494000C9494000C949400B0
:100080000C9494000C9494000C9494000C949400A0
:100090000C9494000C9494000C9494000C94940090
:1000A0000C9494000C9494000C9494000C94940080
:1000B0000C9494000C9494000C9494000C94940070
:1000C0000C9494000C9494000C9494000C94940060
:1000D0000C9494000C9494000C9494000C94940050
:1000E0000C94940011241FBECFEFD1E2DEBFCDBF30
:1000F00000E00CBF14E0A0E0B2E0EAE7F7E100E0C6
:100100000BBF02C007900D92A430B107D9F71BBEF8
:1001100014E0A4E0B4E001C01D92AC3AB107E1F7ED
:100120000E94FD070C94BB0B0C9400001F920F92D1
:100130000FB60F920BB60F9211242F933F934F934C
:100140005F936F937F938F939F93AF93BF93EF933F
:10015000FF932EB500D000D0EDB7FEB7319686E004
:1001600094E0ADB7BEB712969C938E93119780E042
:1001700092E093838283248315820E94E50881E0C4
:1001800090E090930504809304048DB79EB7069683
:100190000FB6F8949EBF0FBE8DBFFF91EF91BF9138
:1001A000AF919F918F917F916F915F914F913F910F
:1001B0002F910F900BBE0F900FBE0F901F901895B0
:1001C000209A219A229A23988CB581608CBD80ED6B
:1001D0008CBD089528980895289A0895CF93DF93A9
:1001E000DC012C91222331F481E080931B040E94D6
:1001F000EA0010C020911B04213019F02230E1F5F3
:100200000CC00E947F0810921C0480931D0482E0A1
:1002100080931B048FEF8EBD33C0C0911C04D0911E
:100220001D040E947F08C82BD92BD0931D04C093B6
:100230001C040E94EC0000D000D0EDB7FEB7319650
:1002400083E092E0ADB7BEB712969C938E93119760
:10025000CE01969587959695879593838283D583CE
:10026000C4830E94A508EDB7FEB736960FB6F89482
:10027000FEBF0FBEEDBF04C086E292E00E94B70849
:10028000DF91CF91089586E094E00E94EE00809186
:100290000404909105040097D1F310920504109284
:1002A000040486E094E00E94EE00809104049091A2
:1002B00005040097D1F3109205041092040486E01F
:1002C00094E00E94EE00109206040895CF92DF920F
:1002D000EF92FF92CF93DF93DC012C91222331F434
:1002E00081E0809316040E94EA0011C02091160458
:1002F000213021F0223009F050C00BC00E947F084D
:10030000109217048093180482E0809316041EBC98
:1003100048C0C0911704D09118040E947F08C82BD0
:10032000D92BD0931804C0931704BE0133E0759500
:1003300067953A95E1F7882777FD8095982F0E9479
:10034000A20520E030E040E85DE30E94A1040E94A5
:1003500019066B017C0170931A04609319040E94C2
:10036000EC0000D000D0EDB7FEB7319687E592E003
:10037000ADB7BEB712969C938E931197D382C2826B
:10038000D583C4830E94A508EDB7FEB736960FB695
:10039000F894FEBF0FBEEDBF04C08DE892E00E944E
:1003A000B708DF91CF91FF90EF90DF90CF90089545
:1003B00086E094E00E946601809104049091050417
:1003C0000097D1F3109205041092040486E094E0A3
:1003D0000E94660180910404909105040097D1F376
:1003E000109205041092040486E094E00E946601D5
:1003F0001092060408950E94E000C0E0D0E042EDB3
:10040000E42E42E0F42E06E014E05CEBC52E52E050
:10041000D52E67ECA62E62E0B62E53C08091040460
:10042000909105040097D1F31092050410920404F2
:1004300000D00F92ADB7BEB71296DC92CE92119754
:1004400014961C930E9313970E94A5080F900F907B
:100450000F900F9086E094E00E9466018091040462
:10046000909105040097D1F31092050410920404B2
:1004700000D00F92EDB7FEB7B282A182148303833E
:100480000E94A5080F900F900F900F9086E094E0C7
:100490000E9466018FEF9FE7A6E181509040A04047
:1004A000E1F700C0000080EF0E94AE028FEF9FE7EF
:1004B000A6E181509040A040E1F700C000001092FA
:1004C0000604219600D00F92ADB7BEB71296FC92EB
:1004D000EE9211971496DC93CE9313970E94A50881
:1004E0000F900F900F900F908FE00E94AE0286E069
:1004F00094E00E94660192CF8EBD08958FEF8093A5
:100500000B0180930A01089510920B0110923A0496
:1005100008958FEF80930B0180933A04089521E0B2
:1005200030E002C0220F331F8A95E2F720958091B8
:100530003A04282320933A0420930B01089521E0E4
:1005400030E002C0220F331F8A95E2F780913A040F
:10055000822B80933A0480930B01089580958093B9
:100560003A0480930B010895C0E08C2F0E94AE02E4
:100570008FEF9FE7A6E181509040A040E1F700C0D7
:100580000000CF5FF2CFF8940E944504789488234E
:10059000D1F3843011F090E008958FEF9FEF08952C
:1005A000CF93C82F8A3019F48DE00E94D002F894BE
:1005B00020913B0430913C042115310571F4C09326
:1005C000C60081E090E090933C0480933B040AC015
:1005D000789486EF8A95F1F7F8948C2F0E94620444
:1005E0000097B1F3789481E090E0CF910895109254
:1005F000C50083E08093C400E1ECF0E08081886076
:100600008083808180618083808180648083808119
:10061000806880838FED92E09093A9048093A80472
:100620008DEE92E09093A7048093A60408951F9204
:100630000F920FB60F920BB60F9211242F933F9388
:100640004F935F936F937F938F939F93AF93BF93DA
:10065000EF93FF930E948404882329F410923C04B2
:1006600010923B0402C08093C600FF91EF91BF91AE
:10067000AF919F918F917F916F915F914F913F913A
:100680002F910F900BBE0F900FBE0F901F901895DB
:10069000CF93C82F8A3019F48DE00E94480320912F
:1006A0003B0430913C042115310549F4C093C60048
:1006B00081E090E090933C0480933B0403C08C2F36
:1006C0000E946204CF9108951F920F920FB60F926D
:1006D0000BB60F9211242F933F934F935F936F9319
:1006E0007F938F939F93AF93BF93CF93EF93FF939A
:1006F000C091C600C43031F0CD3009F4CAE08C2F6F
:100700000E9448038C2F0E942304FF91EF91CF9108
:10071000BF91AF919F918F917F916F915F914F9119
:100720003F912F910F900BBE0F900FBE0F901F9017
:10073000189580913D048823E1F310923D040895BB
:100740001F920F920FB60F920BB60F9211242F9398
:100750003F934F935F936F937F938F939F93AF9349
:10076000BF93EF93FF9380911E0490911F04019615
:1007700090931F0480931E0483709070009799F4E7
:1007800081E080933D0480912004909121040196A2
:10079000909321048093200480FD03C00E94840272
:1007A00002C00E948902FF91EF91BF91AF919F918A
:1007B0008F917F916F915F914F913F912F910F900A
:1007C0000BBE0F900FBE0F901F9018951092B200A5
:1007D000E6EBF0E0808180628083E0E7F0E08081FA
:1007E000816080830895E1EBF0E080818360808305
:1007F00008958FEF0E94AE020E94E6030E94F30369
:10080000C0E080913D048823E1F310923D048C2FD9
:100810000E94AE02CF5FF5CFE1EBF0E080818C7FEC
:100820008083089510929304109292041092910480
:1008300010929004109295041092940410923F0428
:1008400010923E040895482F20919404309195040D
:100850002F5F3F4FC90160E170E00E9421089C01B9
:1008600080913E0490913F042817390759F0309346
:100870009504209394042A563B4FF901408381E06C
:1008800090E0089580E090E0089580913E0490917A
:100890003F0420919404309195048217930779F0D6
:1008A000019660E170E00E94210890933F048093DC
:1008B0003E048A569B4FFC01808190E0089580E0C1
:1008C00090E00895482F20919204309193042F5F77
:1008D0003F4FC90160E570E00E9421089C018091B2
:1008E0009004909191042817390759F0309393049C
:1008F00020939204205C3B4FF901408381E090E01B
:10090000089580E090E00895809190049091910482
:1009100020919204309193048217930779F0019605
:1009200060E570E00E942108909391048093900408
:10093000805C9B4FFC01808190E0089580E090E016
:100940000895A0E2B0E0E7EAF4E00C944A08DC0184
:10095000CB018D839E83AF83B88729833A834B83F2
:100960005C83CE010596BE01675E7F4F0E949407AF
:10097000CE010196BE016F5E7F4F0E949407998D54
:10098000923078F089898230C0F0943019F4823046
:1009900041F4CAC0843019F4923079F4C5C0923061
:1009A00051F481E02A8D9A89291709F480E08A8F11
:1009B000CE014996BBC0823051F481E02A8D9A89DC
:1009C000291709F480E08A8BCE014196AFC04D8C87
:1009D0005E8C6F8C78A00D891E892F89388DE0E29E
:1009E000F0E040E050E0BA01882499245401CC247E
:1009F000DD247601C201817090700097D1F0C00EA5
:100A0000D11EE21EF31EDB01CA01880D991DAA1D2D
:100A1000BB1D41E050E060E070E0C016D106E20688
:100A2000F30618F040E050E0BA01480F591F6A1F62
:100A30007B1F880C991CAA1CBB1C37FF08C081E0D7
:100A400090E0A0E0B0E0882A992AAA2ABB2A000FE9
:100A5000111F221F331F7694679457944794319740
:100A600049F68B8D9C8D2B893C89820F931F0296B2
:100A70009C878B8781E02A8D9A89291709F480E069
:100A80008A872B853C8517C0CA01817090700097BA
:100A900061F0F694E794D794C79480E090E0A0E0EA
:100AA000B0E8C82AD92AEA2AFB2A7695679557958D
:100AB00047952F5F3F4F77FDE7CFC9010BC0440F2C
:100AC000551F661F771FF7FC4160CC0CDD1CEE1C28
:100AD000FF1C01974030A0E05A07A0E06A07A0E49D
:100AE0007A0768F38B879C87DB01CA018F77907048
:100AF000A070B07080349105A105B10561F447FD87
:100B00000AC0C114D104E104F10429F0405C5F4F34
:100B10006F4F7F4F40784D875E876F87788B83E07C
:100B20008987CE01099602C08BEF92E00E94BD0634
:100B3000462F572F682F792FCB01BA01A096E0E1FD
:100B40000C946608CF92DF92EF92FF92CF93DF93DF
:100B5000CDB7DEB728970FB6F894DEBF0FBECDBF76
:100B60006B017C0183E08983D701C6018827B7FD2B
:100B700083959927AA27BB27282F8A83C114D104DC
:100B8000E104F10419F482E0898335C08EE190E03C
:100B90009C838B83222389F080E0C81680E0D806EE
:100BA00080E0E80680E8F80659F1F094E094D094EB
:100BB000C094C11CD11CE11CF11CCD82DE82EF82ED
:100BC000F886C701B6010E946A0601971816190631
:100BD00094F4082E04C0CC0CDD1CEE1CFF1C0A94FF
:100BE000D2F7CD82DE82EF82F8862EE130E0281B3C
:100BF000390B3C832B83CE0101960E94BD0604C0B5
:100C000060E070E080E09FEC382F292F862F972F2F
:100C1000A32FB22FBC01CD0128960FB6F894DEBFEA
:100C20000FBECDBFDF91CF91FF90EF90DF90CF90BF
:100C30000895ACE0B0E0EFE1F6E00C945608DC017A
:100C4000CB0189839A83AB83BC83CE010196BE011D
:100C50006B5F7F4F0E9494078D81823069F18230F3
:100C600058F1843039F02F81388537FD25C02F3178
:100C7000310544F08E81882319F100E010E020E076
:100C800030E822C08EE190E0821B930B09851A8523
:100C90002B853C8504C036952795179507958A9531
:100CA000D2F78E81882381F030952095109501959B
:100CB0001F4F2F4F3F4F08C000E010E0980104C0C5
:100CC0000FEF1FEF2FEF3FE7B801C9012C96E4E0CB
:100CD0000C947208CF92DF92EF92FF920F931F93C2
:100CE0008B019C01003080E0180781E0280780E03C
:100CF000380750F40F3F11052105310509F088F43C
:100D000080E090E0DC0116C00030E0E01E07E0E08B
:100D10002E07E1E03E0750F480E190E0A0E0B0E073
:100D200009C088E090E0A0E0B0E004C088E190E075
:100D3000A0E0B0E040E250E060E070E0481B590BFA
:100D40006A0B7B0B6801790104C0F694E794D79491
:100D5000C7948A95D2F7D701C6018D5F9C4FFC01DD
:100D60008081481B510961097109CA011F910F91C6
:100D7000FF90EF90DF90CF900895CF92DF92EF92A7
:100D8000FF920F931F93DC0114964D915D916D912D
:100D90007C9117971196EC9111978C91823020F4E9
:100DA00060618FEF90E0A5C0843009F49DC082306F
:100DB00009F494C0411551056105710509F491C00C
:100DC00012968D919C9113972FEF823892070CF019
:100DD00059C022E83FEF281B390B2A31310564F551
:100DE0006A017B01022E04C0F694E794D794C7945D
:100DF0000A94D2F781E090E0A0E0B0E004C0880F50
:100E0000991FAA1FBB1F2A95D2F70197A109B10903
:100E100084239523A623B72341E050E060E070E0EF
:100E20000097A105B10519F440E050E0BA014C2942
:100E30005D296E297F2903C040E050E0BA01DB0143
:100E4000CA018F779070A070B07080349105A105B1
:100E5000B10539F447FF09C0405C5F4F6F4F7F4FCA
:100E600004C0415C5F4F6F4F7F4F81E090E04030A6
:100E700020E0520720E0620720E4720738F580E0A6
:100E800090E024C0803891057CF58A019B010F77A2
:100E9000107020703070003411052105310539F4CF
:100EA00047FF09C0405C5F4F6F4F7F4F04C0415CFC
:100EB0005F4F6F4F7F4F77FD03C081589F4F06C034
:100EC000769567955795479580589F4F97E076950B
:100ED0006795579547959A95D1F70BC080E090E0BC
:100EE00005C080E090E005C08FEF90E040E050E06A
:100EF000BA01982F979599279795A62FAF77E795E1
:100F0000EE27E79586953A2F392B282F2E2B842F05
:100F1000952FA32FB22FBC01CD011F910F91FF90F0
:100F2000EF90DF90CF900895DC01FB014C9111967A
:100F30005C91119712968C911297682F6F7770E0E1
:100F4000982F991F9927991F13962C911397822FE9
:100F5000880F892B90E0221F2227221F21830097D0
:100F600039F5411551056105710511F482E029C07B
:100F700082E89FEF9383828327E0440F551F661F0B
:100F8000771F2A95D1F783E0808309C0440F551F4E
:100F9000661F771F828193810197938382834030FC
:100FA00080E0580780E0680780E4780778F320C085
:100FB0008F3F910579F4411551056105710519F4CB
:100FC00084E08083089564FF03C081E0808310C0C3
:100FD00010820EC08F5790409383828383E080837A
:100FE00087E0440F551F661F771F8A95D1F77064FD
:100FF000448355836683778308950E947E020E940E
:1010000012040E94F7020E94E6030E94F3030E946A
:10101000E00078940E94D8018FEF9FE7A6E181500D
:101020009040A040E1F700C000000E9443018FEF14
:101030009FE7A6E181509040A040E1F700C000008A
:10104000E9CF97FB092E07260AD077FD04D00CD0F4
:1010500006D000201AF4709561957F4F0895F6F739
:10106000909581959F4F0895AA1BBB1B51E107C026
:10107000AA1FBB1FA617B70710F0A61BB70B881F28
:10108000991F5A95A9F780959095BC01CD010895B7
:101090002F923F924F925F926F927F928F929F9288
:1010A000AF92BF92CF92DF92EF92FF920F931F9376
:1010B000CF93DF93CDB7DEB7CA1BDB0B0FB6F89427
:1010C000DEBF0FBECDBF19942A88398848885F8457
:1010D0006E847D848C849B84AA84B984C884DF80D8
:1010E000EE80FD800C811B81AA81B981CE0FD11DBC
:1010F0000FB6F894DEBF0FBECDBFED010895FC0121
:1011000088279927E89421912032E9F3293010F0BB
:101110002E30C8F32B3241F02D3239F4689404C0DC
:101120000E949D08820F911D219120532A30C0F307
:101130001EF4909581959F4F08957AE0979F902D8A
:10114000879F802D910D11240895CF93DF93CDB704
:10115000DEB7FE013696619171918091A80490915D
:10116000A904AF010E941409DF91CF9108950F9354
:101170001F93CF93DF938C01E091A804F091A90411
:10118000838181FF1AC0C0E0D0E005C019950097A7
:1011900011F0CFEFDFEFF80181918F016091A8048A
:1011A0007091A904DB011896ED91FC9119978823A1
:1011B00069F78AE01995009711F0CFEFDFEFCE01C4
:1011C000DF91CF911F910F9108950F931F93CF93AC
:1011D000DF93CDB7DEB72E970FB6F894DEBF0FBE04
:1011E000CDBF0E891F8986E08C831A8309838FEF18
:1011F0009FE79E838D83AE01465E5F4FCE010196D1
:10120000688D798D0E941409EF81F885E00FF11F38
:1012100010822E960FB6F894DEBF0FBECDBFDF91C1
:10122000CF911F910F9108952F923F924F925F920D
:101230006F927F928F929F92AF92BF92CF92DF92E6
:10124000EF92FF920F931F93CF93DF93CDB7DEB74B
:101250002D970FB6F894DEBF0FBECDBF3C017D8742
:101260006C875A01FC0117821682838181FFC8C1F5
:101270002E010894411C511CF3019381EC85FD85DE
:1012800093FD859193FF8191FD87EC87882309F475
:10129000B3C1853241F493FD859193FF8191FD8720
:1012A000EC87853229F490E0B3010E94310BE4CF42
:1012B000FF24EE2410E01032B0F48B3269F08C324F
:1012C00028F4803251F0833271F40BC08D3239F042
:1012D000803349F411602CC01260146029C018607A
:1012E00027C0106125C017FD2EC0282F20532A309B
:1012F00098F416FF08C08F2D880FF82EFF0CFF0CF6
:10130000F80EF20E15C08E2D880FE82EEE0CEE0CA6
:10131000E80EE20E10620CC08E3221F416FD6CC194
:10132000106406C08C3611F4106802C0883659F477
:10133000EC85FD8593FD859193FF8191FD87EC8779
:10134000882309F0B8CF982F9554933018F0905215
:10135000933038F424E030E0A20EB31E3FE339832B
:101360000FC0833631F0833781F0833509F05AC0DE
:1013700022C0F5018081898322E030E0A20EB31EF5
:1013800021E0C22ED12C420114C092E0292E312C32
:101390002A0C3B1CF5018080918016FF03C06F2D45
:1013A00070E002C06FEF7FEFC4010E94260B6C015A
:1013B00051011F7715C082E0282E312C2A0C3B1CCE
:1013C000F5018080918016FF03C06F2D70E002C090
:1013D0006FEF7FEFC4010E941B0B6C01106851017D
:1013E00013FD1CC006C080E290E0B3010E94310BE7
:1013F000EA948E2D90E0C816D906A8F30FC0F40128
:1014000017FD859117FF81914F0190E0B3010E9474
:10141000310BE110EA940894C108D108C114D10439
:1014200071F7E7C0843611F0893651F5F50117FFE1
:1014300007C080819181A281B38124E030E008C09F
:1014400080819181AA2797FDA095BA2F22E030E0F4
:10145000A20EB31E012F0F76B7FF08C0B095A0955E
:10146000909581959F4FAF4FBF4F0068BC01CD0154
:10147000A2012AE030E00E945D0BD82ED4183FC0B4
:10148000853721F41F7E2AE030E020C0197F8F3697
:10149000A9F0803720F4883509F0AEC00BC0803742
:1014A00021F0883709F0A8C001C0106114FF09C0FD
:1014B000146007C014FF08C0166006C028E030E0C2
:1014C00005C020E130E002C020E132E0F50117FF65
:1014D00007C0608171818281938144E050E006C041
:1014E0006081718180E090E042E050E0A40EB51E82
:1014F000A2010E945D0BD82ED418012F0F7706FF92
:1015000009C00E7FDF1430F404FF06C002FD04C0E2
:101510000F7E02C01D2D01C01F2D802F90E004FF03
:101520000CC0FE01ED0DF11D2081203311F4097E68
:1015300009C002FF06C01E5F05C086789070009744
:1015400009F01F5F802E992403FD12C000FF0DC01B
:10155000FD2C1E1550F4FE0CF11A1E2D06C080E263
:1015600090E0B3010E94310B1F5F1E15C0F304C051
:101570001E1510F4E11A01C0EE2484FE0FC080E3B2
:1015800090E0B3010E94310B82FE1FC081FE03C0B8
:1015900088E590E010C088E790E00DC0C40186782F
:1015A0009070009791F081FC02C080E201C08BE254
:1015B00007FD8DE290E0B3010E94310B06C080E38D
:1015C00090E0B3010E94310BFA94DF14C0F3DA9477
:1015D000F201ED0DF11D808190E0B3010E94310B0D
:1015E000DD20A9F706C080E290E0B3010E94310B34
:1015F000EA94EE20C1F740CEF3018681978102C0C4
:101600008FEF9FEF2D960FB6F894DEBF0FBECDBFC4
:10161000DF91CF911F910F91FF90EF90DF90CF90CE
:10162000BF90AF909F908F907F906F905F904F9002
:101630003F902F900895FC0105906150704001107B
:10164000D8F7809590958E0F9F1F0895FC016150EB
:10165000704001900110D8F7809590958E0F9F1FD4
:1016600008950F931F93CF93DF938C01EB018B8130
:1016700081FF1BC082FF0DC02E813F818C819D8127
:101680002817390764F4E881F9810193F983E88325
:1016900006C0E885F985802F1995009731F48E8171
:1016A0009F8101969F838E8302C00FEF1FEFC801B9
:1016B000DF91CF911F910F910895FA01AA27283049
:1016C00051F1203181F1E8946F936E7F6E5F7F4F0F
:1016D0008F4F9F4FAF4FB1E03ED0B4E03CD0670F8B
:1016E000781F891F9A1FA11D680F791F8A1F911DDE
:1016F000A11D6A0F711D811D911DA11D20D009F42E
:1017000068943F912AE0269F11243019305D31936F
:10171000DEF6CF010895462F4770405D4193B3E058
:101720000FD0C9F7F6CF462F4F70405D4A3318F0FF
:10173000495D31FD4052419302D0A9F7EACFB4E0B0
:10174000A6959795879577956795BA95C9F7009768
:101750006105710508959B01AC010A2E0694579509
:10176000479537952795BA95C9F7620F731F841F60
:0A177000951FA01D0895F894FFCF07
:10177A002564007461736B5F746337372829203AD4
:10178A002043686970204944206973202564205BDE
:10179A0025785D2E0A007461736B5F74633737288E
:1017AA0029203A20756E65787065636574642073C4
:1017BA007461746520696E207461736B5F7463373A
:1017CA00375F312E2E2E007461736B5F7463373767
:1017DA002829203A2063757272656E745F74656D8C
:1017EA007065726174757265206973202564205B67
:1017FA0025785D206465677265652E0A00746173D9
:10180A006B5F746337372829203A20756E657870C4
:10181A00656365746420737461746520696E2074ED
:10182A0061736B5F746337372E2E2E0041726730F7
:10183A00203D2025730A0041726731203D2025731F
:10184A000A00446F696E672E2E25642E2E0A000048
:10185A0000000200000000D00200000000000000AA
:10186A0001000000000000C30200000000000000A8
:10187A000000000001020203030303040404040439
:10188A000404040505050505050505050505050501
:10189A0005050506060606060606060606060606E1
:1018AA0006060606060606060606060606060606CE
:1018BA0006060607070707070707070707070707B1
:1018CA00070707070707070707070707070707079E
:1018DA00070707070707070707070707070707078E
:1018EA00070707070707070707070707070707077E
:1018FA000707070808080808080808080808080861
:10190A00080808080808080808080808080808084D
:10191A00080808080808080808080808080808083D
:10192A00080808080808080808080808080808082D
:10193A00080808080808080808080808080808081D
:10194A00080808080808080808080808080808080D
:10195A0008080808080808080808080808080808FD
:10196A0008080808080808080808080808080808ED
:04197A000808080051
:00000001FF
