:100000000C9472000C9494000C9494000C94940042
:100010000C9494000C9494000C9494000C94940010
:100020000C9494000C9494000C9494000C94940000
:100030000C9494000C9494000C9494000C9415046B
:100040000C9494000C9494000C9494000C949400E0
:100050000C9494000C9494000C9494000C949400D0
:100060000C9494000C94E6040C9494000C94A10459
:100070000C9494000C9494000C9494000C949400B0
:100080000C9494000C9494000C9494000C949400A0
:100090000C9494000C9494000C9494000C94940090
:1000A0000C9494000C9494000C9494000C94940080
:1000B0000C9494000C9494000C9494000C94940070
:1000C0000C9494000C9494000C9494000C94940060
:1000D0000C9494000C9494000C9494000C94940050
:1000E0000C94940011241FBECFEFD1E2DEBFCDBF30
:1000F00000E00CBF12E0A0E0B2E0EAE4F8E100E0CA
:100100000BBF02C007900D92A43FB107D9F71BBEE9
:1001100014E0A4EFB2E001C01D92A133B107E1F7F2
:100120000E94B8060C94230C0C94000084E090E02C
:100130000E940A0708950E94A0070895FC0180917B
:10014000F4029091F502009739F4F093F502E093F0
:10015000F40213821282089593838283F093F5024E
:10016000E093F4020895E091F402F091F5023097E3
:1001700031F49093F5028093F40208C0F9012281D2
:10018000338121153105D1F793838283FC011382DA
:1001900012820895CF93DF93FC012091F4023091F5
:1001A000F5022115310531F040815181D901C0E0BE
:1001B000D0E00FC09093F5028093F4021382128274
:1001C0001DC012968D919C911397ED01009739F007
:1001D000DC018D919C9111978417950794F32097DA
:1001E00039F433832283F093F502E093F40206C0DE
:1001F0008A819B8193838283FB83EA83DF91CF9102
:1002000008950F931F93CF93DF938AE090E00E94AD
:100210000709C091F402D091F50200E012E013C08A
:1002200000D00F92EDB7FEB71283018388819981C8
:10023000948383830E94F5080A80DB81C02D0F9090
:100240000F900F900F908A819B81009749F78AE069
:1002500090E00E940709DF91CF911F910F910895BF
:1002600009C0FC01228133813093F5022093F4020E
:100270000E94A0078091F4029091F502009789F7FF
:100280000895EF92FF921F93CF93DF93CDB7DEB720
:1002900028970FB6F894DEBF0FBECDBF009719F0B8
:1002A000FC01108101C011E687E0E82E82E0F82E03
:1002B0000F920F92EDB7FEB7F282E1820E94F5082D
:1002C0000F900F9040912B0450912C04CE01019679
:1002D00068E070E00E949B080097A1F00E949600E1
:1002E0002981FC0120831182183619F0143739F462
:1002F00003C00E949E00DCCF0E94B300D9CF0E94B1
:10030000CA00D6CF0E9401010E94300128960FB684
:10031000F894DEBF0FBECDBFDF91CF911F91FF904C
:10032000EF900895CF93DF93FC0162E070E00E94AC
:10033000E306EB0122E030E008C0CF01B9010E94E2
:10034000E306009741F02F5F3F4FC217D307ACF78A
:1003500081E090E002C080E090E0DF91CF910895CD
:10036000CF92DF92EF92FF920F931F93CF93DF9381
:10037000009721F00E9439087C0104C090EDE92E1D
:1003800097E0F92E00E010E0C2E0D0E08DE0C82E4A
:1003900082E0D82E16C0CE010E949201009781F013
:1003A0000F5F1F4F00D00F92EDB7FEB7D282C18210
:1003B000D483C3830E94F5080F900F900F900F9085
:1003C0002196EC16FD063CF700D00F9287E292E0F2
:1003D000EDB7FEB792838183148303830E94F508EF
:1003E0000F900F9083E392E0EDB7FEB79283818385
:1003F0000E94F5080F900F90DF91CF911F910F9100
:10040000FF90EF90DF90CF900895009719F00E9431
:10041000390802C084E690E040E050E021E030E09E
:1004200004C0420F531F2F5F3F4F82179307CCF733
:1004300000D00F9286E392E0EDB7FEB792838183FE
:10044000548343830E94F5080F900F9083E392E05A
:10045000EDB7FEB7928381830E94F5080F900F904D
:10046000089510923F0310923E0310923D031092A4
:100470003C0310924103109240031092FB02109231
:10048000FA020895482F20914003309141032F5FD5
:100490003F4FC90160E470E00E94E3069C01809137
:1004A000FA029091FB022817390759F03093410363
:1004B000209340032E5B3C4FF901408381E090E0A4
:1004C000089580E090E008958091FA029091FB02F7
:1004D00020914003309141032817390779F00196A4
:1004E00060E470E00E94E3069093FB028093FA02BE
:1004F0008E5B9C4FFC01808190E0089580E090E04D
:100500000895482F20913E0330913F032F5F3F4FC6
:10051000C90160E470E00E94E3069C0180913C0305
:1005200090913D032817390759F030933F032093EA
:100530003E0324503D4FF901408381E090E008954F
:1005400080E090E0089580913C0390913D032091DC
:100550003E0330913F032817390779F0019660E494
:1005600070E00E94E30690933D0380933C03845027
:100570009D4FFC01808190E0089580E090E0089517
:100580008091FA029091FB02209140033091410347
:100590008217930759F0019660E470E00E94E30629
:1005A0008E5B9C4FFC01808190E0089580E090E09C
:1005B00008958EE090E00E940A070895EF92FF925E
:1005C0000F931F93CF93DF93F82EE92E8B010E9498
:1005D000D902EC01DC011296EF2DFE2D8AE001908C
:1005E0000D928150E1F719830883E091F602F091B2
:1005F000F702309729F4D093F702C093F6022FC088
:1006000040E050E020E030E001C0FD0180819181B8
:10061000280F391F2017310734F4A485B585AF01A1
:10062000109799F701C0DF014115510579F48D91BB
:100630009C911197801B910B11969C938E93BD8773
:10064000AC87D093F702C093F60224C0109751F400
:10065000021B130B19830883FA01D587C4871D86F3
:100660001C8618C08D919C911197B901681B790B5C
:100670009801261B370B398328838D919C91119704
:10068000821B930B11969C938E93FA01D587C48796
:10069000BD87AC87DF91CF911F910F91FF90EF90B5
:1006A0000895EF92FF920F931F93CF93DF938AE009
:1006B00090E00E940709C091F602D091F70200E095
:1006C00010E080E4E82E82E0F82E20C08881998135
:1006D000080F191F00D000D0EDB7FEB73196ADB7A7
:1006E000BEB71296FC92EE92119793838283158384
:1006F00004830E94F5080C84DD85C02D8DB79EB75C
:1007000006960FB6F8949EBF0FBE8DBF2097F1F6E8
:100710008AE090E00E940709DF91CF911F910F912D
:10072000FF90EF90089509C0FC0124853585309332
:10073000F7022093F6020E94A0078091F6029091A2
:10074000F702009789F708950F931F93CF93DF93D4
:10075000CDB7DEB762970FB6F894DEBF0FBECDBF40
:100760000BE412E00F920F92EDB7FEB712830183F4
:100770000E94F5080F900F9040912B0450912C048B
:10078000CE01019668E070E00E949B08009761F03E
:10079000CE0101960E943908BC01009729F0CE01D4
:1007A00009960E94DE02DECF0E9451030E9493034D
:1007B00062960FB6F894DEBF0FBECDBFDF91CF912A
:1007C0001F910F9108951092B200E6EBF0E0808146
:1007D00080628083E0E7F0E0808181608083E1EBEC
:1007E000F0E08081816080838081826080830895D1
:1007F000CF93DF930DC08C859D859093F7028093F6
:10080000F602CE0102960E948B05CE010E94A0073F
:10081000C091F602D091F702209721F0888199814A
:10082000009749F3DF91CF9108951F920F920FB671
:100830000F920BB60F9211242F933F934F935F9318
:100840006F937F938F939F93AF93BF93EF93FF9398
:10085000E091F602F091F702309749F080819181A2
:10086000019791838083009711F40E94F803FF9110
:10087000EF91BF91AF919F918F917F916F915F9118
:100880004F913F912F910F900BBE0F900FBE0F9085
:100890001F901895F8940E94640278948823D1F3ED
:1008A000843011F090E008958FEF9FEF0895CF937B
:1008B000C82F8A3019F48DE00E945704F894809173
:1008C0008203882359F4C093C60081E08093820399
:1008D0000AC0789486EF8A95F1F7F8948C2F0E94DD
:1008E00081020097B1F3789481E090E0CF91089570
:1008F00080E592E090932C0480932B048EE592E0A7
:1009000090932E0480932D04109282030E94310252
:100910001092C50087E08093C400E0ECF0E0808195
:1009200082608083E1ECF0E0808188608083808158
:1009300080648083808180618083808180688083FF
:1009400008951F920F920FB60F920BB60F921124BB
:100950002F933F934F935F936F937F938F939F93C7
:10096000AF93BF93EF93FF930E94A302882319F4E0
:100970001092820302C08093C600FF91EF91BF9155
:10098000AF919F918F917F916F915F914F913F9127
:100990002F910F900BBE0F900FBE0F901F901895C8
:1009A000CF93C82F8A3019F48DE00E94D004809133
:1009B0008203882331F4C093C60081E080938203D0
:1009C00003C08C2F0E948102CF9108951F920F9235
:1009D0000FB60F920BB60F9211241F932F933F93D4
:1009E0004F935F936F937F938F939F93AF93BF9337
:1009F000EF93FF93CF93DF93CDB7DEB72A97DEBF98
:100A0000CDBF1091C6001B3161F480916C029091B2
:100A10006D0201968170907090936D0280936C02CC
:100A200024C0143069F01D3009F41AE020916C02E2
:100A300030916D022115310519F0812F0E94D004EB
:100A4000812F0E944202143011F01A3071F480E0BC
:100A500096E09A838983CE0103966FE472E00E9448
:100A60006508CE0101960E948B052A96DEBFCDBF98
:100A7000DF91CF91FF91EF91BF91AF919F918F91B6
:100A80007F916F915F914F913F912F911F910F90A7
:100A90000BBE0F900FBE0F901F9018950E94C002C2
:100AA0000895EF92FF920F931F93CF93DF937C01F2
:100AB00000E010E017C0E801CC0FDD1FC80125E001
:100AC000880F991F2A95E1F7C80FD91FC755DD4F29
:100AD000C701BE010E945C08009711F4CE010BC053
:100AE0000F5F1F4F8091A7029091A8020817190766
:100AF00014F380E090E0DF91CF911F910F91FF9070
:100B0000EF900895109284031092830310922604AC
:100B1000109225040895CF93DF93482FE92F8091F9
:100B2000830390918403C0912504D09126040196FB
:100B300020E130E0B9010E94E3068C179D0731F1F6
:100B400080918303909184030196B9010E94E3068A
:100B50009093840380938303809183039091840313
:100B6000DC01AA0FBB1F63E0880F991F6A95E1F7AC
:100B7000A80FB91FAB57BC4FC42FDE2F8AE00990D6
:100B80000D928150E1F781E090E002C080E090E0BA
:100B9000DF91CF9108959C0140918303509184038C
:100BA00080912504909126044817590731F18091CE
:100BB000250490912604019660E170E00E94E3060E
:100BC0009093260480932504809125049091260417
:100BD000FC01EE0FFF1FA3E0880F991FAA95E1F714
:100BE000E80FF91FD901EB57FC4F8AE001900D92F5
:100BF0008150E1F781E090E0089580E090E0089571
:100C0000AF92BF92CF92DF92EF92FF920F931F931A
:100C1000CF93DF93CDB7DEB7CA54D0400FB6F89468
:100C2000DEBF0FBECDBF0E944E05009709F48EC0F7
:100C3000CE010B960E94CF08009729F48EE692E031
:100C40000E940E09FFCFCE010B9662E872E00E946F
:100C500057088C0180E090E062E872E00E9457083B
:100C60007C0180E090E062E872E00E9457086C012D
:100C700080E090E062E872E00E9457085C01011594
:100C8000110529F40F920F9287E892E047C0C8013E
:100C90006AE872E00E945C080097B9F5E114F1047B
:100CA00019F0C114D10461F40F920F9280E992E01F
:100CB000EDB7FEB7928381830E94F5080F900F90E5
:100CC000C7010E9439088C01C6010E945105009796
:100CD00009F1FC0180A191A19A838983CE01039639
:100CE000A114B10411F0B50102C066EA72E00E94DD
:100CF0006508F894C80160E071E00E94E306CE0147
:100D000001960E94DE02789421C0C8010E9451051C
:100D1000009779F40F920F9280E992E0ADB7BEB7D9
:100D200012969C938E9311970E94F5080F900F9046
:100D30000DC0DC019096ED91FC919197C114D10406
:100D400011F0C70102C086EA92E01995C65BDF4F39
:100D50000FB6F894DEBF0FBECDBFDF91CF911F91CC
:100D60000F91FF90EF90DF90CF90BF90AF900895DC
:100D7000CF93DF93CDB7DEB72A970FB6F894DEBFD7
:100D80000FBECDBF78940E9478040E9482050E9415
:100D9000E3030F920F928AE092E0EDB7FEB79283E1
:100DA00081830E94F5080F900F90F894CE01019670
:100DB0000E94CB0578940097C1F3E981FA81CE01B6
:100DC00003961995F2CF97FB092E07260AD077FDD7
:100DD00004D00CD006D000201AF4709561957F4F96
:100DE0000895F6F7909581959F4F0895AA1BBB1B18
:100DF00051E107C0AA1FBB1FA617B70710F0A61B1B
:100E0000B70B881F991F5A95A9F780959095BC013B
:100E1000CD010895CF93DF93AC018230910510F49A
:100E200042E050E0E0912904F0912A0420E030E013
:100E3000A0E0B0E024C08081918184179507D0F0B4
:100E40008417950771F482819381109729F0139686
:100E50009C938E9312972CC090932A04809329041C
:100E600027C02115310519F08217930718F49C014A
:100E7000BD01EF0192818381DF01E92FF82F3097C7
:100E8000D1F621153105F9F0C901841B950B843089
:100E9000910580F48A819B816115710521F0FB0128
:100EA0009383828304C090932A0480932904FE01D3
:100EB000329642C0FE01E80FF91F41935193029709
:100EC0009983888339C080912704909128040097E2
:100ED00041F48091EF029091F00290932804809366
:100EE00027042091ED023091EE022115310541F4E5
:100EF0002DB73EB78091F1029091F202281B390B79
:100F0000E0912704F0912804E217F30798F42E1BD0
:100F10003F0B2417350770F0CA01029628173907CE
:100F200048F08E0F9F1F90932804809327044193CD
:100F3000519302C0E0E0F0E0CF01DF91CF9108953E
:100F40000F931F93CF93DF939C01009709F48CC0FC
:100F5000DC01129713961C921E921297609129043D
:100F600070912A046115710589F48D919C911197F6
:100F7000820F931F209127043091280428173907E6
:100F800069F5B0932804A09327046EC0FB0140E0EC
:100F900050E001C0FC01EA17FB0730F48281938125
:100FA000AF010097B9F71FC0E9012297FB83EA83DD
:100FB00008811981C901800F911F8E179F0759F46D
:100FC00080819181800F911F02969983888382810D
:100FD00093819B838A834115510529F4B0932A0498
:100FE000A093290441C0FA01B383A283C191D19196
:100FF000EC0FFD1FAE17BF0781F4F90192918291AA
:101000008C0F9D1F0296DA0111969C938E9382811C
:10101000938113969C938E931297E0E0F0E002C0C8
:10102000FB01BC01DB0112968D919C9113970097F7
:10103000B9F7CB0102962D913C911197820F931F26
:1010400020912704309128042817390769F4309734
:1010500029F410922A041092290402C013821282E9
:101060007093280460932704DF91CF911F910F9113
:101070000895FC0188279927E89421912032E9F30B
:10108000293010F02E30C8F32B3241F02D3239F4D4
:10109000689404C00E949308820F911D21912053EF
:1010A0002A30C0F31EF4909581959F4F089548EF24
:1010B00052E00E946C080895FB01DC018D910190C3
:1010C00080190110D9F3990B0895FB01DC010190FF
:1010D0000D920020E1F70895FA01A191B0810097E7
:1010E00019F41097E1F0CD01DC01CD010D90002045
:1010F00011F4C00113C0FB012191222319F0201526
:10110000D9F7F3CFFB012191201519F41E92119606
:1011100006C02223C1F70D900020A1F7D001FA01EB
:10112000A193B08308957AE0979F902D879F802D9B
:10113000910D11240895CF92DF92EF92FF920F93B9
:101140001F93CF93DF938C016A01FA01838180FFA3
:101150001AC016161706BCF47B01E8010EC0C601C2
:101160000E94590BFFEF8F3F9F0769F08993089406
:10117000E108F1088A30910521F021E0E216F1043E
:1011800071F7188202C000E010E0C801DF91CF9132
:101190001F910F91FF90EF90DF90CF9008950F93E4
:1011A0001F93CF93DF938C01E0912B04F0912C04DB
:1011B000838180FF12C0E80180912B0490912C0460
:1011C0000E94590B2FEF8F3F920739F089938A3095
:1011D000910591F72197188202C000E010E0C80144
:1011E000DF91CF911F910F910895CF93DF93CDB7EA
:1011F000DEB7FE0136966191719180912D04909138
:101200002E04AF010E943C09DF91CF9108956091B7
:101210002D0470912E040E94990B08950F931F9333
:10122000CF93DF938C01E0912D04F0912E04838104
:1012300081FF1AC0C0E0D0E005C01995009711F0F9
:10124000CFEFDFEFF80181918F0160912D04709154
:101250002E04DB011896ED91FC911997882369F70C
:101260008AE01995009711F0CFEFDFEFCE01DF9103
:10127000CF911F910F9108952F923F924F925F92BD
:101280006F927F928F929F92AF92BF92CF92DF9296
:10129000EF92FF920F931F93CF93DF93CDB7DEB7FB
:1012A0002D970FB6F894DEBF0FBECDBF3C017D87F2
:1012B0006C875A01FC0117821682838181FFC8C1A5
:1012C0002E010894411C511CF3019381EC85FD858E
:1012D00093FD859193FF8191FD87EC87882309F425
:1012E000B3C1853241F493FD859193FF8191FD87D0
:1012F000EC87853229F490E0B3010E94990BE4CF8A
:10130000FF24EE2410E01032B0F48B3269F08C32FE
:1013100028F4803251F0833271F40BC08D3239F0F1
:10132000803349F411602CC01260146029C0186029
:1013300027C0106125C017FD2EC0282F20532A304A
:1013400098F416FF08C08F2D880FF82EFF0CFF0CA5
:10135000F80EF20E15C08E2D880FE82EEE0CEE0C56
:10136000E80EE20E10620CC08E3221F416FD6CC144
:10137000106406C08C3611F4106802C0883659F427
:10138000EC85FD8593FD859193FF8191FD87EC8729
:10139000882309F0B8CF982F9554933018F09052C5
:1013A000933038F424E030E0A20EB31E3FE33983DB
:1013B0000FC0833631F0833781F0833509F05AC08E
:1013C00022C0F5018081898322E030E0A20EB31EA5
:1013D00021E0C22ED12C420114C092E0292E312CE2
:1013E0002A0C3B1CF5018080918016FF03C06F2DF5
:1013F00070E002C06FEF7FEFC4010E944E0B6C01E2
:1014000051011F7715C082E0282E312C2A0C3B1C7D
:10141000F5018080918016FF03C06F2D70E002C03F
:101420006FEF7FEFC4010E94430B6C011068510104
:1014300013FD1CC006C080E290E0B3010E94990B2E
:10144000EA948E2D90E0C816D906A8F30FC0F401D7
:1014500017FD859117FF81914F0190E0B3010E9424
:10146000990BE110EA940894C108D108C114D10481
:1014700071F7E7C0843611F0893651F5F50117FF91
:1014800007C080819181A281B38124E030E008C04F
:1014900080819181AA2797FDA095BA2F22E030E0A4
:1014A000A20EB31E012F0F76B7FF08C0B095A0950E
:1014B000909581959F4FAF4FBF4F0068BC01CD0104
:1014C000A2012AE030E00E94C50BD82ED4183FC0FC
:1014D000853721F41F7E2AE030E020C0197F8F3647
:1014E000A9F0803720F4883509F0AEC00BC08037F2
:1014F00021F0883709F0A8C001C0106114FF09C0AD
:10150000146007C014FF08C0166006C028E030E071
:1015100005C020E130E002C020E132E0F50117FF14
:1015200007C0608171818281938144E050E006C0F0
:101530006081718180E090E042E050E0A40EB51E31
:10154000A2010E94C50BD82ED418012F0F7706FFD9
:1015500009C00E7FDF1430F404FF06C002FD04C092
:101560000F7E02C01D2D01C01F2D802F90E004FFB3
:101570000CC0FE01ED0DF11D2081203311F4097E18
:1015800009C002FF06C01E5F05C0867890700097F4
:1015900009F01F5F802E992403FD12C000FF0DC0CB
:1015A000FD2C1E1550F4FE0CF11A1E2D06C080E213
:1015B00090E0B3010E94990B1F5F1E15C0F304C099
:1015C0001E1510F4E11A01C0EE2484FE0FC080E362
:1015D00090E0B3010E94990B82FE1FC081FE03C000
:1015E00088E590E010C088E790E00DC0C4018678DF
:1015F0009070009791F081FC02C080E201C08BE204
:1016000007FD8DE290E0B3010E94990B06C080E3D4
:1016100090E0B3010E94990BFA94DF14C0F3DA94BE
:10162000F201ED0DF11D808190E0B3010E94990B54
:10163000DD20A9F706C080E290E0B3010E94990B7B
:10164000EA94EE20C1F740CEF3018681978102C073
:101650008FEF9FEF2D960FB6F894DEBF0FBECDBF74
:10166000DF91CF911F910F91FF90EF90DF90CF907E
:10167000BF90AF909F908F907F906F905F904F90B2
:101680003F902F900895FC0105906150704001102B
:10169000D8F7809590958E0F9F1F0895FC0161509B
:1016A000704001900110D8F7809590958E0F9F1F84
:1016B0000895CF93DF93EC012B8120FF35C026FFE7
:1016C00009C02F7B2B838E819F8101969F838E8300
:1016D0008A8128C022FF0FC0E881F9818081992783
:1016E00087FD9095009719F420622B831DC03196D9
:1016F000F983E88311C0EA85FB85CE01199597FF30
:101700000BC02B813FEF8F3F930711F480E101C0A5
:1017100080E2822B8B8308C02E813F812F5F3F4F59
:101720003F832E8390E002C08FEF9FEFDF91CF9138
:1017300008950F931F93CF93DF938C01EB018B815F
:1017400081FF1BC082FF0DC02E813F818C819D8156
:101750002817390764F4E881F9810193F983E88354
:1017600006C0E885F985802F1995009731F48E81A0
:101770009F8101969F838E8302C00FEF1FEFC801E8
:10178000DF91CF911F910F910895FA01AA27283078
:1017900051F1203181F1E8946F936E7F6E5F7F4F3E
:1017A0008F4F9F4FAF4FB1E03ED0B4E03CD0670FBA
:1017B000781F891F9A1FA11D680F791F8A1F911D0D
:1017C000A11D6A0F711D811D911DA11D20D009F45D
:1017D00068943F912AE0269F11243019305D31939F
:1017E000DEF6CF010895462F4770405D4193B3E088
:1017F0000FD0C9F7F6CF462F4F70405D4A3318F02F
:10180000495D31FD4052419302D0A9F7EACFB4E0DF
:10181000A6959795879577956795BA95C9F7009797
:101820006105710508959B01AC010A2E0694579538
:10183000479537952795BA95C9F7620F731F841F8F
:0A184000951FA01D0895F894FFCF36
:10184A002D2D3E256320003E200024200025642003
:10185A0069732061207072696D65206E756D6265AD
:10186A0072202121210A00636F756E74203D2025A4
:10187A00640A0024200073756D203D2025640A0047
:10188A002D2D3E25642825642920003E3E20000097
:10189A00000000010000000000004A0400000000EF
:1018AA0000020000000057040000000001006C6FF5
:1018BA00676F75742C20676F6F64627965202121C8
:1018CA00210020090A0D0024200074696D65720048
:1018DA00556E6B6E6F776E20636F6D6D616E642EE1
:1018EA002E2E0A2420000002007072696D65000025
:1018FA0000000000000000000000000000000000DE
:10190A00000000000000000000B00173756D0000C7
:10191A0000000000000000000000000000000000BD
:10192A000000000000000000000000050200003175
:04193A000420000085
:00000001FF
