:100000000C9472000C9494000C9494000C94940042
:100010000C9494000C9494000C9494000C94940010
:100020000C9494000C9494000C9494000C94940000
:100030000C9494000C9494000C9494000C9442063C
:100040000C9494000C9494000C9494000C949400E0
:100050000C9494000C9494000C9494000C949400D0
:100060000C94FA070C9413070C9494000C94CE068D
:100070000C9494000C94FB000C9494000C94940049
:100080000C9494000C9494000C9494000C949400A0
:100090000C9494000C9494000C9494000C94940090
:1000A0000C9494000C9494000C9494000C94940080
:1000B0000C9494000C9494000C9494000C94940070
:1000C0000C9494000C9494000C9494000C94940060
:1000D0000C9494000C9494000C9494000C94940050
:1000E0000C94940011241FBECFEFD1E2DEBFCDBF30
:1000F00000E00CBF14E0A0E0B2E0EAEFF8E200E0BC
:100100000BBF02C007900D92A03DB107D9F71BBEEF
:1001100016E0A0EDB4E001C01D92A431B107E1F7F3
:100120000E94A60E0C947B140C940000809880E82A
:1001300080937C000895EAE7F0E080818068808306
:100140008DED90E00197F1F7808188608083808158
:10015000806480830895FC012081222319F50E9488
:100160009B0081E090E09093D1048093D004809133
:10017000D0049091D1040097D1F700D00F9280E085
:1001800092E0EDB7FEB7928381838091D204909183
:10019000D304948383830E941E110F900F900F90BD
:1001A0000F9008950E9462109C01B901882777FD85
:1001B0008095982F0E94710B29E030EF4CE85AE3AC
:1001C0000E943F0A20E030E04AE754E40E943F0AE0
:1001D0000E94E80BDC01CB01845F91406AE070E093
:1001E0000E94D50E7093D3046093D2041092D10470
:1001F0001092D00408951F920F920FB60F920BB673
:100200000F9211240F931F932F933F934F935F935C
:100210006F937F938F939F93AF93BF93EF93FF93CE
:10022000CF93DF93CDB7DEB72897DEBFCDBF8091E8
:10023000780090917900EAE7F0E020812F77208321
:1002400000D000D0EDB7FEB731968E010F5F1F4F83
:10025000ADB7BEB712961C930E93119725E232E00C
:10026000338322839370958384830E9465118DB7B5
:100270009EB706960FB6F8949EBF0FBE8DBFC801FD
:100280000E94AB002896DEBFCDBFDF91CF91FF91DA
:10029000EF91BF91AF919F918F917F916F915F91FE
:1002A0004F913F912F911F910F910F900BBE0F9087
:1002B0000FBE0F901F90189584E090E00E94330FBE
:1002C00008950E94C90F0895FC018091D404909173
:1002D000D504009739F4F093D504E093D404138245
:1002E0001282089593838283F093D504E093D4041B
:1002F0000895E091D404F091D504309731F49093AF
:10030000D5048093D40408C0F901228133812115DA
:100310003105D1F793838283FC0113821282089501
:10032000CF93DF93FC012091D4043091D5042115A3
:10033000310531F040815181D901C0E0D0E00FC0DA
:100340009093D5048093D404138212821DC0129618
:100350008D919C911397ED01009739F0DC018D91FF
:100360009C9111978417950794F3209739F4338360
:100370002283F093D504E093D40406C08A819B8144
:1003800093838283FB83EA83DF91CF9108950F9358
:100390001F93CF93DF938AE090E00E943011C091C9
:1003A000D404D091D50408E212E013C000D00F921B
:1003B000EDB7FEB71283018388819981948383838B
:1003C0000E941E110A80DB81C02D0F900F900F90AC
:1003D0000F908A819B81009749F78AE090E00E9404
:1003E0003011DF91CF911F910F91089509C0FC0149
:1003F000228133813093D5042093D4040E94C90F05
:100400008091D4049091D504009789F70895EF92D4
:10041000FF921F93CF93DF93CDB7DEB728970FB628
:10042000F894DEBF0FBECDBF009719F0FC0110811C
:1004300001C011E68FE2E82E82E0F82E0F920F92B3
:10044000EDB7FEB7F282E1820E941E110F900F906D
:1004500040910E0650910F06CE01019668E070E0C3
:100460000E94C4100097A1F00E945C012981FC0148
:1004700020831182183619F0143739F403C00E9412
:100480006401DCCF0E947901D9CF0E949001D6CFC0
:100490000E94C7010E94F60128960FB6F894DEBFAD
:1004A0000FBECDBFDF91CF911F91FF90EF900895C8
:1004B000CF93DF93FC0162E070E00E94D50EEB0168
:1004C00022E030E008C0CF01B9010E94D50E0097AC
:1004D00041F02F5F3F4FC217D307ACF781E090E0A8
:1004E00002C080E090E0DF91CF910895CF92DF923B
:1004F000EF92FF920F931F93CF93DF93009721F01A
:100500000E9462107C0104C090EDE92E97E0F92E64
:1005100000E010E0C2E0D0E085E3C82E82E0D82EF3
:1005200016C0CE010E945802009781F00F5F1F4F46
:1005300000D00F92EDB7FEB7D282C182D483C383BD
:100540000E941E110F900F900F900F902196EC16A5
:10055000FD063CF700D00F928FE492E0EDB7FEB7B6
:1005600092838183148303830E941E110F900F9046
:100570008BE592E0EDB7FEB7928381830E941E1156
:100580000F900F90DF91CF911F910F91FF90EF90FF
:10059000DF90CF900895009719F00E94621002C07A
:1005A00084E690E040E050E021E030E004C0420FFB
:1005B000531F2F5F3F4F82179307CCF700D00F9246
:1005C0008EE592E0EDB7FEB7928381835483438337
:1005D0000E941E110F900F908BE592E0EDB7FEB7D1
:1005E000928381830E941E110F900F9008951092A4
:1005F0002205109221051092200510921F051092DD
:100600002405109223051092DE041092DD04089553
:10061000482F20912305309124052F5F3F4FC901BA
:1006200060E470E00E94D50E9C018091DD04909101
:10063000DE042817390759F0309324052093230549
:100640002B5D3A4FF901408381E090E0089580E00E
:1006500090E008958091DD049091DE0420912305BF
:10066000309124052817390779F0019660E470E08D
:100670000E94D50E9093DE048093DD048B5D9A4F2B
:10068000FC01808190E0089580E090E00895482F7B
:1006900020912105309122052F5F3F4FC90160E471
:1006A00070E00E94D50E9C0180911F05909120055D
:1006B0002817390759F0309322052093210521523C
:1006C0003B4FF901408381E090E0089580E090E0A5
:1006D000089580911F05909120052091210530916A
:1006E00022052817390779F0019660E470E00E942E
:1006F000D50E9093200580931F0581529B4FFC01DE
:10070000808190E0089580E090E008958091DD047C
:100710009091DE04209123053091240582179307E0
:1007200059F0019660E470E00E94D50E8B5D9A4FFF
:10073000FC01808190E0089580E090E00895EF92C0
:10074000FF920F931F93CF93DF937C0100E010E0A3
:1007500017C0E801CC0FDD1FC80125E0880F991FE5
:100760002A95E1F7C80FD91FCD55DD4FC701BE014E
:100770000E948510009711F4CE010BC00F5F1F4F30
:100780008091A1029091A2020817190714F380E04A
:1007900090E0DF91CF911F910F91FF90EF9008951E
:1007A00010926605109265051092080610920706D1
:1007B0000895CF93DF93482FE92F8091650590919D
:1007C0006605C0910706D0910806019620E130E049
:1007D000B9010E94D50E8C179D0731F180916505F6
:1007E000909166050196B9010E94D50E9093660519
:1007F000809365058091650590916605DC01AA0FDF
:10080000BB1F63E0880F991F6A95E1F7A80FB91F16
:10081000A959BA4FC42FDE2F8AE009900D9281505A
:10082000E1F781E090E002C080E090E0DF91CF91BD
:1008300008959C01409165055091660580910706D9
:10084000909108064817590731F180910706909159
:100850000806019660E170E00E94D50E90930806AC
:10086000809307068091070690910806FC01EE0F21
:10087000FF1FA3E0880F991FAA95E1F7E80FF91F62
:10088000D901E959FA4F8AE001900D928150E1F7C0
:1008900081E090E0089580E090E00895AF92BF92EB
:1008A000CF92DF92EF92FF920F931F93CF93DF933C
:1008B000CDB7DEB7CA54D0400FB6F894DEBF0FBE36
:1008C000CDBF0E947B07009709F48EC0CE010B9626
:1008D0000E94F810009729F488E692E00E943711F0
:1008E000FFCFCE010B966CE772E00E9480108C0166
:1008F00080E090E06CE772E00E9480107C0180E074
:1009000090E06CE772E00E9480106C0180E090E063
:100910006CE772E00E9480105C010115110529F45A
:100920000F920F9281E892E047C0C80164E872E03C
:100930000E9485100097B9F5E114F10419F0C11473
:10094000D10461F40F920F928AE892E0EDB7FEB7FE
:10095000928381830E941E110F900F90C7010E9405
:1009600062108C01C6010E949F03009709F1FC01EF
:1009700080A191A19A838983CE010396A114B10429
:1009800011F0B50102C060EA72E00E948E10F89486
:10099000C80160E071E00E94D50ECE0101960E9470
:1009A0000B05789421C0C8010E949F03009779F439
:1009B0000F920F928AE892E0ADB7BEB712969C9361
:1009C0008E9311970E941E110F900F900DC0DC01A5
:1009D0009096ED91FC919197C114D10411F0C7014B
:1009E00002C080EA92E01995C65BDF4F0FB6F8941B
:1009F000DEBF0FBECDBFDF91CF911F910F91FF9052
:100A0000EF90DF90CF90BF90AF9008958EE090E090
:100A10000E94330F0895EF92FF920F931F93CF938D
:100A2000DF93F82EE92E8B010E940605EC01DC0114
:100A30001296EF2DFE2D8AE001900D928150E1F784
:100A400019830883E091D604F091D704309729F4F4
:100A5000D093D704C093D6042FC040E050E020E0EC
:100A600030E001C0FD0180819181280F391F2017DE
:100A7000310734F4A485B585AF01109799F701C00B
:100A8000DF014115510579F48D919C911197801BDF
:100A9000910B11969C938E93BD87AC87D093D7040E
:100AA000C093D60424C0109751F4021B130B198372
:100AB0000883FA01D587C4871D861C8618C08D91CE
:100AC0009C911197B901681B790B9801261B370B74
:100AD000398328838D919C911197821B930B1196DA
:100AE0009C938E93FA01D587C487BD87AC87DF912D
:100AF000CF911F910F91FF90EF900895EF92FF9289
:100B00000F931F93CF93DF938AE090E00E94301100
:100B1000C091D604D091D70400E010E08BE2E82E1B
:100B200083E0F82E20C088819981080F191F00D01A
:100B300000D0EDB7FEB73196ADB7BEB71296FC92B6
:100B4000EE92119793838283158304830E941E1172
:100B50000C84DD85C02D8DB79EB706960FB6F89430
:100B60009EBF0FBE8DBF2097F1F68AE090E00E94F5
:100B70003011DF91CF911F910F91FF90EF90089569
:100B800009C0FC01248535853093D7042093D60411
:100B90000E94C90F8091D6049091D704009789F7DD
:100BA00008950F931F93CF93DF93CDB7DEB762976E
:100BB0000FB6F894DEBF0FBECDBF06E313E00F9271
:100BC0000F92EDB7FEB7128301830E941E110F90A2
:100BD0000F9040910E0650910F06CE01019668E0ED
:100BE00070E00E94C410009761F0CE0101960E944F
:100BF0006210BC01009729F0CE0109960E940B05F6
:100C0000DECF0E947E050E94C00562960FB6F89462
:100C1000DEBF0FBECDBFDF91CF911F910F91089521
:100C20001092B200E6EBF0E0808180628083E0E722
:100C3000F0E0808181608083E1EBF0E08081816081
:100C400080838081826080830895CF93DF930DC07D
:100C50008C859D859093D7048093D604CE0102960F
:100C60000E94D903CE010E94C90FC091D604D09131
:100C7000D704209721F088819981009749F3DF916B
:100C8000CF9108951F920F920FB60F920BB60F924D
:100C900011242F933F934F935F936F937F938F9381
:100CA0009F93AF93BF93EF93FF93E091D604F0919E
:100CB000D704309749F08081918101979183808397
:100CC000009711F40E942506FF91EF91BF91AF911B
:100CD0009F918F917F916F915F914F913F912F9154
:100CE0000F900BBE0F900FBE0F901F901895F894A9
:100CF0000E942A0378948823D1F3843011F090E085
:100D000008958FEF9FEF0895CF93C82F8A3019F47D
:100D10008DE00E948406F89480910906882359F496
:100D2000C093C60081E0809309060AC0789486EFDC
:100D30008A95F1F7F8948C2F0E9447030097B1F33E
:100D4000789481E090E0CF9108958BE393E09093C5
:100D50000F0680930E0689E493E09093110680932A
:100D60001006109209060E94F7021092C50087E053
:100D70008093C400E0ECF0E0808182608083E1EC4D
:100D8000F0E08081886080838081806480838081BE
:100D90008061808380818068808308951F920F9294
:100DA0000FB60F920BB60F9211242F933F934F93D0
:100DB0005F936F937F938F939F93AF93BF93EF93C3
:100DC000FF930E946903882319F41092090602C058
:100DD0008093C600FF91EF91BF91AF919F918F914A
:100DE0007F916F915F914F913F912F910F900BBE2B
:100DF0000F900FBE0F901F901895CF93C82F8A3079
:100E000019F48DE00E94FD0680910906882331F4D3
:100E1000C093C60081E08093090603C08C2F0E9416
:100E20004703CF9108951F920F920FB60F920BB602
:100E30000F9211241F932F933F934F935F936F93C0
:100E40007F938F939F93AF93BF93EF93FF93CF9332
:100E5000DF93CDB7DEB72A97DEBFCDBF1091C600B6
:100E60001B3161F480915703909158030196817072
:100E70009070909358038093570324C0143069F006
:100E80001D3009F41AE020915703309158032115C1
:100E9000310519F0812F0E94FD06812F0E94080361
:100EA000143011F01A3071F48EE494E09A8389833F
:100EB000CE0103966AE373E00E948E10CE01019684
:100EC0000E94D9032A96DEBFCDBFDF91CF91FF915B
:100ED000EF91BF91AF919F918F917F916F915F91B2
:100EE0004F913F912F911F910F900BBE0F900FBE0E
:100EF0000F901F9018950E9486030895209A219ABA
:100F0000229A23988DB581608DBD80ED8CBD0895AA
:100F100028980895289A0895CF92DF92EF92FF9231
:100F2000DC012C91222331F481E08093D8040E94CB
:100F3000880711C02091D804213021F0223009F017
:100F400044C00BC00E9462101092D9048093DA044E
:100F500082E08093D8041EBC46C0C090D904D090D3
:100F6000DA040E946210C82AD92A23E0D694C794D2
:100F70002A95E1F7B60180E090E00E94390C20E06C
:100F800030E040E85DE30E943F0A0E9452086B0196
:100F90007C017093DA046093D9040E948A0700D020
:100FA0000F92EDB7FEB7319689E593E0ADB7BEB7C6
:100FB00012969C938E931197D382C2820E941E1127
:100FC0000F900F900F900F900EC00E948A070F9203
:100FD0000F928CE893E0EDB7FEB7928381830E9475
:100FE0001E110F900F90FF90EF90DF90CF9008951B
:100FF0008EBD08951F920F920FB60F920BB60F92EF
:1010000011242F933F934F935F936F937F938F930D
:101010009F93AF93BF93EF93FF93CF93DF93CDB79E
:10102000DEB72A97DEBFCDBF2EB58CE897E09A8356
:10103000898300D000D0EDB7FEB73196CE0103967C
:10104000ADB7BEB712969C938E9311978EEB93E03B
:1010500093838283248315820E9465118DB79EB786
:1010600006960FB6F8949EBF0FBE8DBFCE010196B7
:101070000E94D9032A96DEBFCDBFDF91CF91FF91A9
:10108000EF91BF91AF919F918F917F916F915F9100
:101090004F913F912F910F900BBE0F900FBE0F906D
:1010A0001F901895CF92DF92EF92FF920F931F93AC
:1010B0006B017C0120E030E040E05FE40E94400BE7
:1010C00087FD11C0C701B60120E030E040E05FE4D9
:1010D0000E94070A0E94E80B8B019C0100501040FF
:1010E0002040304806C0C701B6010E94E80B8B01C2
:1010F0009C01B801C9011F910F91FF90EF90DF9003
:10110000CF900895A0E0B0E0E8E8F8E00C94FE0E7F
:10111000EC014B01FA018881823008F43EC1DB0109
:101120009C91923008F436C1843059F4943009F01F
:1011300034C1998111968C911197981709F027C1A4
:101140002CC1943009F426C19230A9F4823009F000
:1011500024C1CE0128E0DC010D90CD01DA010D9211
:10116000AD012150C1F7D40111968C91119799814D
:101170008923818311C1823009F40CC1AA80BB800C
:10118000DB0112964D915C911397CC80DD80EE804F
:10119000FF8014960D911D912D913C911797C501DB
:1011A000841B950BDC0197FF04C0AA27BB27A81B53
:1011B000B90BA032B1050CF067C01816190684F5FA
:1011C000280139010A2E04C07694679457944794F5
:1011D0000A94D2F741E050E060E070E004C0440FB0
:1011E000551F661F771FAA95D2F7415050406040A7
:1011F0007040402351236223732381E090E0A0E0FC
:10120000B0E0411551056105710519F480E090E0E9
:10121000DC018C019D0104291529262937293FC0AD
:101220000097E9F1AA0EBB1E260137010A2E04C061
:1012300076946794579447940A94D2F741E050E02B
:1012400060E070E004C0440F551F661F771FAA9529
:10125000D2F741505040604070404C215D216E21DA
:101260007F2181E090E0A0E0B0E0411551056105EB
:10127000710519F480E090E0DC016C017D01C42867
:10128000D528E628F7280BC04A155B0524F400E0B2
:1012900010E0980104C05A01CC24DD247601898134
:1012A000D40111969C911197891709F445C08823A0
:1012B00029F00C191D092E093F0908C0D701C601E4
:1012C000801B910BA20BB30B8C019D0137FD04C059
:1012D0001182B382A2820BC081E08183B382A28299
:1012E00030952095109501951F4F2F4F3F4F048348
:1012F0001583268337830DC0880F991FAA1FBB1F34
:1013000084839583A683B783828193810197938396
:10131000828384819581A681B781AC01BD01415052
:101320005040604070404F3F2FEF52072FEF620751
:101330002FE3720708F30BC08183B382A2820C0DE6
:101340001D1D2E1D3F1D048315832683378383E0D7
:101350008083448155816681778177FF1DC0DB01E1
:10136000CA0181709070A070B0707695679557959E
:101370004795842B952BA62BB72B84839583A68327
:10138000B7838281938101969383828305C0C1ECE8
:10139000D3E003C0E40101C0EF01CE01CDB7DEB759
:1013A000E0E10C941A0FA0E2B0E0E9EDF9E00C9452
:1013B0000C0FDC01CB018D839E83AF83B88729831B
:1013C0003A834B835C83CE010596BE01675E7F4FF7
:1013D0000E94E00DCE010196BE016F5E7F4F0E941C
:1013E000E00DCE014996BE016F5E7F4FAE01475FB3
:1013F0005F4F0E9482080E94090D462F572F682FC9
:10140000792FCB01BA01A096E2E00C94280FA0E25C
:10141000B0E0EDE0FAE00C940C0FDC01CB018D8321
:101420009E83AF83B88729833A834B835C83CE0145
:101430000596BE01675E7F4F0E94E00DCE010196CA
:10144000BE016F5E7F4F0E94E00D8A8991E089277F
:101450008A8BCE014996BE016F5E7F4FAE01475F1A
:101460005F4F0E9482080E94090D462F572F682F58
:10147000792FCB01BA01A096E2E00C94280FA0E2EC
:10148000B0E0E5E4FAE00C94FE0EDC01CB018D83C4
:101490009E83AF83B88729833A834B835C83CE01D5
:1014A0000596BE01675E7F4F0E94E00DCE0101965A
:1014B000BE016F5E7F4F0E94E00D998D923078F0F3
:1014C00089898230C0F0943019F4823041F4CAC066
:1014D000843019F4923079F4C5C0923051F481E02F
:1014E0002A8D9A89291709F480E08A8FCE014996BE
:1014F000BBC0823051F481E02A8D9A89291709F402
:1015000080E08A8BCE014196AFC04D8C5E8C6F8C93
:1015100078A00D891E892F89388DE0E2F0E040E047
:1015200050E0BA01882499245401CC24DD247601AA
:10153000C201817090700097D1F0C00ED11EE21EE2
:10154000F31EDB01CA01880D991DAA1DBB1D41E0D8
:1015500050E060E070E0C016D106E206F30618F035
:1015600040E050E0BA01480F591F6A1F7B1F880CEA
:10157000991CAA1CBB1C37FF08C081E090E0A0E0CA
:10158000B0E0882A992AAA2ABB2A000F111F221F1D
:10159000331F7694679457944794319749F68B8D0F
:1015A0009C8D2B893C89820F931F02969C878B8789
:1015B00081E02A8D9A89291709F480E08A872B8592
:1015C0003C8517C0CA0181709070009761F0F69455
:1015D000E794D794C79480E090E0A0E0B0E8C82AF0
:1015E000D92AEA2AFB2A76956795579547952F5F62
:1015F0003F4F77FDE7CFC9010BC0440F551F661F52
:10160000771FF7FC4160CC0CDD1CEE1CFF1C019722
:101610004030A0E05A07A0E06A07A0E47A0768F328
:101620008B879C87DB01CA018F779070A070B070A8
:1016300080349105A105B10561F447FD0AC0C114CC
:10164000D104E104F10429F0405C5F4F6F4F7F4FFC
:1016500040784D875E876F87788B83E08987CE01DE
:10166000099602C081EC93E00E94090D462F572F86
:10167000682F792FCB01BA01A096E0E10C941A0FE4
:10168000A8E1B0E0E6E4FBE00C940C0FDC01CB0138
:101690008D839E83AF83B88729833A834B835C8392
:1016A000CE010596BE016F5E7F4F0E94E00DCE0118
:1016B0000196BE01675F7F4F0E94E00D89898230ED
:1016C00058F08985823040F0CE014196BE01675FB7
:1016D0007F4F0E94490E01C08FEF6896E2E00C94A4
:1016E000280FCF92DF92EF92FF92CF93DF93CDB787
:1016F000DEB728970FB6F894DEBF0FBECDBF6B01E3
:101700007C0183E08983D701C6018827B7FD8395D3
:101710009927AA27BB27282F8A83C114D104E10463
:10172000F10419F482E0898335C08EE190E09C8356
:101730008B83222389F080E0C81680E0D80680E001
:10174000E80680E8F80659F1F094E094D094C0944B
:10175000C11CD11CE11CF11CCD82DE82EF82F88617
:10176000C701B6010E94B60C01971816190694F429
:10177000082E04C0CC0CDD1CEE1CFF1C0A94D2F712
:10178000CD82DE82EF82F8862EE130E0281B390B15
:101790003C832B83CE0101960E94090D04C060E0BA
:1017A00070E080E09FEC382F292F862F972FA32FF2
:1017B000B22FBC01CD0128960FB6F894DEBF0FBE44
:1017C000CDBFDF91CF91FF90EF90DF90CF90089544
:1017D000ACE0B0E0EEEEFBE00C940A0FDC01CB01D4
:1017E00089839A83AB83BC83CE010196BE016B5F74
:1017F0007F4F0E94E00D8D81823069F1823058F177
:10180000843039F02F81388537FD25C02F313105DF
:1018100044F08E81882319F100E010E020E030E8E8
:1018200022C08EE190E0821B930B09851A852B85DF
:101830003C8504C036952795179507958A95D2F76C
:101840008E81882381F030952095109501951F4F4A
:101850002F4F3F4F08C000E010E0980104C00FEF89
:101860001FEF2FEF3FE7B801C9012C96E4E00C947D
:10187000260FA8E0B0E0EFE3FCE00C94060F6B014C
:101880007C011A82611571058105910519F482E0C8
:1018900089835EC083E089830EE110E01C830B83A3
:1018A000CD82DE82EF82F886C701B6010E94B60CB7
:1018B0009C012150304037FF38C0EE27FF27E21B44
:1018C000F30B81E090E0A0E0B0E00E2E04C0880FA2
:1018D000991FAA1FBB1F0A94D2F70197A109B1094A
:1018E0008C219D21AE21BF2141E050E060E070E0FD
:1018F0000097A105B10519F440E050E0BA0104C019
:10190000F694E794D794C794EA95D2F7C42AD52AD7
:10191000E62AF72ACD82DE82EF82F8868EE190E019
:10192000821B930B9C838B8313C02115310581F09F
:10193000022E04C0CC0CDD1CEE1CFF1C0A94D2F756
:10194000CD82DE82EF82F886021B130B1C830B8391
:10195000CE0101960E94090D462F572F682F792F2F
:10196000CB01BA012896E8E00C94220FCF92DF92C7
:10197000EF92FF920F931F938B019C01003080E048
:10198000180781E0280780E0380750F40F3F110561
:101990002105310509F088F480E090E0DC0116C0F3
:1019A0000030E0E01E07E0E02E07E1E03E0750F4E3
:1019B00080E190E0A0E0B0E009C088E090E0A0E025
:1019C000B0E004C088E190E0A0E0B0E040E250E088
:1019D00060E070E0481B590B6A0B7B0B68017901D2
:1019E00004C0F694E794D794C7948A95D2F7D701A8
:1019F000C60187539C4FFC018081481B5109610936
:101A00007109CA011F910F91FF90EF90DF90CF9065
:101A10000895CF92DF92EF92FF920F931F93DC0114
:101A200014964D915D916D917C9117971196EC9163
:101A300011978C91823020F460618FEF90E0A5C007
:101A4000843009F49DC0823009F494C041155105D9
:101A50006105710509F491C012968D919C911397BF
:101A60002FEF823892070CF059C022E83FEF281B75
:101A7000390B2A31310564F56A017B01022E04C05D
:101A8000F694E794D794C7940A94D2F781E090E053
:101A9000A0E0B0E004C0880F991FAA1FBB1F2A95C1
:101AA000D2F70197A109B10984239523A623B7236F
:101AB00041E050E060E070E00097A105B10519F445
:101AC00040E050E0BA014C295D296E297F2903C00E
:101AD00040E050E0BA01DB01CA018F779070A0703E
:101AE000B07080349105A105B10539F447FF09C0F4
:101AF000405C5F4F6F4F7F4F04C0415C5F4F6F4F43
:101B00007F4F81E090E0403020E0520720E0620704
:101B100020E4720738F580E090E024C08038910519
:101B20007CF58A019B010F771070207030700034B3
:101B300011052105310539F447FF09C0405C5F4FAD
:101B40006F4F7F4F04C0415C5F4F6F4F7F4F77FDFA
:101B500003C081589F4F06C0769567955795479566
:101B600080589F4F97E076956795579547959A953A
:101B7000D1F70BC080E090E005C080E090E005C0A8
:101B80008FEF90E040E050E0BA01982F97959927A9
:101B90009795A62FAF77E795EE27E79586953A2F8D
:101BA000392B282F2E2B842F952FA32FB22FBC013A
:101BB000CD011F910F91FF90EF90DF90CF9008958E
:101BC000DC01FB014C9111965C91119712968C915E
:101BD0001297682F6F7770E0982F991F9927991F98
:101BE00013962C911397822F880F892B90E0221F38
:101BF0002227221F2183009739F5411551056105E0
:101C0000710511F482E029C082E89FEF93838283FB
:101C100027E0440F551F661F771F2A95D1F783E0F1
:101C2000808309C0440F551F661F771F82819381EF
:101C3000019793838283403080E0580780E06807F3
:101C400080E4780778F320C08F3F910579F441153F
:101C500051056105710519F484E08083089564FFDE
:101C600003C081E0808310C010820EC08F57904067
:101C70009383828383E0808387E0440F551F661F30
:101C8000771F8A95D1F77064448355836683778381
:101C90000895CF93FC01DB019081923008F44CC091
:101CA0008C91823008F448C0943069F421818430EA
:101CB00039F411968C91119790E0821B910944C0E0
:101CC0002223D1F13FC0843021F0923041F48230A0
:101CD000B1F111968C9111978823A1F12DC0C1818A
:101CE000823001F111968C911197C817D9F4828135
:101CF000938112962D913C9113972817390794F0F0
:101D000082179307BCF044815581668177811496D0
:101D10008D919D910D90BC91A02D84179507A607DC
:101D2000B70718F4CC2341F00DC0481759076A07CC
:101D30007B0728F4CC2331F081E090E005C080E0FF
:101D400090E002C08FEF9FEFCF910895CF93DF9384
:101D5000CDB7DEB72A970FB6F894DEBF0FBECDBF62
:101D600078940E94A5060E94D0030E9410060E944B
:101D700096000E947E070F920F9282E392E0EDB7E9
:101D8000FEB7928381830E941E110F900F90F894EA
:101D9000CE0101960E94190478940097C1F3E9815D
:101DA000FA81CE0103961995F2CF97FB092E0726EB
:101DB0000AD077FD04D00CD006D000201AF470951C
:101DC00061957F4F0895F6F7909581959F4F0895FF
:101DD000AA1BBB1B51E107C0AA1FBB1FA617B70751
:101DE00010F0A61BB70B881F991F5A95A9F780956D
:101DF0009095BC01CD0108952F923F924F925F9232
:101E00006F927F928F929F92AF92BF92CF92DF920A
:101E1000EF92FF920F931F93CF93DF93CDB7DEB76F
:101E2000CA1BDB0B0FB6F894DEBF0FBECDBF1994F3
:101E30002A88398848885F846E847D848C849B845A
:101E4000AA84B984C884DF80EE80FD800C811B8168
:101E5000AA81B981CE0FD11D0FB6F894DEBF0FBE97
:101E6000CDBFED010895CF93DF93AC018230910592
:101E700010F442E050E0E0910C06F0910D0620E0F5
:101E800030E0A0E0B0E024C0808191818417950704
:101E9000D0F08417950771F482819381109729F00F
:101EA00013969C938E9312972CC090930D0680935B
:101EB0000C0627C02115310519F08217930718F475
:101EC0009C01BD01EF0192818381DF01E92FF82F91
:101ED0003097D1F621153105F9F0C901841B950B16
:101EE0008430910580F48A819B816115710521F010
:101EF000FB019383828304C090930D0680930C06AC
:101F0000FE01329642C0FE01E80FF91F4193519342
:101F100002979983888339C080910A0690910B06B5
:101F2000009741F48091CB049091CC0490930B06E0
:101F300080930A062091C9043091CA042115310505
:101F400041F42DB73EB78091CD049091CE04281B6B
:101F5000390BE0910A06F0910B06E217F30798F4AB
:101F60002E1B3F0B2417350770F0CA010296281765
:101F7000390748F08E0F9F1F90930B0680930A0637
:101F80004193519302C0E0E0F0E0CF01DF91CF91A7
:101F900008950F931F93CF93DF939C01009709F44B
:101FA0008CC0DC01129713961C921E9212976091BE
:101FB0000C0670910D066115710589F48D919C9147
:101FC0001197820F931F20910A0630910B06281754
:101FD000390769F5B0930B06A0930A066EC0FB01A2
:101FE00040E050E001C0FC01EA17FB0730F48281B9
:101FF0009381AF010097B9F71FC0E9012297FB83D6
:10200000EA8308811981C901800F911F8E179F07EC
:1020100059F480819181800F911F02969983888362
:10202000828193819B838A834115510529F4B09362
:102030000D06A0930C0641C0FA01B383A283C1919F
:10204000D191EC0FFD1FAE17BF0781F4F9019291FA
:1020500082918C0F9D1F0296DA0111969C938E93AC
:102060008281938113969C938E931297E0E0F0E027
:1020700002C0FB01BC01DB0112968D919C9113976C
:102080000097B9F7CB0102962D913C911197820FE1
:10209000931F20910A0630910B062817390769F41F
:1020A000309729F410920D0610920C0602C013828C
:1020B000128270930B0660930A06DF91CF911F91F5
:1020C0000F910895FC0188279927E89421912032E7
:1020D000E9F3293010F02E30C8F32B3241F02D32C5
:1020E00039F4689404C00E94BC10820F911D2191A4
:1020F00020532A30C0F31EF4909581959F4F089588
:102100004BED54E00E9495100895FB01DC018D9188
:10211000019080190110D9F3990B0895FB01DC019E
:1021200001900D920020E1F70895FA01A191B0818C
:10213000009719F41097E1F0CD01DC01CD010D906D
:10214000002011F4C00113C0FB012191222319F0DA
:102150002015D9F7F3CFFB012191201519F41E9218
:10216000119606C02223C1F70D900020A1F7D001DF
:10217000FA01A193B08308957AE0979F902D879FED
:10218000802D910D11240895CF92DF92EF92FF924E
:102190000F931F93CF93DF938C016A01FA01838120
:1021A00080FF1AC016161706BCF47B01E8010EC0AA
:1021B000C6010E94B113FFEF8F3F9F0769F089931B
:1021C0000894E108F1088A30910521F021E0E21637
:1021D000F10471F7188202C000E010E0C801DF913D
:1021E000CF911F910F91FF90EF90DF90CF900895C6
:1021F0000F931F93CF93DF938C01E0910E06F09124
:102200000F06838180FF12C0E80180910E06909135
:102210000F060E94B1132FEF8F3F920739F0899379
:102220008A30910591F72197188202C000E010E0F2
:10223000C801DF91CF911F910F910895CF93DF9344
:10224000CDB7DEB7FE01369661917191809110068F
:1022500090911106AF010E949411DF91CF910895E2
:1022600060911006709111060E94F11308950F936A
:102270001F93CF93DF938C01E0911006F09111062C
:10228000838181FF1AC0C0E0D0E005C01995009796
:1022900011F0CFEFDFEFF80181918F01609110060F
:1022A00070911106DB011896ED91FC911997882326
:1022B00069F78AE01995009711F0CFEFDFEFCE01B3
:1022C000DF91CF911F910F9108950F931F93CF939B
:1022D000DF93CDB7DEB72E970FB6F894DEBF0FBEF3
:1022E000CDBF0E891F8986E08C831A8309838FEF07
:1022F0009FE79E838D83AE01465E5F4FCE010196C0
:10230000688D798D0E949411EF81F885E00FF11F9F
:1023100010822E960FB6F894DEBF0FBECDBFDF91B0
:10232000CF911F910F9108952F923F924F925F92FC
:102330006F927F928F929F92AF92BF92CF92DF92D5
:10234000EF92FF920F931F93CF93DF93CDB7DEB73A
:102350002D970FB6F894DEBF0FBECDBF3C017D8731
:102360006C875A01FC0117821682838181FFC8C1E4
:102370002E010894411C511CF3019381EC85FD85CD
:1023800093FD859193FF8191FD87EC87882309F464
:10239000B3C1853241F493FD859193FF8191FD870F
:1023A000EC87853229F490E0B3010E94F113E4CF69
:1023B000FF24EE2410E01032B0F48B3269F08C323E
:1023C00028F4803251F0833271F40BC08D3239F031
:1023D000803349F411602CC01260146029C0186069
:1023E00027C0106125C017FD2EC0282F20532A308A
:1023F00098F416FF08C08F2D880FF82EFF0CFF0CE5
:10240000F80EF20E15C08E2D880FE82EEE0CEE0C95
:10241000E80EE20E10620CC08E3221F416FD6CC183
:10242000106406C08C3611F4106802C0883659F466
:10243000EC85FD8593FD859193FF8191FD87EC8768
:10244000882309F0B8CF982F9554933018F0905204
:10245000933038F424E030E0A20EB31E3FE339831A
:102460000FC0833631F0833781F0833509F05AC0CD
:1024700022C0F5018081898322E030E0A20EB31EE4
:1024800021E0C22ED12C420114C092E0292E312C21
:102490002A0C3B1CF5018080918016FF03C06F2D34
:1024A00070E002C06FEF7FEFC4010E94A6136C01C1
:1024B00051011F7715C082E0282E312C2A0C3B1CBD
:1024C000F5018080918016FF03C06F2D70E002C07F
:1024D0006FEF7FEFC4010E949B136C0110685101E4
:1024E00013FD1CC006C080E290E0B3010E94F1130E
:1024F000EA948E2D90E0C816D906A8F30FC0F40117
:1025000017FD859117FF81914F0190E0B3010E9463
:10251000F113E110EA940894C108D108C114D10460
:1025200071F7E7C0843611F0893651F5F50117FFD0
:1025300007C080819181A281B38124E030E008C08E
:1025400080819181AA2797FDA095BA2F22E030E0E3
:10255000A20EB31E012F0F76B7FF08C0B095A0954D
:10256000909581959F4FAF4FBF4F0068BC01CD0143
:10257000A2012AE030E00E941D14D82ED4183FC0DA
:10258000853721F41F7E2AE030E020C0197F8F3686
:10259000A9F0803720F4883509F0AEC00BC0803731
:1025A00021F0883709F0A8C001C0106114FF09C0EC
:1025B000146007C014FF08C0166006C028E030E0B1
:1025C00005C020E130E002C020E132E0F50117FF54
:1025D00007C0608171818281938144E050E006C030
:1025E0006081718180E090E042E050E0A40EB51E71
:1025F000A2010E941D14D82ED418012F0F7706FFB8
:1026000009C00E7FDF1430F404FF06C002FD04C0D1
:102610000F7E02C01D2D01C01F2D802F90E004FFF2
:102620000CC0FE01ED0DF11D2081203311F4097E57
:1026300009C002FF06C01E5F05C086789070009733
:1026400009F01F5F802E992403FD12C000FF0DC00A
:10265000FD2C1E1550F4FE0CF11A1E2D06C080E252
:1026600090E0B3010E94F1131F5F1E15C0F304C078
:102670001E1510F4E11A01C0EE2484FE0FC080E3A1
:1026800090E0B3010E94F11382FE1FC081FE03C0DF
:1026900088E590E010C088E790E00DC0C40186781E
:1026A0009070009791F081FC02C080E201C08BE243
:1026B00007FD8DE290E0B3010E94F11306C080E3B4
:1026C00090E0B3010E94F113FA94DF14C0F3DA949E
:1026D000F201ED0DF11D808190E0B3010E94F11334
:1026E000DD20A9F706C080E290E0B3010E94F1135B
:1026F000EA94EE20C1F740CEF3018681978102C0B3
:102700008FEF9FEF2D960FB6F894DEBF0FBECDBFB3
:10271000DF91CF911F910F91FF90EF90DF90CF90BD
:10272000BF90AF909F908F907F906F905F904F90F1
:102730003F902F900895FC0105906150704001106A
:10274000D8F7809590958E0F9F1F0895FC016150DA
:10275000704001900110D8F7809590958E0F9F1FC3
:102760000895CF93DF93EC012B8120FF35C026FF26
:1027700009C02F7B2B838E819F8101969F838E833F
:102780008A8128C022FF0FC0E881F98180819927C2
:1027900087FD9095009719F420622B831DC0319618
:1027A000F983E88311C0EA85FB85CE01199597FF6F
:1027B0000BC02B813FEF8F3F930711F480E101C0E5
:1027C00080E2822B8B8308C02E813F812F5F3F4F99
:1027D0003F832E8390E002C08FEF9FEFDF91CF9178
:1027E00008950F931F93CF93DF938C01EB018B819F
:1027F00081FF1BC082FF0DC02E813F818C819D8196
:102800002817390764F4E881F9810193F983E88393
:1028100006C0E885F985802F1995009731F48E81DF
:102820009F8101969F838E8302C00FEF1FEFC80127
:10283000DF91CF911F910F910895FA01AA272830B7
:1028400051F1203181F1E8946F936E7F6E5F7F4F7D
:102850008F4F9F4FAF4FB1E03ED0B4E03CD0670FF9
:10286000781F891F9A1FA11D680F791F8A1F911D4C
:10287000A11D6A0F711D811D911DA11D20D009F49C
:1028800068943F912AE0269F11243019305D3193DE
:10289000DEF6CF010895462F4770405D4193B3E0C7
:1028A0000FD0C9F7F6CF462F4F70405D4A3318F06E
:1028B000495D31FD4052419302D0A9F7EACFB4E01F
:1028C000A6959795879577956795BA95C9F70097D7
:1028D0006105710508959B01AC010A2E0694579578
:1028E000479537952795BA95C9F7620F731F841FCF
:0A28F000951FA01D0895F894FFCF76
:1028FA0043757272656E742074656D706572617469
:10290A007572652069732025642064656772656540
:10291A002E0A2420002564002D2D3E256320003E2A
:10292A0020002420002564206973206120707269C8
:10293A006D65206E756D626572202121210A006322
:10294A006F756E74203D2025640A0024200073757B
:10295A006D203D2025640A006C6F676F75742C200A
:10296A00676F6F64627965202121210020090A0DB1
:10297A000024200074696D657200556E6B6E6F7766
:10298A006E20636F6D6D616E642E2E2E0A242000F8
:10299A000004007072696D6500000000000000000C
:1029AA00000000000000000000000000000000001D
:1029BA00000000760273756D000000000000000040
:1029CA0000000000000000000000000000000000FD
:1029DA000000000000CB027463313034370000007D
:1029EA0000000000000000000000000000000000DD
:1029FA0000000000000000AB0074633737000000DD
:102A0A0000000000000000000000000000000000BC
:102A1A000000000000000000008C072D2D3E2564F8
:102A2A002825642920003E3E200000000000010005
:102A3A00000000000077060000000000020000000D
:102A4A000084060000000001007461736B5F746308
:102A5A0037372829203A2063757272656E745F745D
:102A6A00656D7065726174757265202D3E202564EE
:102A7A00206465677265652E0A2420007461736B91
:102A8A005F746337372829203A20756E6578706538
:102A9A006365746420737461746520696E2074615F
:102AAA00736B5F746337372E2E2E0A242000256439
:102ABA0000000000000000000000010202030303FE
:102ACA0003040404040404040405050505050505B6
:102ADA000505050505050505050606060606060695
:102AEA00060606060606060606060606060606067C
:102AFA000606060606060606060707070707070765
:102B0A00070707070707070707070707070707074B
:102B1A00070707070707070707070707070707073B
:102B2A00070707070707070707070707070707072B
:102B3A000707070707070707070808080808080814
:102B4A0008080808080808080808080808080808FB
:102B5A0008080808080808080808080808080808EB
:102B6A0008080808080808080808080808080808DB
:102B7A0008080808080808080808080808080808CB
:102B8A0008080808080808080808080808080808BB
:102B9A0008080808080808080808080808080808AB
:102BAA00080808080808080808080808080808089B
:102BBA000808080808080808080000140620000089
:00000001FF
