:100000000C9472000C9494000C9494000C94940042
:100010000C9494000C9494000C9494000C94940010
:100020000C9494000C9494000C9494000C94940000
:100030000C9494000C9494000C9494000C949400F0
:100040000C9494000C9494000C9494000C949400E0
:100050000C9494000C9494000C9494000C949400D0
:100060000C9494000C9432010C9494000C94ED00C8
:100070000C9494000C9494000C9494000C949400B0
:100080000C9494000C9494000C9494000C949400A0
:100090000C9494000C9494000C9494000C94940090
:1000A0000C9494000C9494000C9494000C94940080
:1000B0000C9494000C9494000C9494000C94940070
:1000C0000C9494000C9494000C9494000C94940060
:1000D0000C9494000C9494000C9494000C94940050
:1000E0000C94940011241FBECFEFD1E2DEBFCDBF30
:1000F00000E00CBF12E0A0E0B2E0E8EAF1E100E0CD
:100100000BBF02C007900D92A03AB107D9F71BBEF2
:1001100013E0A0EAB2E001C01D92A733B107E1F7F6
:100120000E945D030C94D2080C940000F8940E9485
:10013000050278948823D1F3843011F090E008957B
:100140008FEF9FEF0895CF93C82F8A3019F48DE079
:100150000E94A300F8948091A402882359F4C093CC
:10016000C60081E08093A4020AC0789486EF8A9545
:10017000F1F7F8948C2F0E9422020097B1F3789443
:1001800081E090E0CF9108958DE492E09093320366
:10019000809331038BE592E0909334038093330393
:1001A0001092A4020E94D2011092C50087E08093B1
:1001B000C400E0ECF0E0808182608083E1ECF0E05C
:1001C0008081886080838081806480838081806179
:1001D000808380818068808308951F920F920FB67C
:1001E0000F920BB60F9211242F933F934F935F936F
:1001F0006F937F938F939F93AF93BF93EF93FF93EF
:100200000E944402882319F41092A40202C0809331
:10021000C600FF91EF91BF91AF919F918F917F9118
:100220006F915F914F913F912F910F900BBE0F9067
:100230000FBE0F901F901895CF93C82F8A3019F4D6
:100240008DE00E941C018091A402882331F4C093A8
:10025000C60081E08093A40203C08C2F0E9422027A
:10026000CF9108951F920F920FB60F920BB60F9277
:1002700011242F933F934F935F936F937F938F93AB
:100280009F93AF93BF93CF93EF93FF93C091C6001B
:10029000C43031F0CD3009F4CAE08C2F0E941C012B
:1002A0008C2F0E94E301FF91EF91CF91BF91AF910D
:1002B0009F918F917F916F915F914F913F912F917E
:1002C0000F900BBE0F900FBE0F901F901895CF93FD
:1002D000DF93FC0162E070E00E94BF03EB0122E0CB
:1002E00030E008C0CF01B9010E94BF03009741F080
:1002F0002F5F3F4FC217D307ACF781E090E002C0F9
:1003000080E090E0DF91CF910895CF92DF92EF925D
:10031000FF920F931F93CF93DF93009721F00E94DA
:1003200015057C0104C090EDE92E97E0F92E00E060
:1003300010E0C2E0D0E089E6C82E82E0D82E16C0D8
:10034000CE010E946701009781F00F5F1F4F00D020
:100350000F92EDB7FEB7D282C182D483C3830E94CD
:10036000A4050F900F900F900F902196EC16FD06AC
:100370003CF700D00F9283E892E0EDB7FEB792838E
:100380008183148303830E94A4050F900F900F9024
:100390000F90DF91CF911F910F91FF90EF90DF9021
:1003A000CF9008951092EA021092E9021092E802AA
:1003B0001092E7021092EC021092EB021092A60249
:1003C0001092A5020895482F2091EB023091EC0283
:1003D0002F5F3F4FC90160E470E00E94BF039C01A2
:1003E0008091A5029091A6022817390759F0309301
:1003F000EC022093EB0223513D4FF901408381E051
:1004000090E0089580E090E008958091A502909199
:10041000A6022091EB023091EC022817390779F0FF
:10042000019660E470E00E94BF039093A60280935F
:10043000A50283519D4FFC01808190E0089580E0EA
:1004400090E00895482F2091E9023091EA022F5F51
:100450003F4FC90160E470E00E94BF039C0180919E
:10046000E7029091E8022817390759F03093EA0221
:100470002093E90229553D4FF901408381E090E046
:10048000089580E090E008958091E7029091E8025D
:100490002091E9023091EA022817390779F0019694
:1004A00060E470E00E94BF039093E8028093E7024B
:1004B00089559D4FFC01808190E0089580E090E097
:1004C000089584E090E00E94E60308950E947C0471
:1004D0000895FC018091A0029091A102009739F447
:1004E000F093A102E093A0021382128208959383F5
:1004F0008283F093A102E093A0020895E091A0020C
:10050000F091A102309731F49093A1028093A00260
:1005100008C0F9012281338121153105D1F7938378
:100520008283FC01138212820895CF93DF93FC0132
:100530002091A0023091A1022115310531F04081B6
:100540005181D901C0E0D0E00FC09093A102809307
:10055000A002138212821DC012968D919C91139756
:10056000ED01009739F0DC018D919C911197841772
:10057000950794F3209739F433832283F093A102F3
:10058000E093A00206C08A819B8193838283FB83D0
:10059000EA83DF91CF9108950F931F93CF93DF9359
:1005A0008AE090E00E94B605C091A002D091A1021D
:1005B0000FE812E013C000D00F92EDB7FEB7128320
:1005C000018388819981948383830E94A4050A8092
:1005D000DB81C02D0F900F900F900F908A819B812F
:1005E000009749F78AE090E00E94B605DF91CF912D
:1005F0001F910F91089509C0FC012281338130932E
:10060000A1022093A0020E947C048091A0029091FC
:10061000A102009789F70895EF92FF921F93CF935D
:10062000DF93CDB7DEB728970FB6F894DEBF0FBEC5
:10063000CDBF009719F0FC01108101C011E686E9D9
:10064000E82E82E0F82E0F920F92EDB7FEB7F282FD
:10065000E1820E94A4050F900F90409131035091C8
:100660003203CE01019668E070E00E9470050097A9
:10067000A1F00E9461022981FC01208311821836B9
:1006800019F0143739F403C00E946902DCCF0E94CC
:100690007E02D9CF0E949502D6CF0E94CC020E9442
:1006A000FB0228960FB6F894DEBF0FBECDBFDF91D8
:1006B000CF911F91FF90EF900895CF93DF93CDB727
:1006C000DEB7C058D0400FB6F894DEBF0FBECDBF26
:1006D0000E94C400789480E0C82E82E0D82E0F9249
:1006E0000F92EDB7FEB7D282C1820E94A4050F908F
:1006F0000F904091310350913203CE01019660E892
:1007000070E00E9470050097A9F1CE01019663E0A8
:1007100072E00E9433058C01009709F380E090E0BD
:1007200063E072E00E9433057C01C80169E072E079
:100730000E943805009721F4C7010E948501CFCFA0
:10074000C8016FE072E00E943805009721F4C701EC
:100750000E940C03C4CFC80164E172E00E94380516
:10076000009719F488E192E002C086E292E00E94CC
:10077000BD05B5CF89E392E00E94BD05FFCF97FB91
:10078000092E07260AD077FD04D00CD006D0002011
:100790001AF4709561957F4F0895F6F790958195BD
:1007A0009F4F0895AA1BBB1B51E107C0AA1FBB1F87
:1007B000A617B70710F0A61BB70B881F991F5A95ED
:1007C000A9F780959095BC01CD010895CF93DF9353
:1007D000AC018230910510F442E050E0E0912F032B
:1007E000F091300320E030E0A0E0B0E024C0808150
:1007F000918184179507D0F08417950771F4828151
:100800009381109729F013969C938E9312972CC086
:100810009093300380932F0327C02115310519F0E1
:100820008217930718F49C01BD01EF019281838127
:10083000DF01E92FF82F3097D1F621153105F9F0B6
:10084000C901841B950B8430910580F48A819B81BA
:100850006115710521F0FB019383828304C090939D
:10086000300380932F03FE01329642C0FE01E80F51
:10087000F91F4193519302979983888339C08091DE
:100880002D0390912E03009741F480919B0290914B
:100890009C0290932E0380932D0320919902309116
:1008A0009A022115310541F42DB73EB780919D0282
:1008B00090919E02281B390BE0912D03F0912E039D
:1008C000E217F30798F42E1B3F0B2417350770F03F
:1008D000CA0102962817390748F08E0F9F1F909380
:1008E0002E0380932D034193519302C0E0E0F0E08A
:1008F000CF01DF91CF9108950F931F93CF93DF9393
:100900009C01009709F48CC0DC01129713961C928D
:100910001E92129760912F0370913003611571053B
:1009200089F48D919C911197820F931F20912D0333
:1009300030912E032817390769F5B0932E03A09341
:100940002D036EC0FB0140E050E001C0FC01EA173E
:10095000FB0730F482819381AF010097B9F71FC084
:10096000E9012297FB83EA8308811981C901800F7D
:10097000911F8E179F0759F480819181800F911FDD
:10098000029699838883828193819B838A83411510
:10099000510529F4B0933003A0932F0341C0FA010D
:1009A000B383A283C191D191EC0FFD1FAE17BF0796
:1009B00081F4F901929182918C0F9D1F0296DA01C8
:1009C00011969C938E938281938113969C938E9320
:1009D0001297E0E0F0E002C0FB01BC01DB011296DF
:1009E0008D919C9113970097B9F7CB0102962D91A9
:1009F0003C911197820F931F20912D0330912E036C
:100A00002817390769F4309729F4109230031092AF
:100A10002F0302C01382128270932E0360932D0362
:100A2000DF91CF911F910F910895FC01882799279D
:100A3000E89421912032E9F3293010F02E30C8F3E8
:100A40002B3241F02D3239F4689404C00E946805BD
:100A5000820F911D219120532A30C0F31EF49095EE
:100A600081959F4F089542EA52E00E944105089502
:100A7000FB01DC018D91019080190110D9F3990BD4
:100A80000895FA01A191B081009719F41097E1F04F
:100A9000CD01DC01CD010D90002011F4C00113C087
:100AA000FB012191222319F02015D9F7F3CFFB0187
:100AB0002191201519F41E92119606C02223C1F728
:100AC0000D900020A1F7D001FA01A193B083089501
:100AD0007AE0979F902D879F802D910D1124089586
:100AE000CF92DF92EF92FF920F931F93CF93DF93FA
:100AF0008C016A01FA01838180FF1AC0161617065D
:100B0000BCF47B01E8010EC0C6010E940808FFEF9B
:100B10008F3F9F0769F089930894E108F1088A30B4
:100B2000910521F021E0E216F10471F7188202C06C
:100B300000E010E0C801DF91CF911F910F91FF906D
:100B4000EF90DF90CF900895CF93DF93CDB7DEB7CE
:100B5000FE01369661917191809133039091340337
:100B6000AF010E94EB05DF91CF91089560913303AF
:100B7000709134030E94480808950F931F93CF93F8
:100B8000DF938C01E0913303F0913403838181FF83
:100B90001AC0C0E0D0E005C01995009711F0CFEF62
:100BA000DFEFF80181918F0160913303709134037D
:100BB000DB011896ED91FC911997882369F78AE07B
:100BC0001995009711F0CFEFDFEFCE01DF91CF91B4
:100BD0001F910F9108952F923F924F925F926F92C3
:100BE0007F928F929F92AF92BF92CF92DF92EF92BD
:100BF000FF920F931F93CF93DF93CDB7DEB72D975F
:100C00000FB6F894DEBF0FBECDBF3C017D876C8769
:100C10005A01FC0117821682838181FFC8C12E010F
:100C20000894411C511CF3019381EC85FD8593FDD3
:100C3000859193FF8191FD87EC87882309F4B3C1E7
:100C4000853241F493FD859193FF8191FD87EC8777
:100C5000853229F490E0B3010E944808E4CFFF24D4
:100C6000EE2410E01032B0F48B3269F08C3228F4AC
:100C7000803251F0833271F40BC08D3239F0803301
:100C800049F411602CC01260146029C0186027C09C
:100C9000106125C017FD2EC0282F20532A3098F44C
:100CA00016FF08C08F2D880FF82EFF0CFF0CF80ED2
:100CB000F20E15C08E2D880FE82EEE0CEE0CE80E0D
:100CC000E20E10620CC08E3221F416FD6CC110646D
:100CD00006C08C3611F4106802C0883659F4EC85D1
:100CE000FD8593FD859193FF8191FD87EC87882396
:100CF00009F0B8CF982F9554933018F09052933054
:100D000038F424E030E0A20EB31E3FE339830FC075
:100D1000833631F0833781F0833509F05AC022C021
:100D2000F5018081898322E030E0A20EB31E21E02C
:100D3000C22ED12C420114C092E0292E312C2A0C53
:100D40003B1CF5018080918016FF03C06F2D70E081
:100D500002C06FEF7FEFC4010E94FD076C015101DB
:100D60001F7715C082E0282E312C2A0C3B1CF50180
:100D70008080918016FF03C06F2D70E002C06FEF7E
:100D80007FEFC4010E94F2076C011068510113FD4E
:100D90001CC006C080E290E0B3010E944808EA94BB
:100DA0008E2D90E0C816D906A8F30FC0F40117FDE8
:100DB000859117FF81914F0190E0B3010E9448088F
:100DC000E110EA940894C108D108C114D10471F764
:100DD000E7C0843611F0893651F5F50117FF07C0D9
:100DE00080819181A281B38124E030E008C08081BC
:100DF0009181AA2797FDA095BA2F22E030E0A20E9C
:100E0000B31E012F0F76B7FF08C0B095A09590953F
:100E100081959F4FAF4FBF4F0068BC01CD01A2012C
:100E20002AE030E00E947408D82ED4183FC08537DD
:100E300021F41F7E2AE030E020C0197F8F36A9F010
:100E4000803720F4883509F0AEC00BC0803721F020
:100E5000883709F0A8C001C0106114FF09C01460F0
:100E600007C014FF08C0166006C028E030E005C0C7
:100E700020E130E002C020E132E0F50117FF07C0B9
:100E8000608171818281938144E050E006C060817D
:100E9000718180E090E042E050E0A40EB51EA20116
:100EA0000E947408D82ED418012F0F7706FF09C0AE
:100EB0000E7FDF1430F404FF06C002FD04C00F7E75
:100EC00002C01D2D01C01F2D802F90E004FF0CC01B
:100ED000FE01ED0DF11D2081203311F4097E09C0C2
:100EE00002FF06C01E5F05C086789070009709F06B
:100EF0001F5F802E992403FD12C000FF0DC0FD2C42
:100F00001E1550F4FE0CF11A1E2D06C080E290E072
:100F1000B3010E9448081F5F1E15C0F304C01E15D0
:100F200010F4E11A01C0EE2484FE0FC080E390E0CB
:100F3000B3010E94480882FE1FC081FE03C088E5FD
:100F400090E010C088E790E00DC0C40186789070F2
:100F5000009791F081FC02C080E201C08BE207FDA6
:100F60008DE290E0B3010E94480806C080E390E063
:100F7000B3010E944808FA94DF14C0F3DA94F20136
:100F8000ED0DF11D808190E0B3010E944808DD2045
:100F9000A9F706C080E290E0B3010E944808EA94F5
:100FA000EE20C1F740CEF3018681978102C08FEF1A
:100FB0009FEF2D960FB6F894DEBF0FBECDBFDF9129
:100FC000CF911F910F91FF90EF90DF90CF90BF9046
:100FD000AF909F908F907F906F905F904F903F90D9
:100FE0002F900895FC010590615070400110D8F7D2
:100FF000809590958E0F9F1F0895FC016150704061
:1010000001900110D8F7809590958E0F9F1F08953D
:10101000CF93DF93EC012B8120FF35C026FF09C061
:101020002F7B2B838E819F8101969F838E838A8164
:1010300028C022FF0FC0E881F9818081992787FDB0
:101040009095009719F420622B831DC03196F98387
:10105000E88311C0EA85FB85CE01199597FF0BC087
:101060002B813FEF8F3F930711F480E101C080E2B5
:10107000822B8B8308C02E813F812F5F3F4F3F83A0
:101080002E8390E002C08FEF9FEFDF91CF91089504
:101090000F931F93CF93DF938C01EB018B8181FF23
:1010A0001BC082FF0DC02E813F818C819D8128173E
:1010B000390764F4E881F9810193F983E88306C074
:1010C000E885F985802F1995009731F48E819F81ED
:1010D00001969F838E8302C00FEF1FEFC801DF913F
:1010E000CF911F910F910895FA01AA27283051F14D
:1010F000203181F1E8946F936E7F6E5F7F4F8F4F49
:101100009F4FAF4FB1E03ED0B4E03CD0670F781FA7
:10111000891F9A1FA11D680F791F8A1F911DA11D8C
:101120006A0F711D811D911DA11D20D009F46894C5
:101130003F912AE0269F11243019305D3193DEF66D
:10114000CF010895462F4770405D4193B3E00FD023
:10115000C9F7F6CF462F4F70405D4A3318F0495D0E
:1011600031FD4052419302D0A9F7EACFB4E0A695F1
:101170009795879577956795BA95C9F70097610513
:10118000710508959B01AC010A2E06945795479569
:1011900037952795BA95C9F7620F731F841F951F5E
:0811A000A01D0895F894FFCF93
:1011A8002420000A0D092020007072696D65006C0A
:1011B8006973740077686F004920616D204A484B55
:1011C800494D2E2E2E00556E6B6E6F776E20636F15
:1011D8006D6D616E642E2E2E006C6F676F75742CAA
:1011E80020676F6F6462796520212121000000006B
:1011F800010000000000009600000000000002004E
:10120800000000A30000000000256420697320612D
:10121800207072696D65206E756D6265722021217E
:10122800210A00636F756E74203D2025640A002D25
:101238002D3E256320003E200000003703200000DB
:00000001FF
