:100000000C9472000C9494000C9494000C94940042
:100010000C9494000C9494000C9494000C94940010
:100020000C9494000C9494000C9494000C94940000
:100030000C9494000C9494000C9494000C9461071C
:100040000C9494000C9494000C9494000C949400E0
:100050000C9494000C9494000C9494000C949400D0
:100060000C94DE020C9432080C9494000C94ED076E
:100070000C9494000C94AB000C9494000C94940099
:100080000C9494000C9494000C9494000C949400A0
:100090000C9494000C9494000C9494000C94940090
:1000A0000C9494000C9494000C9494000C94940080
:1000B0000C9494000C9494000C9494000C94940070
:1000C0000C9494000C9494000C9494000C94940060
:1000D0000C9494000C9494000C9494000C94940050
:1000E0000C94940011241FBECFEFD1E2DEBFCDBF30
:1000F00000E00CBF15E0A0E0B2E0EAE9FAE200E0BF
:100100000BBF02C007900D92AC39B107D9F71BBEE7
:1001100016E0ACE9B5E001C01D92A03EB107E1F7E1
:100120000E94740F0C944B150C940000809880E88A
:1001300080937C000895EAE7F0E080818068808306
:100140008DED90E00197F1F7808188608083808158
:100150008064808308951F920F920FB60F920BB6A2
:100160000F9211240F931F932F933F934F935F93FD
:100170006F937F938F939F93AF93BF93EF93FF936F
:10018000CF93DF93CDB7DEB72897DEBFCDBF809189
:10019000780090917900EAE7F0E020812F772083C2
:1001A00000D000D0EDB7FEB731968E010F5F1F4F24
:1001B000ADB7BEB712961C930E93119720E032E0B4
:1001C000338322839370958384830E9435128DB785
:1001D0009EB706960FB6F8949EBF0FBE8DBFC8019E
:1001E0000E946E042896DEBFCDBFDF91CF91FF91B4
:1001F000EF91BF91AF919F918F917F916F915F919F
:100200004F913F912F911F910F910F900BBE0F9027
:100210000FBE0F901F90189584E090E00E9403108D
:1002200008950E9499100895FC0180919C05909179
:100230009D05009739F4F0939D05E0939C0513828A
:100240001282089593838283F0939D05E0939C0529
:100250000895E0919C05F0919D05309731F49093BD
:100260009D0580939C0508C0F901228133812115E9
:100270003105D1F793838283FC01138212820895A2
:10028000CF93DF93FC0120919C0530919D052115B2
:10029000310531F040815181D901C0E0D0E00FC07B
:1002A00090939D0580939C05138212821DC0129627
:1002B0008D919C911397ED01009739F0DC018D91A0
:1002C0009C9111978417950794F3209739F4338301
:1002D0002283F0939D05E0939C0506C08A819B8153
:1002E00093838283FB83EA83DF91CF9108950F93F9
:1002F0001F93CF93DF938AE090E00E940012C09199
:100300009C05D0919D0503E012E013C000D00F9230
:10031000EDB7FEB71283018388819981948383832B
:100320000E94EE110A80DB81C02D0F900F900F907C
:100330000F908A819B81009749F78AE090E00E94A4
:100340000012DF91CF911F910F91089509C0FC0118
:100350002281338130939D0520939C050E94991042
:1003600080919C0590919D05009789F70895EF92E3
:10037000FF921F93CF93DF93CDB7DEB728970FB6C9
:10038000F894DEBF0FBECDBF009719F0FC011081BD
:1003900001C011E68AE0E82E82E0F82E0F920F925B
:1003A000EDB7FEB7F282E1820E94EE110F900F903E
:1003B0004091DA065091DB06CE01019668E070E0CC
:1003C0000E9494110097A1F00E940C012981FC0168
:1003D00020831182183619F0143739F403C00E94B3
:1003E0001401DCCF0E942901D9CF0E944001D6CF51
:1003F0000E9477010E94A60128960FB6F894DEBFEE
:100400000FBECDBFDF91CF911F91FF90EF90089568
:10041000CF93DF93FC0162E070E00E94A50FEB0137
:1004200022E030E008C0CF01B9010E94A50F00977B
:1004300041F02F5F3F4FC217D307ACF781E090E048
:1004400002C080E090E0DF91CF9108951092EE0518
:100450001092ED051092EC051092EB051092F0054C
:100460001092EF051092AA051092A9050895482F41
:100470002091EF053091F0052F5F3F4FC90160E4F7
:1004800070E00E94A50F9C018091A9059091AA059A
:100490002817390759F03093F0052093EF052F50B6
:1004A0003A4FF901408381E090E0089580E090E0C8
:1004B00008958091A9059091AA052091EF053091AA
:1004C000F0052817390779F0019660E470E00E9482
:1004D000A50F9093AA058093A9058F509A4FFC0110
:1004E000808190E0089580E090E00895482F209169
:1004F000ED053091EE052F5F3F4FC90160E470E0DC
:100500000E94A50F9C018091EB059091EC052817A6
:10051000390759F03093EE052093ED0525553A4FF4
:10052000F901408381E090E0089580E090E0089533
:100530008091EB059091EC052091ED053091EE0551
:100540002817390779F0019660E470E00E94A50F42
:100550009093EC058093EB0585559A4FFC018081C3
:1005600090E0089580E090E008958091A905909131
:10057000AA052091EF053091F0058217930759F0F5
:10058000019660E470E00E94A50F8F509A4FFC0125
:10059000808190E0089580E090E00895209A219A6B
:1005A000229A23988DB581608DBD80ED8CBD089514
:1005B00028980895289A08958EBD08951F920F9245
:1005C0000FB60F920BB60F9211242F933F934F93B8
:1005D0005F936F937F938F939F93AF93BF93EF93AB
:1005E000FF93CF93DF93CDB7DEB72A97DEBFCDBFA2
:1005F0002EB585E094E09A83898300D000D0EDB7D2
:10060000FEB73196CE010396ADB7BEB712969C9356
:100610008E93119780E192E09383828324831582E5
:100620000E9435128DB79EB706960FB6F8949EBFFE
:100630000FBE8DBFCE0101960E94F8042A96DEBF40
:10064000CDBFDF91CF91FF91EF91BF91AF919F917E
:100650008F917F916F915F914F913F912F910F906B
:100660000BBE0F900FBE0F901F901895009719F0BA
:100670000E94321102C084E690E040E050E021E0A8
:1006800030E004C0420F531F2F5F3F4F8217930784
:10069000CCF700D00F9283E192E0EDB7FEB79283E2
:1006A0008183548343830E94EE110F900F908DE15C
:1006B00092E0EDB7FEB7928381830E94EE110F9016
:1006C0000F900895CF92DF92EF92FF920F931F93B6
:1006D000CF93DF93009721F00E9432117C0104C078
:1006E00090EDE92E97E0F92E00E010E0C2E0D0E0B6
:1006F00080E2C82E82E0D82E16C0CE010E940802E9
:10070000009781F00F5F1F4F00D00F92EDB7FEB73B
:10071000D282C182D483C3830E94EE110F900F90C6
:100720000F900F902196EC16FD063CF700D00F922B
:100730008AE392E0EDB7FEB792838183148303834B
:100740000E94EE110F900F908DE192E0EDB7FEB791
:10075000928381830E94EE110F900F90DF91CF91D1
:100760001F910F91FF90EF90DF90CF900895CF935E
:10077000DF930E94B80880E90E94D208882329F0FC
:100780000E94C50886E492E015C080E00E94D2086D
:10079000882329F00E94C5088DE692E00BC00E94D4
:1007A000B80881E90E94D208882339F00E94C50860
:1007B00086E992E00E94071225C080E00E94FA08B4
:1007C000C82F81E00E94FA083C2F20E0C82FD0E01B
:1007D000C22BD32BCC0FCD2FCC1FDD0B0E94C50815
:1007E00000D00F928DEB92E0EDB7FEB7928381833C
:1007F000D695C795D483C3830E94EE110F900F90B6
:100800000F900F90DF91CF910895CF93DF93FC016C
:100810002081222331F481E08093A2050E94D80236
:1008200011C02091A205213021F0223009F045C0ED
:100830000DC00E9432111092A3058093A40582E09E
:100840008093A20580E00E94DC0245C0C091A30510
:10085000D091A4050E943211C82BD92B63E0D69504
:10086000C7956A95E1F7BE0180E090E00E94070D10
:1008700020E030E040E85DE30E940D0B0E9420097B
:10088000DC01CB019093A4058093A3050E94DA02BA
:1008900000D00F9285EF92E0EDB7FEB7928381838F
:1008A0008091A3059091A405948383830E94EE1107
:1008B0000F900F900F900F900EC00E94DA020F92CF
:1008C0000F9288E293E0EDB7FEB7928381830E9496
:1008D000EE110F900F90DF91CF910895FC012081D0
:1008E000222319F50E949B0081E090E090939F05E0
:1008F00080939E0580919E0590919F050097D1F76A
:1009000000D00F928AE593E0EDB7FEB79283818322
:100910008091A0059091A105948383830E94EE119C
:100920000F900F900F900F9008950E9432119C012C
:10093000B901882777FD8095982F0E943F0C29E008
:1009400030EF4CE85AE30E940D0B20E030E04AE71C
:1009500054E40E940D0B0E94B60CDC01CB01845FB5
:1009600091406AE070E00E94A50F7093A10560932A
:10097000A00510929F0510929E050895EF92FF9298
:100980000F931F93CF93DF937C0100E010E017C01B
:10099000E801CC0FDD1FC801E5E0880F991FEA953B
:1009A000E1F7C80FD91FCB54DC4FC701BE010E942D
:1009B0005511009711F4CE010BC00F5F1F4F8091AE
:1009C000B3039091B4030817190714F380E090E083
:1009D000DF91CF911F910F91FF90EF9008951092AA
:1009E0003206109231061092D4061092D306089562
:1009F000CF93DF93482FE92F8091310690913206F3
:100A0000C091D306D091D406019620E130E0B9011F
:100A10000E94A50F8C179D0731F1809131069091AE
:100A200032060196B9010E94A50F90933206809379
:100A300031068091310690913206DC01AA0FBB1F6E
:100A4000C3E0880F991FCA95E1F7A80FB91FAD5CE5
:100A5000B94FC42FDE2F8AE009900D928150E1F743
:100A600081E090E002C080E090E0DF91CF910895B6
:100A70009C0140913106509132068091D3069091AD
:100A8000D4064817590731F18091D3069091D406C6
:100A9000019660E170E00E94A50F9093D4068093C8
:100AA000D3068091D3069091D406FC01EE0FFF1F70
:100AB00053E0880F991F5A95E1F7E80FF91FD90104
:100AC000ED5CF94F8AE001900D928150E1F781E0F1
:100AD00090E0089580E090E00895AF92BF92CF92A9
:100AE000DF92EF92FF920F931F93CF93DF93CDB7D7
:100AF000DEB7CA54D0400FB6F894DEBF0FBECDBFEC
:100B00000E949A08009709F48EC0CE010B960E94AD
:100B1000C811009729F48DE793E00E940712FFCFD8
:100B2000CE010B9661E973E00E9450118C0180E0C8
:100B300090E061E973E00E9450117C0180E090E058
:100B400061E973E00E9450116C0180E090E061E97E
:100B500073E00E9450115C010115110529F40F92F8
:100B60000F928DE192E047C0C80166E973E00E94F0
:100B700055110097B9F5E114F10419F0C114D1042D
:100B800061F40F920F928CE993E0EDB7FEB7928378
:100B900081830E94EE110F900F90C7010E943211C5
:100BA0008C01C6010E94BE04009709F1FC0180A1DE
:100BB00091A19A838983CE010396A114B10411F007
:100BC000B50102C062EB73E00E945E11F894C801A7
:100BD00060E071E00E94A50FCE0101960E942A06F6
:100BE000789421C0C8010E94BE04009779F40F9246
:100BF0000F928CE993E0ADB7BEB712969C938E939B
:100C000011970E94EE110F900F900DC0DC0190968D
:100C1000ED91FC919197C114D10411F0C70102C06C
:100C200082EB93E01995C65BDF4F0FB6F894DEBFF9
:100C30000FBECDBFDF91CF911F910F91FF90EF902D
:100C4000DF90CF90BF90AF9008958EE090E00E942B
:100C500003100895EF92FF920F931F93CF93DF93AA
:100C6000F82EE92E8B010E942506EC01DC0112967C
:100C7000EF2DFE2D8AE001900D928150E1F719834E
:100C80000883E091A505F091A605309729F4D0934B
:100C9000A605C093A5052FC040E050E020E030E05D
:100CA00001C0FD0180819181280F391F2017310774
:100CB00034F4A485B585AF01109799F701C0DF0121
:100CC0004115510579F48D919C911197801B910BE1
:100CD00011969C938E93BD87AC87D093A605C09345
:100CE000A50524C0109751F4021B130B1983088328
:100CF000FA01D587C4871D861C8618C08D919C91EA
:100D00001197B901681B790B9801261B370B3983A2
:100D100028838D919C911197821B930B11969C9324
:100D20008E93FA01D587C487BD87AC87DF91CF91B9
:100D30001F910F91FF90EF900895EF92FF920F9304
:100D40001F93CF93DF938AE090E00E940012C0913E
:100D5000A505D091A60500E010E08FE5E82E84E01F
:100D6000F82E20C088819981080F191F00D000D06B
:100D7000EDB7FEB73196ADB7BEB71296FC92EE92C4
:100D8000119793838283158304830E94EE110C8450
:100D9000DD85C02D8DB79EB706960FB6F8949EBF21
:100DA0000FBE8DBF2097F1F68AE090E00E940012FE
:100DB000DF91CF911F910F91FF90EF90089509C09F
:100DC000FC01248535853093A6052093A5050E9456
:100DD00099108091A5059091A605009789F708952F
:100DE0000F931F93CF93DF93CDB7DEB762970FB604
:100DF000F894DEBF0FBECDBF0AE614E00F920F924B
:100E0000EDB7FEB7128301830E94EE110F900F9091
:100E10004091DA065091DB06CE01019668E070E061
:100E20000E949411009761F0CE0101960E94321148
:100E3000BC01009729F0CE0109960E942A06DECF58
:100E40000E949D060E94DF0662960FB6F894DEBFF0
:100E50000FBECDBFDF91CF911F910F9108951092DA
:100E6000B200E6EBF0E0808180628083E0E7F0E0B2
:100E7000808181608083E1EBF0E08081816080830C
:100E80008081826080830895CF93DF930DC08C852D
:100E90009D859093A6058093A505CE0102960E949C
:100EA000F804CE010E949910C091A505D091A60525
:100EB000209721F088819981009749F3DF91CF91A4
:100EC00008951F920F920FB60F920BB60F92112436
:100ED0002F933F934F935F936F937F938F939F9342
:100EE000AF93BF93EF93FF93E091A505F091A60513
:100EF000309749F080819181019791838083009799
:100F000011F40E944407FF91EF91BF91AF919F911F
:100F10008F917F916F915F914F913F912F910F90A2
:100F20000BBE0F900FBE0F901F901895F8940E9463
:100F3000590278948823D1F3843011F090E0089519
:100F40008FEF9FEF0895CF93C82F8A3019F48DE06B
:100F50000E94A307F8948091D506882359F4C09382
:100F6000C60081E08093D5060AC0789486EF8A9502
:100F7000F1F7F8948C2F0E9476020097B1F37894E1
:100F800081E090E0CF9108958FE694E09093DB06A6
:100F90008093DA068DE794E09093DD068093DC067B
:100FA0001092D5060E9426021092C50087E0809319
:100FB000C400E0ECF0E0808182608083E1ECF0E04E
:100FC000808188608083808180648083808180616B
:100FD000808380818068808308951F920F920FB66E
:100FE0000F920BB60F9211242F933F934F935F9361
:100FF0006F937F938F939F93AF93BF93EF93FF93E1
:101000000E949802882319F41092D50602C080939A
:10101000C600FF91EF91BF91AF919F918F917F910A
:101020006F915F914F913F912F910F900BBE0F9059
:101030000FBE0F901F901895CF93C82F8A3019F4C8
:101040008DE00E941C088091D506882331F4C0935E
:10105000C60081E08093D50603C08C2F0E947602E3
:10106000CF9108951F920F920FB60F920BB60F9269
:1010700011241F932F933F934F935F936F937F930D
:101080008F939F93AF93BF93EF93FF93CF93DF9390
:10109000CDB7DEB72A97DEBFCDBF1091C6001B319A
:1010A00061F480918B0490918C0401968170907012
:1010B00090938C0480938B0424C0143069F01D300D
:1010C00009F41AE020918B0430918C04211531052C
:1010D00019F0812F0E941C08812F0E9437021430C2
:1010E00011F01A3071F48DE695E09A838983CE0170
:1010F00003966EE674E00E945E11CE0101960E9496
:10110000F8042A96DEBFCDBFDF91CF91FF91EF911A
:10111000BF91AF919F918F917F916F915F914F910F
:101120003F912F911F910F900BBE0F900FBE0F900C
:101130001F9018950E94B5020895519A599A509A95
:10114000589AA1E0B1E08C9182608C93E2E0F1E0EA
:1011500080818D7F80838C9188608C938081877F54
:1011600080838C9180628C9380818F7D80830895B1
:101170005898599A00000000589A000000005998A9
:1011800082E08A95F1F700C00895589859980000B8
:101190000000589A00000000599A82E08A95F1F701
:1011A00000C00895519A28E030E090E85898000077
:1011B0000000492F482311F0599A01C0599842E084
:1011C0004A95F1F700C0589A42E04A95F1F700C0FD
:1011D00096952150304051F75198589882E08A9561
:1011E000F1F700C0589A42E04A95F1F700C089B182
:1011F00082700895282F519898E080E0589832E046
:101200003A95F1F700C0589A32E03A95F1F700C0EC
:10121000880F49998160915089F7519A5898000038
:101220000000222311F0599A01C0599892E09A9532
:10123000F1F700C0589A32E03A95F1F700C00895EE
:10124000CF92DF92EF92FF920F931F936B017C017D
:1012500020E030E040E05FE40E940E0C87FD11C00A
:10126000C701B60120E030E040E05FE40E94D50A0B
:101270000E94B60C8B019C01005010402040304869
:1012800006C0C701B6010E94B60C8B019C01B801D3
:10129000C9011F910F91FF90EF90DF90CF900895BB
:1012A000A0E0B0E0E6E5F9E00C94CE0FEC014B01D4
:1012B000FA018881823008F43EC1DB019C919230B2
:1012C00008F436C1843059F4943009F034C199815E
:1012D00011968C911197981709F027C12CC1943061
:1012E00009F426C19230A9F4823009F024C1CE015C
:1012F00028E0DC010D90CD01DA010D92AD01215005
:10130000C1F7D40111968C9111979981892381831A
:1013100011C1823009F40CC1AA80BB80DB01129696
:101320004D915C911397CC80DD80EE80FF80149608
:101330000D911D912D913C911797C501841B950B23
:10134000DC0197FF04C0AA27BB27A81BB90BA0325A
:10135000B1050CF067C01816190684F5280139018B
:101360000A2E04C076946794579447940A94D2F74F
:1013700041E050E060E070E004C0440F551F661F7C
:10138000771FAA95D2F741505040604070404023EB
:1013900051236223732381E090E0A0E0B0E0411587
:1013A00051056105710519F480E090E0DC018C01C4
:1013B0009D0104291529262937293FC00097E9F105
:1013C000AA0EBB1E260137010A2E04C0769467942C
:1013D000579447940A94D2F741E050E060E070E0FF
:1013E00004C0440F551F661F771FAA95D2F74150BE
:1013F0005040604070404C215D216E217F2181E092
:1014000090E0A0E0B0E0411551056105710519F4C7
:1014100080E090E0DC016C017D01C428D528E6283D
:10142000F7280BC04A155B0524F400E010E0980192
:1014300004C05A01CC24DD2476018981D40111969F
:101440009C911197891709F445C0882329F00C193C
:101450001D092E093F0908C0D701C601801B910B49
:10146000A20BB30B8C019D0137FD04C01182B38226
:10147000A2820BC081E08183B382A2823095209545
:10148000109501951F4F2F4F3F4F048315832683DF
:1014900037830DC0880F991FAA1FBB1F84839583B4
:1014A000A683B7838281938101979383828384810A
:1014B0009581A681B781AC01BD014150504060408B
:1014C00070404F3F2FEF52072FEF62072FE3720755
:1014D00008F30BC08183B382A2820C0D1D1D2E1D4B
:1014E0003F1D048315832683378383E080834481F3
:1014F00055816681778177FF1DC0DB01CA0181704C
:101500009070A070B0707695679557954795842B2D
:10151000952BA62BB72B84839583A683B7838281D3
:10152000938101969383828305C0CDE8D4E003C004
:10153000E40101C0EF01CE01CDB7DEB7E0E10C94CC
:10154000EA0FA0E2B0E0E7EAFAE00C94DC0FDC017D
:10155000CB018D839E83AF83B88729833A834B83E6
:101560005C83CE010596BE01675E7F4F0E94AE0E82
:10157000CE010196BE016F5E7F4F0E94AE0ECE017E
:101580004996BE016F5E7F4FAE01475F5F4F0E947D
:1015900050090E94D70D462F572F682F792FCB0166
:1015A000BA01A096E2E00C94F80FA0E2B0E0EBEDF7
:1015B000FAE00C94DC0FDC01CB018D839E83AF83BA
:1015C000B88729833A834B835C83CE010596BE019D
:1015D000675E7F4F0E94AE0ECE010196BE016F5E28
:1015E0007F4F0E94AE0E8A8991E089278A8BCE01B7
:1015F0004996BE016F5E7F4FAE01475F5F4F0E940D
:1016000050090E94D70D462F572F682F792FCB01F5
:10161000BA01A096E2E00C94F80FA0E2B0E0E3E19A
:10162000FBE00C94CE0FDC01CB018D839E83AF8356
:10163000B88729833A834B835C83CE010596BE012C
:10164000675E7F4F0E94AE0ECE010196BE016F5EB7
:101650007F4F0E94AE0E998D923078F0898982304A
:10166000C0F0943019F4823041F4CAC0843019F4C7
:10167000923079F4C5C0923051F481E02A8D9A8974
:10168000291709F480E08A8FCE014996BBC08230C9
:1016900051F481E02A8D9A89291709F480E08A8B18
:1016A000CE014196AFC04D8C5E8C6F8C78A00D89B9
:1016B0001E892F89388DE0E2F0E040E050E0BA0169
:1016C000882499245401CC24DD247601C201817040
:1016D00090700097D1F0C00ED11EE21EF31EDB0108
:1016E000CA01880D991DAA1DBB1D41E050E060E0B4
:1016F00070E0C016D106E206F30618F040E050E0B4
:10170000BA01480F591F6A1F7B1F880C991CAA1C1D
:10171000BB1C37FF08C081E090E0A0E0B0E0882A61
:10172000992AAA2ABB2A000F111F221F331F769461
:10173000679457944794319749F68B8D9C8D2B89EC
:101740003C89820F931F02969C878B8781E02A8DAC
:101750009A89291709F480E08A872B853C8517C070
:10176000CA0181709070009761F0F694E794D79465
:10177000C79480E090E0A0E0B0E8C82AD92AEA2A1D
:10178000FB2A76956795579547952F5F3F4F77FDD5
:10179000E7CFC9010BC0440F551F661F771FF7FC29
:1017A0004160CC0CDD1CEE1CFF1C01974030A0E01A
:1017B0005A07A0E06A07A0E47A0768F38B879C8742
:1017C000DB01CA018F779070A070B07080349105F2
:1017D000A105B10561F447FD0AC0C114D104E104BB
:1017E000F10429F0405C5F4F6F4F7F4F40784D8789
:1017F0005E876F87788B83E08987CE01099602C068
:101800008DE894E00E94D70D462F572F682F792F2F
:10181000CB01BA01A096E0E10C94EA0FA8E1B0E098
:10182000E4E1FCE00C94DC0FDC01CB018D839E83B2
:10183000AF83B88729833A834B835C83CE010596B7
:10184000BE016F5E7F4F0E94AE0ECE010196BE01BB
:10185000675F7F4F0E94AE0E8989823058F089857C
:10186000823040F0CE014196BE01675F7F4F0E94FB
:10187000170F01C08FEF6896E2E00C94F80FCF923B
:10188000DF92EF92FF92CF93DF93CDB7DEB7289729
:101890000FB6F894DEBF0FBECDBF6B017C0183E0B5
:1018A0008983D701C6018827B7FD83959927AA2781
:1018B000BB27282F8A83C114D104E104F10419F451
:1018C00082E0898335C08EE190E09C838B83222364
:1018D00089F080E0C81680E0D80680E0E80680E85D
:1018E000F80659F1F094E094D094C094C11CD11C36
:1018F000E11CF11CCD82DE82EF82F886C701B601C1
:101900000E94840D01971816190694F4082E04C03D
:10191000CC0CDD1CEE1CFF1C0A94D2F7CD82DE82BB
:10192000EF82F8862EE130E0281B390B3C832B83B5
:10193000CE0101960E94D70D04C060E070E080E007
:101940009FEC382F292F862F972FA32FB22FBC0162
:10195000CD0128960FB6F894DEBF0FBECDBFDF9144
:10196000CF91FF90EF90DF90CF900895ACE0B0E082
:10197000ECEBFCE00C94DA0FDC01CB0189839A8359
:10198000AB83BC83CE010196BE016B5F7F4F0E948B
:10199000AE0E8D81823069F1823058F1843039F099
:1019A0002F81388537FD25C02F31310544F08E81D8
:1019B000882319F100E010E020E030E822C08EE139
:1019C00090E0821B930B09851A852B853C8504C00A
:1019D00036952795179507958A95D2F78E81882396
:1019E00081F030952095109501951F4F2F4F3F4F57
:1019F00008C000E010E0980104C00FEF1FEF2FEFC8
:101A00003FE7B801C9012C96E4E00C94F60FA8E07A
:101A1000B0E0EDE0FDE00C94D60F6B017C011A8282
:101A2000611571058105910519F482E089835EC015
:101A300083E089830EE110E01C830B83CD82DE827C
:101A4000EF82F886C701B6010E94840D9C012150E7
:101A5000304037FF38C0EE27FF27E21BF30B81E051
:101A600090E0A0E0B0E00E2E04C0880F991FAA1FDE
:101A7000BB1F0A94D2F70197A109B1098C219D21BE
:101A8000AE21BF2141E050E060E070E00097A10589
:101A9000B10519F440E050E0BA0104C0F694E794AF
:101AA000D794C794EA95D2F7C42AD52AE62AF72A0A
:101AB000CD82DE82EF82F8868EE190E0821B930B6E
:101AC0009C838B8313C02115310581F0022E04C045
:101AD000CC0CDD1CEE1CFF1C0A94D2F7CD82DE82FA
:101AE000EF82F886021B130B1C830B83CE01019639
:101AF0000E94D70D462F572F682F792FCB01BA019F
:101B00002896E8E00C94F20FCF92DF92EF92FF92CA
:101B10000F931F938B019C01003080E0180781E038
:101B2000280780E0380750F40F3F110521053105E3
:101B300009F088F480E090E0DC0116C00030E0E0BD
:101B40001E07E0E02E07E1E03E0750F480E190E060
:101B5000A0E0B0E009C088E090E0A0E0B0E004C000
:101B600088E190E0A0E0B0E040E250E060E070E0AA
:101B7000481B590B6A0B7B0B6801790104C0F69472
:101B8000E794D794C7948A95D2F7D701C6018B56AC
:101B90009B4FFC018081481B510961097109CA01F1
:101BA0001F910F91FF90EF90DF90CF900895CF920B
:101BB000DF92EF92FF920F931F93DC0114964D91E9
:101BC0005D916D917C9117971196EC9111978C9185
:101BD000823020F460618FEF90E0A5C0843009F47A
:101BE0009DC0823009F494C041155105610571050D
:101BF00009F491C012968D919C9113972FEF823822
:101C000092070CF059C022E83FEF281B390B2A310C
:101C1000310564F56A017B01022E04C0F694E79455
:101C2000D794C7940A94D2F781E090E0A0E0B0E0A6
:101C300004C0880F991FAA1FBB1F2A95D2F70197CE
:101C4000A109B10984239523A623B72341E050E0DD
:101C500060E070E00097A105B10519F440E050E0A4
:101C6000BA014C295D296E297F2903C040E050E06C
:101C7000BA01DB01CA018F779070A070B070803418
:101C80009105A105B10539F447FF09C0405C5F4FDC
:101C90006F4F7F4F04C0415C5F4F6F4F7F4F81E0BC
:101CA00090E0403020E0520720E0620720E4720715
:101CB00038F580E090E024C0803891057CF58A01F9
:101CC0009B010F77107020703070003411052105D2
:101CD000310539F447FF09C0405C5F4F6F4F7F4FBC
:101CE00004C0415C5F4F6F4F7F4F77FD03C0815849
:101CF0009F4F06C0769567955795479580589F4F9B
:101D000097E076956795579547959A95D1F70BC0CB
:101D100080E090E005C080E090E005C08FEF90E0AB
:101D200040E050E0BA01982F979599279795A62FF4
:101D3000AF77E795EE27E79586953A2F392B282F31
:101D40002E2B842F952FA32FB22FBC01CD011F91D5
:101D50000F91FF90EF90DF90CF900895DC01FB0191
:101D60004C9111965C91119712968C911297682F55
:101D70006F7770E0982F991F9927991F13962C91D0
:101D80001397822F880F892B90E0221F2227221F72
:101D90002183009739F5411551056105710511F44D
:101DA00082E029C082E89FEF9383828327E0440F7B
:101DB000551F661F771F2A95D1F783E0808309C0DE
:101DC000440F551F661F771F82819381019793836C
:101DD0008283403080E0580780E0680780E478071D
:101DE00078F320C08F3F910579F4411551056105C5
:101DF000710519F484E08083089564FF03C081E0D5
:101E0000808310C010820EC08F57904093838283CE
:101E100083E0808387E0440F551F661F771F8A95F4
:101E2000D1F7706444835583668377830895CF9395
:101E3000FC01DB019081923008F44CC08C9182301F
:101E400008F448C0943069F42181843039F4119643
:101E50008C91119790E0821B910944C02223D1F10B
:101E60003FC0843021F0923041F48230B1F11196BC
:101E70008C9111978823A1F12DC0C181823001F18D
:101E800011968C911197C817D9F48281938112967B
:101E90002D913C9113972817390794F082179307D7
:101EA000BCF0448155816681778114968D919D9116
:101EB0000D90BC91A02D84179507A607B70718F4BD
:101EC000CC2341F00DC0481759076A077B0728F457
:101ED000CC2331F081E090E005C080E090E002C0CA
:101EE0008FEF9FEFCF910895CF93DF93CDB7DEB7FC
:101EF0002A970FB6F894DEBF0FBECDBF78940E942C
:101F0000C4070E94EF040E942F070E9496000E94BF
:101F1000CE020E949D080F920F928DE092E0EDB7E5
:101F2000FEB7928381830E94EE110F900F90F89478
:101F3000CE0101960E94380578940097C1F3E9819B
:101F4000FA81CE0103961995F2CF97FB092E072649
:101F50000AD077FD04D00CD006D000201AF470957A
:101F600061957F4F0895F6F7909581959F4F08955D
:101F7000AA1BBB1B51E107C0AA1FBB1FA617B707AF
:101F800010F0A61BB70B881F991F5A95A9F78095CB
:101F90009095BC01CD0108952F923F924F925F9290
:101FA0006F927F928F929F92AF92BF92CF92DF9269
:101FB000EF92FF920F931F93CF93DF93CDB7DEB7CE
:101FC000CA1BDB0B0FB6F894DEBF0FBECDBF199452
:101FD0002A88398848885F846E847D848C849B84B9
:101FE000AA84B984C884DF80EE80FD800C811B81C7
:101FF000AA81B981CE0FD11D0FB6F894DEBF0FBEF6
:10200000CDBFED010895CF93DF93AC0182309105F0
:1020100010F442E050E0E091D806F091D90620E0BB
:1020200030E0A0E0B0E024C0808191818417950762
:10203000D0F08417950771F482819381109729F06D
:1020400013969C938E9312972CC09093D9068093ED
:10205000D80627C02115310519F08217930718F407
:102060009C01BD01EF0192818381DF01E92FF82FEF
:102070003097D1F621153105F9F0C901841B950B74
:102080008430910580F48A819B816115710521F06E
:10209000FB019383828304C09093D9068093D80672
:1020A000FE01329642C0FE01E80FF91F41935193A1
:1020B00002979983888339C08091D6069091D7067C
:1020C000009741F480919705909198059093D706D9
:1020D0008093D606209195053091960521153105FE
:1020E00041F42DB73EB78091990590919A05281B30
:1020F000390BE091D606F091D706E217F30798F472
:102100002E1B3F0B2417350770F0CA0102962817C3
:10211000390748F08E0F9F1F9093D7068093D606FD
:102120004193519302C0E0E0F0E0CF01DF91CF9105
:1021300008950F931F93CF93DF939C01009709F4A9
:102140008CC0DC01129713961C921E92129760911C
:10215000D8067091D9066115710589F48D919C910D
:102160001197820F931F2091D6063091D70628171A
:10217000390769F5B093D706A093D6066EC0FB0168
:1021800040E050E001C0FC01EA17FB0730F4828117
:102190009381AF010097B9F71FC0E9012297FB8334
:1021A000EA8308811981C901800F911F8E179F074B
:1021B00059F480819181800F911F029699838883C1
:1021C000828193819B838A834115510529F4B093C1
:1021D000D906A093D80641C0FA01B383A283C19166
:1021E000D191EC0FFD1FAE17BF0781F4F901929159
:1021F00082918C0F9D1F0296DA0111969C938E930B
:102200008281938113969C938E931297E0E0F0E085
:1022100002C0FB01BC01DB0112968D919C911397CA
:102220000097B9F7CB0102962D913C911197820F3F
:10223000931F2091D6063091D7062817390769F4E5
:10224000309729F41092D9061092D80602C0138252
:1022500012827093D7066093D606DF91CF911F91BB
:102260000F910895FC0188279927E8942191203245
:10227000E9F3293010F02E30C8F32B3241F02D3223
:1022800039F4689404C00E948C11820F911D219131
:1022900020532A30C0F31EF4909581959F4F0895E6
:1022A00047EA55E00E9465110895FB01DC018D911C
:1022B000019080190110D9F3990B0895FB01DC01FD
:1022C00001900D920020E1F70895FA01A191B081EB
:1022D000009719F41097E1F0CD01DC01CD010D90CC
:1022E000002011F4C00113C0FB012191222319F039
:1022F0002015D9F7F3CFFB012191201519F41E9277
:10230000119606C02223C1F70D900020A1F7D0013D
:10231000FA01A193B08308957AE0979F902D879F4B
:10232000802D910D11240895CF92DF92EF92FF92AC
:102330000F931F93CF93DF938C016A01FA0183817E
:1023400080FF1AC016161706BCF47B01E8010EC008
:10235000C6010E948114FFEF8F3F9F0769F08993A8
:102360000894E108F1088A30910521F021E0E21695
:10237000F10471F7188202C000E010E0C801DF919B
:10238000CF911F910F91FF90EF90DF90CF90089524
:102390000F931F93CF93DF938C01E091DA06F091B6
:1023A000DB06838180FF12C0E8018091DA069091FC
:1023B000DB060E9481142FEF8F3F920739F089933B
:1023C0008A30910591F72197188202C000E010E051
:1023D000C801DF91CF911F910F910895CF93DF93A3
:1023E000CDB7DEB7FE013696619171918091DC0622
:1023F0009091DD06AF010E946412DF91CF910895A4
:102400006091DC067091DD060E94C11408950F935F
:102410001F93CF93DF938C01E091DC06F091DD06F2
:10242000838181FF1AC0C0E0D0E005C019950097F4
:1024300011F0CFEFDFEFF80181918F016091DC06A1
:102440007091DD06DB011896ED91FC9119978823B8
:1024500069F78AE01995009711F0CFEFDFEFCE0111
:10246000DF91CF911F910F9108950F931F93CF93F9
:10247000DF93CDB7DEB72E970FB6F894DEBF0FBE51
:10248000CDBF0E891F8986E08C831A8309838FEF65
:102490009FE79E838D83AE01465E5F4FCE0101961E
:1024A000688D798D0E946412EF81F885E00FF11F2D
:1024B00010822E960FB6F894DEBF0FBECDBFDF910F
:1024C000CF911F910F9108952F923F924F925F925B
:1024D0006F927F928F929F92AF92BF92CF92DF9234
:1024E000EF92FF920F931F93CF93DF93CDB7DEB799
:1024F0002D970FB6F894DEBF0FBECDBF3C017D8790
:102500006C875A01FC0117821682838181FFC8C142
:102510002E010894411C511CF3019381EC85FD852B
:1025200093FD859193FF8191FD87EC87882309F4C2
:10253000B3C1853241F493FD859193FF8191FD876D
:10254000EC87853229F490E0B3010E94C114E4CFF6
:10255000FF24EE2410E01032B0F48B3269F08C329C
:1025600028F4803251F0833271F40BC08D3239F08F
:10257000803349F411602CC01260146029C01860C7
:1025800027C0106125C017FD2EC0282F20532A30E8
:1025900098F416FF08C08F2D880FF82EFF0CFF0C43
:1025A000F80EF20E15C08E2D880FE82EEE0CEE0CF4
:1025B000E80EE20E10620CC08E3221F416FD6CC1E2
:1025C000106406C08C3611F4106802C0883659F4C5
:1025D000EC85FD8593FD859193FF8191FD87EC87C7
:1025E000882309F0B8CF982F9554933018F0905263
:1025F000933038F424E030E0A20EB31E3FE3398379
:102600000FC0833631F0833781F0833509F05AC02B
:1026100022C0F5018081898322E030E0A20EB31E42
:1026200021E0C22ED12C420114C092E0292E312C7F
:102630002A0C3B1CF5018080918016FF03C06F2D92
:1026400070E002C06FEF7FEFC4010E9476146C014E
:1026500051011F7715C082E0282E312C2A0C3B1C1B
:10266000F5018080918016FF03C06F2D70E002C0DD
:102670006FEF7FEFC4010E946B146C011068510171
:1026800013FD1CC006C080E290E0B3010E94C1149B
:10269000EA948E2D90E0C816D906A8F30FC0F40175
:1026A00017FD859117FF81914F0190E0B3010E94C2
:1026B000C114E110EA940894C108D108C114D104EE
:1026C00071F7E7C0843611F0893651F5F50117FF2F
:1026D00007C080819181A281B38124E030E008C0ED
:1026E00080819181AA2797FDA095BA2F22E030E042
:1026F000A20EB31E012F0F76B7FF08C0B095A095AC
:10270000909581959F4FAF4FBF4F0068BC01CD01A1
:10271000A2012AE030E00E94ED14D82ED4183FC068
:10272000853721F41F7E2AE030E020C0197F8F36E4
:10273000A9F0803720F4883509F0AEC00BC080378F
:1027400021F0883709F0A8C001C0106114FF09C04A
:10275000146007C014FF08C0166006C028E030E00F
:1027600005C020E130E002C020E132E0F50117FFB2
:1027700007C0608171818281938144E050E006C08E
:102780006081718180E090E042E050E0A40EB51ECF
:10279000A2010E94ED14D82ED418012F0F7706FF46
:1027A00009C00E7FDF1430F404FF06C002FD04C030
:1027B0000F7E02C01D2D01C01F2D802F90E004FF51
:1027C0000CC0FE01ED0DF11D2081203311F4097EB6
:1027D00009C002FF06C01E5F05C086789070009792
:1027E00009F01F5F802E992403FD12C000FF0DC069
:1027F000FD2C1E1550F4FE0CF11A1E2D06C080E2B1
:1028000090E0B3010E94C1141F5F1E15C0F304C005
:102810001E1510F4E11A01C0EE2484FE0FC080E3FF
:1028200090E0B3010E94C11482FE1FC081FE03C06C
:1028300088E590E010C088E790E00DC0C40186787C
:102840009070009791F081FC02C080E201C08BE2A1
:1028500007FD8DE290E0B3010E94C11406C080E341
:1028600090E0B3010E94C114FA94DF14C0F3DA942B
:10287000F201ED0DF11D808190E0B3010E94C114C1
:10288000DD20A9F706C080E290E0B3010E94C114E8
:10289000EA94EE20C1F740CEF3018681978102C011
:1028A0008FEF9FEF2D960FB6F894DEBF0FBECDBF12
:1028B000DF91CF911F910F91FF90EF90DF90CF901C
:1028C000BF90AF909F908F907F906F905F904F9050
:1028D0003F902F900895FC010590615070400110C9
:1028E000D8F7809590958E0F9F1F0895FC01615039
:1028F000704001900110D8F7809590958E0F9F1F22
:102900000895CF93DF93EC012B8120FF35C026FF84
:1029100009C02F7B2B838E819F8101969F838E839D
:102920008A8128C022FF0FC0E881F9818081992720
:1029300087FD9095009719F420622B831DC0319676
:10294000F983E88311C0EA85FB85CE01199597FFCD
:102950000BC02B813FEF8F3F930711F480E101C043
:1029600080E2822B8B8308C02E813F812F5F3F4FF7
:102970003F832E8390E002C08FEF9FEFDF91CF91D6
:1029800008950F931F93CF93DF938C01EB018B81FD
:1029900081FF1BC082FF0DC02E813F818C819D81F4
:1029A0002817390764F4E881F9810193F983E883F2
:1029B00006C0E885F985802F1995009731F48E813E
:1029C0009F8101969F838E8302C00FEF1FEFC80186
:1029D000DF91CF911F910F910895FA01AA27283016
:1029E00051F1203181F1E8946F936E7F6E5F7F4FDC
:1029F0008F4F9F4FAF4FB1E03ED0B4E03CD0670F58
:102A0000781F891F9A1FA11D680F791F8A1F911DAA
:102A1000A11D6A0F711D811D911DA11D20D009F4FA
:102A200068943F912AE0269F11243019305D31933C
:102A3000DEF6CF010895462F4770405D4193B3E025
:102A40000FD0C9F7F6CF462F4F70405D4A3318F0CC
:102A5000495D31FD4052419302D0A9F7EACFB4E07D
:102A6000A6959795879577956795BA95C9F7009735
:102A70006105710508959B01AC010A2E06945795D6
:102A8000479537952795BA95C9F7620F731F841F2D
:0A2A9000951FA01D0895F894FFCFD4
:102A9A002564002D2D3E256320003E2000242000C1
:102AAA0025640073756D203D2025640A00242000EA
:102ABA0025642069732061207072696D65206E75C6
:102ACA006D626572202121210A00636F756E742080
:102ADA003D2025640A007461736B5F74636E373539
:102AEA005F6932632829203A20534C412B572077BB
:102AFA0072697465206661696C2E2E2E007461738A
:102B0A006B5F74636E37355F6932632829203A2018
:102B1A00706F696E74657220777269746520666178
:102B2A00696C2E2E2E007461736B5F74636E373579
:102B3A005F6932632829203A20534C412B5220776F
:102B4A0072697465206661696C2E2E2E0074617339
:102B5A006B5F74636E37355F6932632829203A20C8
:102B6A0063757272656E745F74656D706572617497
:102B7A00757265202D3E202564206465677265653F
:102B8A002E0A2420007461736B5F74633737282917
:102B9A00203A2063757272656E745F74656D706534
:102BAA00726174757265202D3E2025642064656704
:102BBA007265652E0A2420007461736B5F74633733
:102BCA00372829203A20756E6578706563657464C4
:102BDA0020737461746520696E207461736B5F740D
:102BEA006337372E2E2E0A24200043757272656EC3
:102BFA00742074656D70657261747572652069738D
:102C0A00202564206465677265652E0A006C6F670B
:102C1A006F75742C20676F6F64627965202121219A
:102C2A000020090A0D0074696D657200556E6B6E9D
:102C3A006F776E20636F6D6D616E642E2E2E0A247F
:102C4A0020000005007072696D6500000000000038
:102C5A00000000000000000000000000000000006A
:102C6A000000000000620373756D000000000000A0
:102C7A00000000000000000000000000000000004A
:102C8A00000000000000003603746331303437005E
:102C9A00000000000000000000000000000000002A
:102CAA000000000000000000006E04746337370063
:102CBA00000000000000000000000000000000000A
:102CCA000000000000000000000000050474636EAC
:102CDA0037355F6932630000000000000000000021
:102CEA0000000000000000000000000000B7032DF3
:102CFA002D3E25642825642920003E3E2000000040
:102D0A00000001000000000000960700000000001B
:102D1A000200000000A307000000000100000000FC
:102D2A00000000000000010202030303030404047C
:102D3A00040404040405050505050505050505053E
:102D4A00050505050506060606060606060606061E
:102D5A000606060606060606060606060606060609
:102D6A0006060606060707070707070707070707EE
:102D7A0007070707070707070707070707070707D9
:102D8A0007070707070707070707070707070707C9
:102D9A0007070707070707070707070707070707B9
:102DAA00070707070708080808080808080808089E
:102DBA000808080808080808080808080808080889
:102DCA000808080808080808080808080808080879
:102DDA000808080808080808080808080808080869
:102DEA000808080808080808080808080808080859
:102DFA000808080808080808080808080808080849
:102E0A000808080808080808080808080808080838
:102E1A000808080808080808080808080808080828
:0C2E2A0008080808080000E0062000006E
:00000001FF
