:100000000C9472000C9494000C9494000C94940042
:100010000C9494000C9494000C9494000C94940010
:100020000C9494000C9494000C9494000C94940000
:100030000C9494000C9494000C9494000C947C0503
:100040000C9494000C9494000C9494000C949400E0
:100050000C9494000C9494000C9494000C949400D0
:100060000C9494000C944D060C9494000C94080687
:100070000C9494000C941D070C9494000C94940020
:100080000C9494000C9494000C9494000C949400A0
:100090000C9494000C9494000C9494000C94940090
:1000A0000C9494000C9494000C9494000C94940080
:1000B0000C9494000C9494000C9494000C94940070
:1000C0000C9494000C9494000C9494000C94940060
:1000D0000C9494000C9494000C9494000C94940050
:1000E0000C94940011241FBECFEFD1E2DEBFCDBF30
:1000F00000E00CBF14E0A0E0B2E0EEE5F1E200E0C9
:100100000BBF02C007900D92A634B107D9F71BBEF2
:1001100015E0A6E4B4E001C01D92A738B107E1F7ED
:100120000E94DA0A0C94AD100C94000084E090E078
:100130000E94650B08950E94FB0B0895FC018091BD
:10014000460490914704009739F4F0934704E093F4
:10015000460413821282089593838283F0934704A6
:10016000E09346040895E0914604F09147043097E7
:1001700031F4909347048093460408C0F90122812A
:10018000338121153105D1F793838283FC011382DA
:1001900012820895CF93DF93FC01209146043091A1
:1001A00047042115310531F040815181D901C0E06A
:1001B000D0E00FC0909347048093460413821282CC
:1001C0001DC012968D919C911397ED01009739F007
:1001D000DC018D919C9111978417950794F32097DA
:1001E00039F433832283F0934704E093460406C036
:1001F0008A819B8193838283FB83EA83DF91CF9102
:1002000008950F931F93CF93DF938AE090E00E94AD
:10021000620DC0914604D091470400E012E013C083
:1002200000D00F92EDB7FEB71283018388819981C8
:10023000948383830E94500D0A80DB81C02D0F9030
:100240000F900F900F908A819B81009749F78AE069
:1002500090E00E94620DDF91CF911F910F91089560
:1002600009C0FC0122813381309347042093460466
:100270000E94FB0B8091460490914704009789F7F8
:100280000895EF92FF921F93CF93DF93CDB7DEB720
:1002900028970FB6F894DEBF0FBECDBF009719F0B8
:1002A000FC01108101C011E687E0E82E82E0F82E03
:1002B0000F920F92EDB7FEB7F282E1820E94500DCD
:1002C0000F900F904091810550918205CE010196CB
:1002D00068E070E00E94F60C0097A1F00E94960082
:1002E0002981FC0120831182183619F0143739F462
:1002F00003C00E949E00DCCF0E94B300D9CF0E94B1
:10030000CA00D6CF0E9401010E94300128960FB684
:10031000F894DEBF0FBECDBFDF91CF911F91FF904C
:10032000EF900895CF93DF93FC0162E070E00E94AC
:10033000070BEB0122E030E008C0CF01B9010E94B9
:10034000070B009741F02F5F3F4FC217D307ACF761
:1003500081E090E002C080E090E0DF91CF910895CD
:10036000CF92DF92EF92FF920F931F93CF93DF9381
:10037000009721F00E94940C7C0104C090EDE92EBE
:1003800097E0F92E00E010E0C2E0D0E08DE0C82E4A
:1003900082E0D82E16C0CE010E949201009781F013
:1003A0000F5F1F4F00D00F92EDB7FEB7D282C18210
:1003B000D483C3830E94500D0F900F900F900F9025
:1003C0002196EC16FD063CF700D00F9287E292E0F2
:1003D000EDB7FEB792838183148303830E94500D8F
:1003E0000F900F9083E392E0EDB7FEB79283818385
:1003F0000E94500D0F900F90DF91CF911F910F91A0
:10040000FF90EF90DF90CF900895009719F00E9431
:10041000940C02C084E690E040E050E021E030E03F
:1004200004C0420F531F2F5F3F4F82179307CCF733
:1004300000D00F9286E392E0EDB7FEB792838183FE
:10044000548343830E94500D0F900F9083E392E0FA
:10045000EDB7FEB7928381830E94500D0F900F90ED
:10046000089510929504109294041092930410929F
:1004700092041092970410929604109251041092D4
:1004800050040895482F20919604309197042F5FCF
:100490003F4FC90160E470E00E94070B9C0180910E
:1004A0005004909151042817390759F0309397045C
:1004B0002093960428563B4FF901408381E090E059
:1004C000089580E090E00895809150049091510447
:1004D00020919604309197042817390779F00196F6
:1004E00060E470E00E94070B9093510480935004E5
:1004F00088569B4FFC01808190E0089580E090E059
:100500000895482F20919404309195042F5F3F4F18
:10051000C90160E470E00E94070B9C018091920485
:10052000909193042817390759F03093950420933C
:1005300094042E5A3B4FF901408381E090E00895E6
:1005400080E090E00895809192049091930420912E
:100550009404309195042817390779F0019660E4E6
:1005600070E00E94070B90939304809392048E5A3C
:100570009B4FFC01808190E0089580E090E0089519
:1005800080915004909151042091960430919704E9
:100590008217930759F0019660E470E00E94070B00
:1005A00088569B4FFC01808190E0089580E090E0A8
:1005B0000895EF92FF920F931F93CF93DF937C01E7
:1005C00000E010E017C0E801CC0FDD1FC80125E0F6
:1005D000880F991F2A95E1F7C80FD91FC558DD4F1D
:1005E000C701BE010E94B70C009711F4CE010BC0E9
:1005F0000F5F1F4F8091790290917A0208171907B7
:1006000014F380E090E0DF91CF911F910F91FF9064
:10061000EF9008951092D9041092D80410927B059F
:1006200010927A050895CF93DF93482FE92F809198
:10063000D8049091D904C0917A05D0917B05019698
:1006400020E130E0B9010E94070B8C179D0731F1C2
:100650008091D8049091D9040196B9010E94070BAA
:100660009093D9048093D8048091D8049091D904B0
:10067000DC01AA0FBB1F63E0880F991F6A95E1F7A1
:10068000A80FB91FA652BB4FC42FDE2F8AE00990D6
:100690000D928150E1F781E090E002C080E090E0AF
:1006A000DF91CF9108959C014091D8045091D904D5
:1006B00080917A0590917B054817590731F1809117
:1006C0007A0590917B05019660E170E00E94070B2E
:1006D00090937B0580937A0580917A0590917B05B4
:1006E000FC01EE0FFF1FA3E0880F991FAA95E1F709
:1006F000E80FF91FD901E652FB4F8AE001900D92F5
:100700008150E1F781E090E0089580E090E0089565
:10071000AF92BF92CF92DF92EF92FF920F931F930F
:10072000CF93DF93CDB7DEB7CA54D0400FB6F8945D
:10073000DEBF0FBECDBF0E94B506009709F48EC084
:10074000CE010B960E942A0D009729F480E492E0D6
:100750000E94690DFFCFCE010B9664E572E00E9406
:10076000B20C8C0180E090E064E572E00E94B20C73
:100770007C0180E090E064E572E00E94B20C6C01C4
:1007800080E090E064E572E00E94B20C5C0101152B
:10079000110529F40F920F9289E592E047C0C80134
:1007A0006CE572E00E94B70C0097B9F5E114F10412
:1007B00019F0C114D10461F40F920F9282E692E015
:1007C000EDB7FEB7928381830E94500D0F900F907A
:1007D000C7010E94940C8C01C6010E94D9020097A7
:1007E00009F1FC0180A191A19A838983CE0103962E
:1007F000A114B10411F0B50102C068E772E00E94D3
:10080000C00CF894C80160E071E00E94070BCE01B3
:1008100001960E944504789421C0C8010E94D90223
:10082000009779F40F920F9282E692E0ADB7BEB7CF
:1008300012969C938E9311970E94500D0F900F90DB
:100840000DC0DC019096ED91FC919197C114D104FB
:1008500011F0C70102C088E792E01995C65BDF4F2F
:100860000FB6F894DEBF0FBECDBFDF91CF911F91C1
:100870000F91FF90EF90DF90CF90BF90AF900895D1
:100880008EE090E00E94650B0895EF92FF920F9327
:100890001F93CF93DF93F82EE92E8B010E94400423
:1008A000EC01DC011296EF2DFE2D8AE001900D92F5
:1008B0008150E1F719830883E0914804F0914904DD
:1008C000309729F4D0934904C09348042FC040E0E6
:1008D00050E020E030E001C0FD0180819181280FCF
:1008E000391F2017310734F4A485B585AF0110975F
:1008F00099F701C0DF014115510579F48D919C9163
:100900001197801B910B11969C938E93BD87AC879A
:10091000D0934904C093480424C0109751F4021B9B
:10092000130B19830883FA01D587C4871D861C869B
:1009300018C08D919C911197B901681B790B980192
:10094000261B370B398328838D919C911197821B2D
:10095000930B11969C938E93FA01D587C487BD871C
:10096000AC87DF91CF911F910F91FF90EF90089589
:10097000EF92FF920F931F93CF93DF938AE090E063
:100980000E94620DC0914804D091490400E010E03B
:1009900081EEE82E82E0F82E20C088819981080F30
:1009A000191F00D000D0EDB7FEB73196ADB7BEB776
:1009B0001296FC92EE92119793838283158304839F
:1009C0000E94500D0C84DD85C02D8DB79EB7069614
:1009D0000FB6F8949EBF0FBE8DBF2097F1F68AE048
:1009E00090E00E94620DDF91CF911F910F91FF90D7
:1009F000EF90089509C0FC012485358530934904A2
:100A0000209348040E94FB0B809148049091490474
:100A1000009789F708950F931F93CF93DF93CDB776
:100A2000DEB762970FB6F894DEBF0FBECDBF0CEEF7
:100A300012E00F920F92EDB7FEB7128301830E946E
:100A4000500D0F900F904091810550918205CE017D
:100A5000019668E070E00E94F60C009761F0CE010C
:100A600001960E94940CBC01009729F0CE010996D2
:100A70000E944504DECF0E94B8040E94FA046296E8
:100A80000FB6F894DEBF0FBECDBFDF91CF911F919F
:100A90000F9108951092B200E6EBF0E08081806241
:100AA0008083E0E7F0E0808181608083E1EBF0E02B
:100AB0008081816080838081826080830895CF936C
:100AC000DF930DC08C859D859093490480934804E5
:100AD000CE0102960E941303CE010E94FB0BC0912F
:100AE0004804D0914904209721F08881998100978A
:100AF00049F3DF91CF9108951F920F920FB60F9295
:100B00000BB60F9211242F933F934F935F936F93E4
:100B10007F938F939F93AF93BF93EF93FF93E09156
:100B20004804F0914904309749F080819181019700
:100B300091838083009711F40E945F05FF91EF91EC
:100B4000BF91AF919F918F917F916F915F914F91E5
:100B50003F912F910F900BBE0F900FBE0F901F90E3
:100B60001895F8940E94640278948823D1F3843015
:100B700011F090E008958FEF9FEF0895CF93C82F65
:100B80008A3019F48DE00E94BE05F89480917C05AE
:100B9000882359F4C093C60081E080937C050AC085
:100BA000789486EF8A95F1F7F8948C2F0E94810251
:100BB0000097B1F3789481E090E0CF91089581EFB0
:100BC00092E090938205809381058FEF92E090935D
:100BD00084058093830510927C050E943102109257
:100BE000C50087E08093C400E0ECF0E08081826083
:100BF0008083E1ECF0E08081886080838081806484
:100C00008083808180618083808180688083089573
:100C10001F920F920FB60F920BB60F9211242F93C3
:100C20003F934F935F936F937F938F939F93AF9374
:100C3000BF93EF93FF930E94A302882319F41092AD
:100C40007C0502C08093C600FF91EF91BF91AF91E8
:100C50009F918F917F916F915F914F913F912F91D4
:100C60000F900BBE0F900FBE0F901F901895CF9353
:100C7000C82F8A3019F48DE00E94370680917C05D8
:100C8000882331F4C093C60081E080937C0503C0C3
:100C90008C2F0E948102CF9108951F920F920FB660
:100CA0000F920BB60F9211241F932F933F934F93E4
:100CB0005F936F937F938F939F93AF93BF93EF93C4
:100CC000FF93CF93DF93CDB7DEB72A97DEBFCDBFBB
:100CD0001091C6001B3161F480910D0390910E03B9
:100CE00001968170907090930E0380930D0324C041
:100CF000143069F01D3009F41AE020910D03309191
:100D00000E032115310519F0812F0E943706812F1E
:100D10000E944202143011F01A3071F488E893E016
:100D20009A838983CE01039660EF72E00E94C00C23
:100D3000CE0101960E9413032A96DEBFCDBFDF913C
:100D4000CF91FF91EF91BF91AF919F918F917F9143
:100D50006F915F914F913F912F911F910F900BBE1B
:100D60000F900FBE0F901F9018950E94C00208951B
:100D7000809880E880937C000895EAE7F0E0808125
:100D8000806880838DED90E00197F1F78081886025
:100D900080838081806480830895FC0120812223E8
:100DA00019F50E94BD0681E090E090934B0480937A
:100DB0004A0480914A0490914B040097D1F700D0E7
:100DC0000F928FE093E0EDB7FEB79283818380911D
:100DD0004C0490914D04948383830E94500D0F9096
:100DE0000F900F900F9008950E94940C9C01B901F0
:100DF000882777FD8095982F0E947F0829E030EFA3
:100E00004CE85AE30E947E0720E030E04AE754E4D1
:100E10000E947E070E94F608DC01CB01845F9140AE
:100E20006AE070E00E94070B70934D0460934C04DD
:100E300010924B0410924A0408951F920F920FB61D
:100E40000F920BB60F9211240F931F932F933F9382
:100E50004F935F936F937F938F939F93AF93BF93C2
:100E6000EF93FF93CF93DF93CDB7DEB72897DEBF25
:100E7000CDBF8091780090917900EAE7F0E0208181
:100E80002F77208300D000D0EDB7FEB731968E01CA
:100E90000F5F1F4FADB7BEB712961C930E931197FD
:100EA00024E333E0338322839370958384830E9409
:100EB000970D8DB79EB706960FB6F8949EBF0FBEDE
:100EC0008DBFC8010E94CD062896DEBFCDBFDF9141
:100ED000CF91FF91EF91BF91AF919F918F917F91B2
:100EE0006F915F914F913F912F911F910F910F90B3
:100EF0000BBE0F900FBE0F901F901895A0E2B0E0B0
:100F0000E4E8F7E00C94300BDC01CB018D839E8389
:100F1000AF83B88729833A834B835C83CE010596E0
:100F2000BE01675E7F4F0E94710ACE010196BE012D
:100F30006F5E7F4F0E94710A998D923078F0898997
:100F40008230C0F0943019F4823041F4CAC0843049
:100F500019F4923079F4C5C0923051F481E02A8DB1
:100F60009A89291709F480E08A8FCE014996BBC07F
:100F7000823051F481E02A8D9A89291709F480E0A2
:100F80008A8BCE014196AFC04D8C5E8C6F8C78A061
:100F90000D891E892F89388DE0E2F0E040E050E0B5
:100FA000BA01882499245401CC24DD247601C2019D
:100FB000817090700097D1F0C00ED11EE21EF31E1A
:100FC000DB01CA01880D991DAA1DBB1D41E050E03F
:100FD00060E070E0C016D106E206F30618F040E0CB
:100FE00050E0BA01480F591F6A1F7B1F880C991CDB
:100FF000AA1CBB1C37FF08C081E090E0A0E0B0E075
:10100000882A992AAA2ABB2A000F111F221F331FE0
:101010007694679457944794319749F68B8D9C8DBD
:101020002B893C89820F931F02969C878B8781E0D6
:101030002A8D9A89291709F480E08A872B853C85B7
:1010400017C0CA0181709070009761F0F694E79420
:10105000D794C79480E090E0A0E0B0E8C82AD92AED
:10106000EA2AFB2A76956795579547952F5F3F4F5C
:1010700077FDE7CFC9010BC0440F551F661F771FCF
:10108000F7FC4160CC0CDD1CEE1CFF1C01974030CE
:10109000A0E05A07A0E06A07A0E47A0768F38B870C
:1010A0009C87DB01CA018F779070A070B07080348C
:1010B0009105A105B10561F447FD0AC0C114D10431
:1010C000E104F10429F0405C5F4F6F4F7F4F40789F
:1010D0004D875E876F87788B83E08987CE0109967D
:1010E00002C087E393E00E949A09462F572F682F8A
:1010F000792FCB01BA01A096E0E10C944C0BCF9272
:10110000DF92EF92FF92CF93DF93CDB7DEB72897B0
:101110000FB6F894DEBF0FBECDBF6B017C0183E03C
:101120008983D701C6018827B7FD83959927AA2708
:10113000BB27282F8A83C114D104E104F10419F4D8
:1011400082E0898335C08EE190E09C838B832223EB
:1011500089F080E0C81680E0D80680E0E80680E8E4
:10116000F80659F1F094E094D094C094C11CD11CBD
:10117000E11CF11CCD82DE82EF82F886C701B60148
:101180000E94470901971816190694F4082E04C006
:10119000CC0CDD1CEE1CFF1C0A94D2F7CD82DE8243
:1011A000EF82F8862EE130E0281B390B3C832B833D
:1011B000CE0101960E949A0904C060E070E080E0D0
:1011C0009FEC382F292F862F972FA32FB22FBC01EA
:1011D000CD0128960FB6F894DEBF0FBECDBFDF91CC
:1011E000CF91FF90EF90DF90CF900895ACE0B0E00A
:1011F000ECEFF8E00C943C0BDC01CB0189839A8383
:10120000AB83BC83CE010196BE016B5F7F4F0E9412
:10121000710A8D81823069F1823058F1843039F061
:101220002F81388537FD25C02F31310544F08E815F
:10123000882319F100E010E020E030E822C08EE1C0
:1012400090E0821B930B09851A852B853C8504C091
:1012500036952795179507958A95D2F78E8188231D
:1012600081F030952095109501951F4F2F4F3F4FDE
:1012700008C000E010E0980104C00FEF1FEF2FEF4F
:101280003FE7B801C9012C96E4E00C94580BCF92CB
:10129000DF92EF92FF920F931F938B019C0100301E
:1012A00080E0180781E0280780E0380750F40F3FFE
:1012B00011052105310509F088F480E090E0DC019A
:1012C00016C00030E0E01E07E0E02E07E1E03E0738
:1012D00050F480E190E0A0E0B0E009C088E090E048
:1012E000A0E0B0E004C088E190E0A0E0B0E040E21F
:1012F00050E060E070E0481B590B6A0B7B0B680103
:10130000790104C0F694E794D794C7948A95D2F7EC
:10131000D701C601815C9C4FFC018081481B5109AB
:1013200061097109CA011F910F91FF90EF90DF9041
:10133000CF900895CF92DF92EF92FF920F931F9379
:10134000DC0114964D915D916D917C9117971196EA
:10135000EC9111978C91823020F460618FEF90E0D6
:10136000A5C0843009F49DC0823009F494C04115B1
:1013700051056105710509F491C012968D919C91FA
:1013800013972FEF823892070CF059C022E83FEFF5
:10139000281B390B2A31310564F56A017B01022EC5
:1013A00004C0F694E794D794C7940A94D2F781E0E6
:1013B00090E0A0E0B0E004C0880F991FAA1FBB1FF7
:1013C0002A95D2F70197A109B10984239523A62371
:1013D000B72341E050E060E070E00097A105B1055F
:1013E00019F440E050E0BA014C295D296E297F29AB
:1013F00003C040E050E0BA01DB01CA018F77907072
:10140000A070B07080349105A105B10539F447FF93
:1014100009C0405C5F4F6F4F7F4F04C0415C5F4F1E
:101420006F4F7F4F81E090E0403020E0520720E096
:10143000620720E4720738F580E090E024C080382D
:1014400091057CF58A019B010F7710702070307038
:10145000003411052105310539F447FF09C0405C0E
:101460005F4F6F4F7F4F04C0415C5F4F6F4F7F4FA7
:1014700077FD03C081589F4F06C0769567955795B5
:10148000479580589F4F97E0769567955795479574
:101490009A95D1F70BC080E090E005C080E090E025
:1014A00005C08FEF90E040E050E0BA01982F97958B
:1014B00099279795A62FAF77E795EE27E79586951D
:1014C0003A2F392B282F2E2B842F952FA32FB22F75
:1014D000BC01CD011F910F91FF90EF90DF90CF9055
:1014E0000895DC01FB014C9111965C9111971296C5
:1014F0008C911297682F6F7770E0982F991F99271A
:10150000991F13962C911397822F880F892B90E0A7
:10151000221F2227221F2183009739F541155105EB
:101520006105710511F482E029C082E89FEF938381
:10153000828327E0440F551F661F771F2A95D1F736
:1015400083E0808309C0440F551F661F771F828187
:101550009381019793838283403080E0580780E035
:10156000680780E4780778F320C08F3F910579F40D
:10157000411551056105710519F484E080830895D2
:1015800064FF03C081E0808310C010820EC08F57BB
:1015900090409383828383E0808387E0440F551FCC
:1015A000661F771F8A95D1F77064448355836683DD
:1015B00077830895CF93DF93CDB7DEB72A970FB621
:1015C000F894DEBF0FBECDBF78940E94DF050E9465
:1015D0000A030E944A050E94B8060F920F928AE001
:1015E00092E0EDB7FEB7928381830E94500D0F9079
:1015F0000F90F894CE0101960E94530378940097BF
:10160000C1F3E981FA81CE0103961995F2CF97FBD8
:10161000092E07260AD077FD04D00CD006D0002072
:101620001AF4709561957F4F0895F6F7909581951E
:101630009F4F0895AA1BBB1B51E107C0AA1FBB1FE8
:10164000A617B70710F0A61BB70B881F991F5A954E
:10165000A9F780959095BC01CD0108952F923F92F6
:101660004F925F926F927F928F929F92AF92BF92B2
:10167000CF92DF92EF92FF920F931F93CF93DF935E
:10168000CDB7DEB7CA1BDB0B0FB6F894DEBF0FBEBB
:10169000CDBF19942A88398848885F846E847D84F8
:1016A0008C849B84AA84B984C884DF80EE80FD800A
:1016B0000C811B81AA81B981CE0FD11D0FB6F89480
:1016C000DEBF0FBECDBFED010895CF93DF93AC0118
:1016D0008230910510F442E050E0E0917F05F091F6
:1016E000800520E030E0A0E0B0E024C0808191815E
:1016F00084179507D0F08417950771F48281938140
:10170000109729F013969C938E9312972CC0909368
:10171000800580937F0527C02115310519F08217B8
:10172000930718F49C01BD01EF0192818381DF01D1
:10173000E92FF82F3097D1F621153105F9F0C901BD
:10174000841B950B8430910580F48A819B816115FF
:10175000710521F0FB019383828304C0909380057F
:1017600080937F05FE01329642C0FE01E80FF91F0B
:101770004193519302979983888339C080917D0565
:1017800090917E05009741F480914104909142042C
:1017900090937E0580937D0520913F043091400415
:1017A0002115310541F42DB73EB780914304909146
:1017B0004404281B390BE0917D05F0917E05E2176A
:1017C000F30798F42E1B3F0B2417350770F0CA015E
:1017D00002962817390748F08E0F9F1F90937E05B9
:1017E00080937D054193519302C0E0E0F0E0CF018A
:1017F000DF91CF9108950F931F93CF93DF939C01B7
:10180000009709F48CC0DC01129713961C921E926B
:10181000129760917F05709180056115710589F4BB
:101820008D919C911197820F931F20917D0530918E
:101830007E052817390769F5B0937E05A0937D05CD
:101840006EC0FB0140E050E001C0FC01EA17FB075D
:1018500030F482819381AF010097B9F71FC0E9018D
:101860002297FB83EA8308811981C901800F911FA8
:101870008E179F0759F480819181800F911F0296E6
:1018800099838883828193819B838A834115510543
:1018900029F4B0938005A0937F0541C0FA01B3837A
:1018A000A283C191D191EC0FFD1FAE17BF0781F448
:1018B000F901929182918C0F9D1F0296DA01119687
:1018C0009C938E938281938113969C938E9312970F
:1018D000E0E0F0E002C0FB01BC01DB0112968D915B
:1018E0009C9113970097B9F7CB0102962D913C91EB
:1018F0001197820F931F20917D0530917E05281747
:10190000390769F4309729F41092800510927F0509
:1019100002C01382128270937E0560937D05DF9171
:10192000CF911F910F910895FC0188279927E89482
:1019300021912032E9F3293010F02E30C8F32B32F8
:1019400041F02D3239F4689404C00E94EE0C820FED
:10195000911D219120532A30C0F31EF4909581955A
:101960009F4F08954EE454E00E94C70C0895FB0178
:10197000DC018D91019080190110D9F3990B089524
:10198000FB01DC0101900D920020E1F70895FA01BE
:10199000A191B081009719F41097E1F0CD01DC011D
:1019A000CD010D90002011F4C00113C0FB01219165
:1019B000222319F02015D9F7F3CFFB01219120152F
:1019C00019F41E92119606C02223C1F70D90002033
:1019D000A1F7D001FA01A193B08308957AE0979F0F
:1019E000902D879F802D910D11240895CF92DF9225
:1019F000EF92FF920F931F93CF93DF938C016A01B5
:101A0000FA01838180FF1AC016161706BCF47B0109
:101A1000E8010EC0C6010E94E30FFFEF8F3F9F0752
:101A200069F089930894E108F1088A30910521F062
:101A300021E0E216F10471F7188202C000E010E024
:101A4000C801DF91CF911F910F91FF90EF90DF9030
:101A5000CF9008950F931F93CF93DF938C01E09164
:101A60008105F0918205838180FF12C0E801809199
:101A70008105909182050E94E30F2FEF8F3F92071F
:101A800039F089938A30910591F72197188202C025
:101A900000E010E0C801DF91CF911F910F910895F0
:101AA000CF93DF93CDB7DEB7FE013696619171918A
:101AB0008091830590918405AF010E94C60DDF914E
:101AC000CF91089560918305709184050E94231041
:101AD00008950F931F93CF93DF938C01E0918305BB
:101AE000F0918405838181FF1AC0C0E0D0E005C079
:101AF0001995009711F0CFEFDFEFF80181918F0179
:101B00006091830570918405DB011896ED91FC913D
:101B10001997882369F78AE01995009711F0CFEF9C
:101B2000DFEFCE01DF91CF911F910F9108950F93B9
:101B30001F93CF93DF93CDB7DEB72E970FB6F894F0
:101B4000DEBF0FBECDBF0E891F8986E08C831A834E
:101B500009838FEF9FE79E838D83AE01465E5F4FC3
:101B6000CE010196688D798D0E94C60DEF81F885B2
:101B7000E00FF11F10822E960FB6F894DEBF0FBE55
:101B8000CDBFDF91CF911F910F9108952F923F927A
:101B90004F925F926F927F928F929F92AF92BF927D
:101BA000CF92DF92EF92FF920F931F93CF93DF9329
:101BB000CDB7DEB72D970FB6F894DEBF0FBECDBF01
:101BC0003C017D876C875A01FC0117821682838154
:101BD00081FFC8C12E010894411C511CF30193815F
:101BE000EC85FD8593FD859193FF8191FD87EC87C1
:101BF000882309F4B3C1853241F493FD859193FFA5
:101C00008191FD87EC87853229F490E0B3010E9431
:101C10002310E4CFFF24EE2410E01032B0F48B3216
:101C200069F08C3228F4803251F0833271F40BC0A9
:101C30008D3239F0803349F411602CC01260146089
:101C400029C0186027C0106125C017FD2EC0282F9D
:101C500020532A3098F416FF08C08F2D880FF82ED5
:101C6000FF0CFF0CF80EF20E15C08E2D880FE82E1B
:101C7000EE0CEE0CE80EE20E10620CC08E3221F477
:101C800016FD6CC1106406C08C3611F4106802C0D9
:101C9000883659F4EC85FD8593FD859193FF8191FC
:101CA000FD87EC87882309F0B8CF982F955493309F
:101CB00018F09052933038F424E030E0A20EB31EB6
:101CC0003FE339830FC0833631F0833781F08335AA
:101CD00009F05AC022C0F5018081898322E030E0FA
:101CE000A20EB31E21E0C22ED12C420114C092E0FC
:101CF000292E312C2A0C3B1CF5018080918016FF87
:101D000003C06F2D70E002C06FEF7FEFC4010E942F
:101D1000D80F6C0151011F7715C082E0282E312C9D
:101D20002A0C3B1CF5018080918016FF03C06F2DAB
:101D300070E002C06FEF7FEFC4010E94CD0F6C0115
:101D40001068510113FD1CC006C080E290E0B30191
:101D50000E942310EA948E2D90E0C816D906A8F3AD
:101D60000FC0F40117FD859117FF81914F0190E09D
:101D7000B3010E942310E110EA940894C108D1082D
:101D8000C114D10471F7E7C0843611F0893651F5DA
:101D9000F50117FF07C080819181A281B38124E002
:101DA00030E008C080819181AA2797FDA095BA2FC5
:101DB00022E030E0A20EB31E012F0F76B7FF08C05D
:101DC000B095A095909581959F4FAF4FBF4F0068FC
:101DD000BC01CD01A2012AE030E00E944F10D82EB4
:101DE000D4183FC0853721F41F7E2AE030E020C0A0
:101DF000197F8F36A9F0803720F4883509F0AEC0FE
:101E00000BC0803721F0883709F0A8C001C01061ED
:101E100014FF09C0146007C014FF08C0166006C094
:101E200028E030E005C020E130E002C020E132E0EF
:101E3000F50117FF07C0608171818281938144E0C1
:101E400050E006C06081718180E090E042E050E0A7
:101E5000A40EB51EA2010E944F10D82ED418012F37
:101E60000F7706FF09C00E7FDF1430F404FF06C0B1
:101E700002FD04C00F7E02C01D2D01C01F2D802F4A
:101E800090E004FF0CC0FE01ED0DF11D2081203318
:101E900011F4097E09C002FF06C01E5F05C08678E6
:101EA0009070009709F01F5F802E992403FD12C0E7
:101EB00000FF0DC0FD2C1E1550F4FE0CF11A1E2D56
:101EC00006C080E290E0B3010E9423101F5F1E1540
:101ED000C0F304C01E1510F4E11A01C0EE2484FE04
:101EE0000FC080E390E0B3010E94231082FE1FC068
:101EF00081FE03C088E590E010C088E790E00DC047
:101F0000C40186789070009791F081FC02C080E255
:101F100001C08BE207FD8DE290E0B3010E94231027
:101F200006C080E390E0B3010E942310FA94DF140E
:101F3000C0F3DA94F201ED0DF11D808190E0B30160
:101F40000E942310DD20A9F706C080E290E0B301D3
:101F50000E942310EA94EE20C1F740CEF30186815F
:101F6000978102C08FEF9FEF2D960FB6F894DEBFDA
:101F70000FBECDBFDF91CF911F910F91FF90EF90DA
:101F8000DF90CF90BF90AF909F908F907F906F9099
:101F90005F904F903F902F900895FC010590615005
:101FA00070400110D8F7809590958E0F9F1F08956F
:101FB000FC016150704001900110D8F78095909518
:101FC0008E0F9F1F0895CF93DF93EC012B8120FF8D
:101FD00035C026FF09C02F7B2B838E819F81019600
:101FE0009F838E838A8128C022FF0FC0E881F981F8
:101FF0008081992787FD9095009719F420622B83A3
:102000001DC03196F983E88311C0EA85FB85CE01B6
:10201000199597FF0BC02B813FEF8F3F930711F46A
:1020200080E101C080E2822B8B8308C02E813F813A
:102030002F5F3F4F3F832E8390E002C08FEF9FEFD3
:10204000DF91CF9108950F931F93CF93DF938C016E
:10205000EB018B8181FF1BC082FF0DC02E813F8170
:102060008C819D812817390764F4E881F9810193F7
:10207000F983E88306C0E885F985802F19950097D4
:1020800031F48E819F8101969F838E8302C00FEF72
:102090001FEFC801DF91CF911F910F910895FA01B1
:1020A000AA27283051F1203181F1E8946F936E7F97
:1020B0006E5F7F4F8F4F9F4FAF4FB1E03ED0B4E088
:1020C0003CD0670F781F891F9A1FA11D680F791FC9
:1020D0008A1F911DA11D6A0F711D811D911DA11DDA
:1020E00020D009F468943F912AE0269F11243019EA
:1020F000305D3193DEF6CF010895462F4770405D85
:102100004193B3E00FD0C9F7F6CF462F4F70405D33
:102110004A3318F0495D31FD4052419302D0A9F78E
:10212000EACFB4E0A6959795879577956795BA9588
:10213000C9F700976105710508959B01AC010A2E4E
:1021400006945795479537952795BA95C9F7620F25
:0E215000731F841F951FA01D0895F894FFCFE4
:10215E002D2D3E256320003E2000242000256420E6
:10216E0069732061207072696D65206E756D626590
:10217E0072202121210A00636F756E74203D202587
:10218E00640A0024200073756D203D2025640A002A
:10219E006C6F676F75742C20676F6F646279652042
:1021AE002121210020090A0D0024200074696D658B
:1021BE007200556E6B6E6F776E20636F6D6D616E14
:1021CE00642E2E2E0A2420000003007072696D65A5
:1021DE0000000000000000000000000000000000F1
:1021EE000000000000000000000000B00173756DDB
:1021FE0000000000000000000000000000000000D1
:10220E000000000000000000000000000005027445
:10221E006331303437000000000000000000000081
:10222E00000000000000000000000000000000CDD3
:10223E00062D2D3E25642825642920003E3E2000D3
:10224E000000000001000000000000B105000000C9
:10225E0000000200000000BE050000000001004367
:10226E00757272656E742074656D706572617475C9
:10227E007265206973202564206465677265652E1A
:10228E000A24200025640000000000000000000069
:10229E0001020203030303040404040404040405FA
:1022AE0005050505050505050505050505050506CF
:1022BE0006060606060606060606060606060606B0
:1022CE00060606060606060606060606060606079F
:1022DE000707070707070707070707070707070780
:1022EE000707070707070707070707070707070770
:1022FE000707070707070707070707070707070760
:10230E00070707070707070707070707070707084E
:10231E00080808080808080808080808080808082F
:10232E00080808080808080808080808080808081F
:10233E00080808080808080808080808080808080F
:10234E0008080808080808080808080808080808FF
:10235E0008080808080808080808080808080808EF
:10236E0008080808080808080808080808080808DF
:10237E0008080808080808080808080808080808CF
:10238E0008080808080808080808080808080800C7
:06239E000087052000008D
:00000001FF
