:100000000C9472000C9494000C9494000C94940042
:100010000C9494000C9494000C9494000C94940010
:100020000C9494000C9494000C9494000C94940000
:100030000C9494000C9494000C9494000C949400F0
:100040000C9494000C9494000C9494000C949400E0
:100050000C9494000C9494000C9494000C949400D0
:100060000C9494000C9494000C9494000C949400C0
:100070000C9494000C9494000C9494000C949400B0
:100080000C9494000C9494000C9494000C949400A0
:100090000C9494000C9494000C9494000C94940090
:1000A0000C9494000C9494000C9494000C94940080
:1000B0000C9494000C9494000C9494000C94940070
:1000C0000C9494000C9494000C9494000C94940060
:1000D0000C9494000C9494000C9494000C94940050
:1000E0000C94940011241FBECFEFD1E2DEBFCDBF30
:1000F00000E00CBF12E0A0E0B2E0EEECF1E000E0C6
:100100000BBF02C007900D92A830B107D9F71BBEF4
:1001100012E0A8E0B2E001C01D92A830B107E1F7FB
:100120000E94C6000C94E5000C9400001092C500DB
:1001300087E08093C400E0ECF0E0808182608083FF
:10014000E1ECF0E08081886080830895CF93C82F30
:100150008A3019F48DE00E94A6008FEF9FE3A2E0A1
:1001600081509040A040E1F700C00000C093C6005D
:10017000CF910895CF93DF93EC0102C00E94A600B7
:1001800089918823D9F7DF91CF9108951F93CF9359
:10019000DF930E949600C4E1D0E00BC0812F0E9443
:1001A000A6001F5F1B35D1F78AE00E94A6002197A9
:1001B00011F011E4F3CF80E092E00E94BA0080E0F9
:0E01C00090E0DF91CF911F910895F894FFCF4A
:0801CE0054686520656E6400B1
:00000001FF
