:100000000C9472000C9494000C9494000C94940042
:100010000C9494000C9494000C9494000C94940010
:100020000C9494000C9494000C9494000C94940000
:100030000C9494000C9494000C9494000C949400F0
:100040000C9494000C9494000C9494000C949400E0
:100050000C9494000C9494000C9494000C949400D0
:100060000C9494000C9494000C9494000C949600BE
:100070000C9494000C9494000C9494000C949400B0
:100080000C9494000C9494000C9494000C949400A0
:100090000C9494000C9494000C9494000C94940090
:1000A0000C9494000C9494000C9494000C94940080
:1000B0000C9494000C9494000C9494000C94940070
:1000C0000C9494000C9494000C9494000C94940060
:1000D0000C9494000C9494000C9494000C94940050
:1000E0000C94940011241FBECFEFD1E2DEBFCDBF30
:1000F00000E00CBF12E0A0E0B2E0E6E5F2E000E0D4
:100100000BBF02C007900D92A633B107D9F71BBEF3
:1001100012E0A6E3B2E001C01D92A837B107E1F7F3
:100120000E940A010C9429010C9400001F920F9266
:100130000FB60F920BB60F9211242F938F939F93AC
:10014000EF93FF93E0913602F0913702E85CFD4FA8
:100150002081222339F481E090E09093340280934F
:10016000330216C02A3049F4E0913602F09137028A
:10017000E85CFD4F8DE0808309C08091360290914C
:100180003702019690933702809336022093C6007F
:10019000FF91EF919F918F912F910F900BBE0F9038
:1001A0000FBE0F901F9018951092C50087E08093A6
:1001B000C400E0ECF0E0808182608083E1ECF0E05C
:1001C0008081886080838081806480830895BC0101
:1001D00080913302909134020097D1F3109234024F
:1001E0001092330288E392E00E94220110923702BB
:1001F000109236028091360290913702FC01E85C41
:10020000FD4F208101969093370280933602209310
:10021000C60008950E94D4007894CAE0D0E080E03F
:1002200092E00E94E7008DE092E00E94E7008BE1FF
:1002300092E00E94E700219791F78AE292E00E9403
:10024000E700FFCFFB01DC0101900D920020E1F7F8
:060250000895F894FFCFB1
:1002560049206C6F766520796F752E0A00596F7587
:10026600206C6F7665206D652E0A004865206C6FE0
:10027600766573206865722E0A00456E642021211A
:06028600210A0001000046
:00000001FF
